{
  "_format": "hh-sol-artifact-1",
  "contractName": "CommunityStakingPoolFactory",
  "sourceName": "contracts/CommunityStakingPoolFactory.sol",
  "abi": [
    {
      "anonymous": false,
      "inputs": [
        {
          "indexed": true,
          "internalType": "address",
          "name": "tokenA",
          "type": "address"
        },
        {
          "indexed": true,
          "internalType": "address",
          "name": "tokenB",
          "type": "address"
        },
        {
          "indexed": false,
          "internalType": "address",
          "name": "instance",
          "type": "address"
        },
        {
          "indexed": false,
          "internalType": "uint256",
          "name": "instancesCount",
          "type": "uint256"
        },
        {
          "indexed": true,
          "internalType": "address",
          "name": "erc20",
          "type": "address"
        }
      ],
      "name": "InstanceCreated",
      "type": "event"
    },
    {
      "inputs": [
        {
          "internalType": "address",
          "name": "",
          "type": "address"
        }
      ],
      "name": "_instanceInfos",
      "outputs": [
        {
          "internalType": "address",
          "name": "reserveToken",
          "type": "address"
        },
        {
          "internalType": "uint64",
          "name": "duration",
          "type": "uint64"
        },
        {
          "internalType": "address",
          "name": "tradedToken",
          "type": "address"
        },
        {
          "internalType": "uint64",
          "name": "reserveTokenClaimFraction",
          "type": "uint64"
        },
        {
          "internalType": "uint64",
          "name": "tradedTokenClaimFraction",
          "type": "uint64"
        },
        {
          "internalType": "uint64",
          "name": "lpClaimFraction",
          "type": "uint64"
        },
        {
          "internalType": "uint64",
          "name": "numerator",
          "type": "uint64"
        },
        {
          "internalType": "uint64",
          "name": "denominator",
          "type": "uint64"
        },
        {
          "internalType": "bool",
          "name": "exists",
          "type": "bool"
        },
        {
          "internalType": "uint8",
          "name": "instanceType",
          "type": "uint8"
        },
        {
          "internalType": "address",
          "name": "tokenErc20",
          "type": "address"
        }
      ],
      "stateMutability": "view",
      "type": "function"
    },
    {
      "inputs": [
        {
          "internalType": "address[]",
          "name": "instancesToRedeem",
          "type": "address[]"
        },
        {
          "internalType": "uint256[]",
          "name": "valuesToRedeem",
          "type": "uint256[]"
        },
        {
          "internalType": "address[][]",
          "name": "swapPaths",
          "type": "address[][]"
        }
      ],
      "name": "amountAfterSwapLP",
      "outputs": [
        {
          "internalType": "address",
          "name": "finalToken",
          "type": "address"
        },
        {
          "internalType": "uint256",
          "name": "finalAmount",
          "type": "uint256"
        }
      ],
      "stateMutability": "view",
      "type": "function"
    },
    {
      "inputs": [],
      "name": "creator",
      "outputs": [
        {
          "internalType": "address",
          "name": "",
          "type": "address"
        }
      ],
      "stateMutability": "view",
      "type": "function"
    },
    {
      "inputs": [
        {
          "internalType": "address",
          "name": "",
          "type": "address"
        },
        {
          "internalType": "address",
          "name": "",
          "type": "address"
        },
        {
          "internalType": "uint256",
          "name": "",
          "type": "uint256"
        }
      ],
      "name": "getInstance",
      "outputs": [
        {
          "internalType": "address",
          "name": "",
          "type": "address"
        }
      ],
      "stateMutability": "view",
      "type": "function"
    },
    {
      "inputs": [
        {
          "internalType": "address",
          "name": "",
          "type": "address"
        },
        {
          "internalType": "uint256",
          "name": "",
          "type": "uint256"
        }
      ],
      "name": "getInstanceErc20",
      "outputs": [
        {
          "internalType": "address",
          "name": "",
          "type": "address"
        }
      ],
      "stateMutability": "view",
      "type": "function"
    },
    {
      "inputs": [
        {
          "internalType": "address",
          "name": "reserveToken",
          "type": "address"
        },
        {
          "internalType": "address",
          "name": "tradedToken",
          "type": "address"
        },
        {
          "internalType": "uint64",
          "name": "duration",
          "type": "uint64"
        }
      ],
      "name": "getInstanceInfo",
      "outputs": [
        {
          "components": [
            {
              "internalType": "address",
              "name": "reserveToken",
              "type": "address"
            },
            {
              "internalType": "uint64",
              "name": "duration",
              "type": "uint64"
            },
            {
              "internalType": "address",
              "name": "tradedToken",
              "type": "address"
            },
            {
              "internalType": "uint64",
              "name": "reserveTokenClaimFraction",
              "type": "uint64"
            },
            {
              "internalType": "uint64",
              "name": "tradedTokenClaimFraction",
              "type": "uint64"
            },
            {
              "internalType": "uint64",
              "name": "lpClaimFraction",
              "type": "uint64"
            },
            {
              "internalType": "uint64",
              "name": "numerator",
              "type": "uint64"
            },
            {
              "internalType": "uint64",
              "name": "denominator",
              "type": "uint64"
            },
            {
              "internalType": "bool",
              "name": "exists",
              "type": "bool"
            },
            {
              "internalType": "uint8",
              "name": "instanceType",
              "type": "uint8"
            },
            {
              "internalType": "address",
              "name": "tokenErc20",
              "type": "address"
            }
          ],
          "internalType": "struct ICommunityStakingPoolFactory.InstanceInfo",
          "name": "",
          "type": "tuple"
        }
      ],
      "stateMutability": "view",
      "type": "function"
    },
    {
      "inputs": [
        {
          "internalType": "address",
          "name": "addr",
          "type": "address"
        }
      ],
      "name": "getInstanceInfoByPoolAddress",
      "outputs": [
        {
          "components": [
            {
              "internalType": "address",
              "name": "reserveToken",
              "type": "address"
            },
            {
              "internalType": "uint64",
              "name": "duration",
              "type": "uint64"
            },
            {
              "internalType": "address",
              "name": "tradedToken",
              "type": "address"
            },
            {
              "internalType": "uint64",
              "name": "reserveTokenClaimFraction",
              "type": "uint64"
            },
            {
              "internalType": "uint64",
              "name": "tradedTokenClaimFraction",
              "type": "uint64"
            },
            {
              "internalType": "uint64",
              "name": "lpClaimFraction",
              "type": "uint64"
            },
            {
              "internalType": "uint64",
              "name": "numerator",
              "type": "uint64"
            },
            {
              "internalType": "uint64",
              "name": "denominator",
              "type": "uint64"
            },
            {
              "internalType": "bool",
              "name": "exists",
              "type": "bool"
            },
            {
              "internalType": "uint8",
              "name": "instanceType",
              "type": "uint8"
            },
            {
              "internalType": "address",
              "name": "tokenErc20",
              "type": "address"
            }
          ],
          "internalType": "struct ICommunityStakingPoolFactory.InstanceInfo",
          "name": "",
          "type": "tuple"
        }
      ],
      "stateMutability": "view",
      "type": "function"
    },
    {
      "inputs": [],
      "name": "implementation",
      "outputs": [
        {
          "internalType": "address",
          "name": "",
          "type": "address"
        }
      ],
      "stateMutability": "view",
      "type": "function"
    },
    {
      "inputs": [],
      "name": "implementationErc20",
      "outputs": [
        {
          "internalType": "address",
          "name": "",
          "type": "address"
        }
      ],
      "stateMutability": "view",
      "type": "function"
    },
    {
      "inputs": [
        {
          "internalType": "address",
          "name": "impl",
          "type": "address"
        },
        {
          "internalType": "address",
          "name": "implErc20",
          "type": "address"
        }
      ],
      "name": "initialize",
      "outputs": [],
      "stateMutability": "nonpayable",
      "type": "function"
    },
    {
      "inputs": [],
      "name": "instances",
      "outputs": [
        {
          "internalType": "address[]",
          "name": "instances_",
          "type": "address[]"
        }
      ],
      "stateMutability": "view",
      "type": "function"
    },
    {
      "inputs": [
        {
          "internalType": "uint256",
          "name": "index",
          "type": "uint256"
        }
      ],
      "name": "instancesByIndex",
      "outputs": [
        {
          "internalType": "address",
          "name": "instance_",
          "type": "address"
        }
      ],
      "stateMutability": "view",
      "type": "function"
    },
    {
      "inputs": [],
      "name": "instancesCount",
      "outputs": [
        {
          "internalType": "uint256",
          "name": "amount",
          "type": "uint256"
        }
      ],
      "stateMutability": "view",
      "type": "function"
    },
    {
      "inputs": [
        {
          "internalType": "address",
          "name": "reserveToken",
          "type": "address"
        },
        {
          "internalType": "address",
          "name": "tradedToken",
          "type": "address"
        },
        {
          "internalType": "uint64",
          "name": "duration",
          "type": "uint64"
        },
        {
          "components": [
            {
              "internalType": "address",
              "name": "account",
              "type": "address"
            },
            {
              "internalType": "uint256",
              "name": "amount",
              "type": "uint256"
            }
          ],
          "internalType": "struct IStructs.StructAddrUint256[]",
          "name": "donations",
          "type": "tuple[]"
        },
        {
          "internalType": "uint64",
          "name": "reserveTokenClaimFraction",
          "type": "uint64"
        },
        {
          "internalType": "uint64",
          "name": "tradedTokenClaimFraction",
          "type": "uint64"
        },
        {
          "internalType": "uint64",
          "name": "lpClaimFraction",
          "type": "uint64"
        },
        {
          "internalType": "uint64",
          "name": "numerator",
          "type": "uint64"
        },
        {
          "internalType": "uint64",
          "name": "denominator",
          "type": "uint64"
        }
      ],
      "name": "produce",
      "outputs": [
        {
          "internalType": "address",
          "name": "instance",
          "type": "address"
        }
      ],
      "stateMutability": "nonpayable",
      "type": "function"
    },
    {
      "inputs": [
        {
          "internalType": "address",
          "name": "tokenErc20",
          "type": "address"
        },
        {
          "internalType": "uint64",
          "name": "duration",
          "type": "uint64"
        },
        {
          "components": [
            {
              "internalType": "address",
              "name": "account",
              "type": "address"
            },
            {
              "internalType": "uint256",
              "name": "amount",
              "type": "uint256"
            }
          ],
          "internalType": "struct IStructs.StructAddrUint256[]",
          "name": "donations",
          "type": "tuple[]"
        },
        {
          "internalType": "uint64",
          "name": "numerator",
          "type": "uint64"
        },
        {
          "internalType": "uint64",
          "name": "denominator",
          "type": "uint64"
        }
      ],
      "name": "produceErc20",
      "outputs": [
        {
          "internalType": "address",
          "name": "instance",
          "type": "address"
        }
      ],
      "stateMutability": "nonpayable",
      "type": "function"
    }
  ],
  "bytecode": "0x608060405234801561001057600080fd5b5061290b806100206000396000f3fe608060405234801561001057600080fd5b50600436106100c55760003560e01c806302d05d3f146100ca57806305b82531146100f357806308b0a09c146101065780630b9c6c7e146101405780632c99c587146101745780632d3231d11461018757806341e7272f1461019a578063466c0303146101ba578063485cc955146102625780634d2ace66146102775780634e2529761461028c578063552f75a0146102ad5780635c60da1b146102be5780635d7467e1146102d15780637ca25001146102e4575b600080fd5b6005546100dd906001600160a01b031681565b6040516100ea9190611df0565b60405180910390f35b6100dd610101366004611f5c565b6102f7565b6100dd610114366004612022565b60016020908152600093845260408085208252928452828420905282529020546001600160a01b031681565b6100dd61014e366004612063565b60026020908152600092835260408084209091529082529020546001600160a01b031681565b6100dd61018236600461208f565b610406565b6004546100dd906001600160a01b031681565b6101ad6101a83660046120a8565b610436565b6040516100ea91906120ef565b61024b6101c83660046121ee565b600b6020526000908152604090208054600182015460028301546003909301546001600160a01b03808416946001600160401b03600160a01b95869004811695858416950481169382821693600160401b8404831693600160801b8104841693600160c01b909104169160ff80821692610100830490911691620100009004168b565b6040516100ea9b9a99989796959493929190612212565b610275610270366004612294565b610528565b005b61027f61062d565b6040516100ea91906122cd565b61029f61029a3660046123fd565b61068f565b6040516100ea9291906124d8565b6006546040519081526020016100ea565b6003546100dd906001600160a01b031681565b6100dd6102df3660046124f1565b6109f1565b6101ad6102f23660046121ee565b610ae4565b6005546000906001600160a01b0316331461031157600080fd5b61031e8a8a8a8989610bb5565b60006103308b8b8b8a8a8a8a8a610dc2565b90506001600160a01b0381166103615760405162461bcd60e51b815260040161035890612572565b60405180910390fd5b6001600160401b0389166103875760405162461bcd60e51b8152600401610358906125b9565b600554604051634e89326960e11b81526001600160a01b0383811692639d1264d2926103c592909116908f908f908e908e908e908e90600401612637565b600060405180830381600087803b1580156103df57600080fd5b505af11580156103f3573d6000803e3d6000fd5b50929d9c50505050505050505050505050565b60006006828154811061041b5761041b612697565b6000918252602090912001546001600160a01b031692915050565b61043e611d87565b506001600160a01b03928316600090815260016020818152604080842095871684529481528483206001600160401b03948516845281528483205486168352600b81529184902084516101608101865281548088168252600160a01b908190048616948201949094529181015480871695830195909552919093048216606084015260028101548083166080850152600160401b8104831660a0850152600160801b8104831660c0850152600160c01b900490911660e08301526003015460ff80821615156101008085019190915282041661012083015262010000900490911661014082015290565b600054610100900460ff166105435760005460ff1615610547565b303b155b6105aa5760405162461bcd60e51b815260206004820152602e60248201527f496e697469616c697a61626c653a20636f6e747261637420697320616c72656160448201526d191e481a5b9a5d1a585b1a5e995960921b6064820152608401610358565b600054610100900460ff161580156105cc576000805461ffff19166101011790555b600380546001600160a01b038581166001600160a01b0319928316179092556004805492851692821692909217909155600580549091163317905560088054600260ff199091161790558015610628576000805461ff00191690555b505050565b6060600680548060200260200160405190810160405280929190818152602001828054801561068557602002820191906000526020600020905b81546001600160a01b03168152600190910190602001808311610667575b5050505050905090565b6000808080808080805b8a518110156109e357600b60008c83815181106106b8576106b8612697565b6020908102919091018101516001600160a01b0316825281019190915260400160002060020154600160401b90046001600160401b03166107125789818151811061070557610705612697565b60200260200101516107cf565b620186a06001600160401b0316600b60008d848151811061073557610735612697565b60200260200101516001600160a01b03166001600160a01b0316815260200190815260200160002060020160089054906101000a90046001600160401b03166001600160401b03168b838151811061078f5761078f612697565b60200260200101516107a191906126d9565b6107ab91906126f8565b8a82815181106107bd576107bd612697565b60200260200101516107cf919061271a565b91506107f48b82815181106107e6576107e6612697565b602002602001015183611105565b8e5193995091975095509350600b906000908d908490811061081857610818612697565b6020908102919091018101516001600160a01b03168252810191909152604001600020600201546001600160401b0316156108c157620186a06001600160401b0316600b60008d848151811061087057610870612697565b6020908102919091018101516001600160a01b03168252810191909152604001600020600201546108aa906001600160401b0316886126d9565b6108b491906126f8565b6108be908761271a565b95505b600b60008c83815181106108d7576108d7612697565b6020908102919091018101516001600160a01b0316825281019190915260400160002060010154600160a01b90046001600160401b03161561098e57620186a06001600160401b0316600b60008d848151811061093657610936612697565b6020908102919091018101516001600160a01b031682528101919091526040016000206001015461097790600160a01b90046001600160401b0316866126d9565b61098191906126f8565b61098b908561271a565b93505b60008061099f87898d888c8b6113de565b925090506109bc856109b18885612731565b8d60008060006113de565b925090506109ca828a612731565b90995097508190506109db81612749565b915050610699565b505050505050935093915050565b6005546000906001600160a01b03163314610a0b57600080fd5b610a158686611679565b6000610a238787868661171d565b90506001600160a01b038116610a4b5760405162461bcd60e51b815260040161035890612572565b6001600160401b038616610a715760405162461bcd60e51b8152600401610358906125b9565b60055460405163614a73c760e11b81526001600160a01b038381169263c294e78e92610aa792909116908b908a90600401612764565b600060405180830381600087803b158015610ac157600080fd5b505af1158015610ad5573d6000803e3d6000fd5b50929998505050505050505050565b610aec611d87565b506001600160a01b039081166000908152600b6020908152604091829020825161016081018452815480861682526001600160401b03600160a01b918290048116948301949094526001830154808716958301959095529093048216606084015260028101548083166080850152600160401b8104831660a0850152600160801b8104831660c0850152600160c01b900490911660e08301526003015460ff80821615156101008085019190915282041661012083015262010000900490911661014082015290565b836001600160a01b0316856001600160a01b03161415610c225760405162461bcd60e51b815260206004820152602260248201527f436f6d6d756e697479436f696e3a204944454e544943414c5f41444452455353604482015261455360f01b6064820152608401610358565b6001600160a01b03851615801590610c4257506001600160a01b03841615155b610c8c5760405162461bcd60e51b815260206004820152601b60248201527a436f6d6d756e697479436f696e3a205a45524f5f4144445245535360281b6044820152606401610358565b620186a06001600160401b03831611801590610cb45750620186a06001600160401b03821611155b610d0c5760405162461bcd60e51b815260206004820152602360248201527f436f6d6d756e697479436f696e3a2057524f4e475f434c41494d5f465241435460448201526224a7a760e91b6064820152608401610358565b6001600160a01b038086166000908152600160209081526040808320888516845282528083206001600160401b0388168452909152902054168015610d635760405162461bcd60e51b815260040161035890612799565b600260085460ff166002811115610d7c57610d7c6126ad565b1480610d9e5750600060085460ff166002811115610d9c57610d9c6126ad565b145b610dba5760405162461bcd60e51b8152600401610358906127db565b505050505050565b600354600090610dda906001600160a01b0316611a4e565b6001600160a01b03808b1660009081526001602081815260408084208e8616855282528084206001600160401b038e168552825280842080549587166001600160a01b03199687168117909155600680548287526009855292862083905582850190557ff652222313e28459528d920b65115c16c04f3efc82aaedc97be59f3f377c0d3f90910180549095161790935560078054918201815582529182047fa66cc928b5edb82af9bd49922954155ab7b0942694bea4ce44661d9a8736c6880180549394509092909160ff601f9091166101000a90810219909116908302179055506001600160a01b038082166000908152600a6020908152604080832080546001600160a01b031916331790558051610160810182528d851681526001600160401b03808d1693820193909352938c16908401528881166060840152878116608084015286811660a084015285811660c0840152841660e0830152600161010083015261012082019060ff9081168252600060209283018190526001600160a01b038581168252600b845260409182902085518154958701516001600160401b03908116600160a01b9081026001600160e01b0319988916938616939093179290921783559387015160018301805460608a0151871690930292909716908416171790945560808501516002808601805460a089015160c08a015160e08b01518816600160c01b026001600160c01b03918916600160801b02919091166001600160801b03928916600160401b026001600160801b0319909416969098169590951791909117169490941791909117909255610100808601516003909501805461012088015161014090980151909316620100000262010000600160b01b03199790951690910261ff00199515159590951661ffff1990921691909117939093179390931617905560085460ff16600281111561109a5761109a6126ad565b14156110ab576008805460ff191690555b6006546040516000916001600160a01b038b811692908d16917f81701c1c70b426eb8901f685c148db992f144facb9e1c40bf83cdaf059348c8b916110f19187916124d8565b60405180910390a498975050505050505050565b6001600160a01b038083166000908152600b6020526040812060018101549054919290811691839116821580159061114557506001600160a01b03811615155b61118e5760405162461bcd60e51b815260206004820152601a6024820152796164647265737365732063616e206e6f7420626520656d70747960301b6044820152606401610358565b60405163e6a4390560e01b8152600090735c69bee701ef814a2b6a3edd4b1652cb9cc5aa6f9063e6a43905906111ca908790869060040161281f565b602060405180830381865afa1580156111e7573d6000803e3d6000fd5b505050506040513d601f19601f8201168201806040525081019061120b9190612839565b90506001600160a01b03811661125a5760405162461bcd60e51b81526020600482015260146024820152737061697220646f6573206e6f742065786973747360601b6044820152606401610358565b6040516370a0823160e01b81526000906001600160a01b038416906370a0823190611289908590600401611df0565b602060405180830381865afa1580156112a6573d6000803e3d6000fd5b505050506040513d601f19601f820116820180604052508101906112ca9190612856565b90506000856001600160a01b03166370a08231846040518263ffffffff1660e01b81526004016112fa9190611df0565b602060405180830381865afa158015611317573d6000803e3d6000fd5b505050506040513d601f19601f8201168201806040525081019061133b9190612856565b90506000836001600160a01b03166318160ddd6040518163ffffffff1660e01b8152600401602060405180830381865afa15801561137d573d6000803e3d6000fd5b505050506040513d601f19601f820116820180604052508101906113a19190612856565b9050806113ae848b6126d9565b6113b891906126f8565b9550806113c5838b6126d9565b6113cf91906126f8565b97505050505092959194509250565b6000806001600160a01b03851661160b5760008060005b88518110156115d25788818151811061141057611410612697565b602002602001015160018a838151811061142c5761142c612697565b60200260200101515161143f919061271a565b8151811061144f5761144f612697565b60200260200101516001600160a01b03168b6001600160a01b0316141561147e578a8a9450945050505061166e565b8a925089915060005b89828151811061149957611499612697565b6020026020010151518110156115bf576000806114eb868d86815181106114c2576114c2612697565b602002602001015185815181106114db576114db612697565b6020026020010151878d8d611aeb565b9150915081156114fa57611501565b50506115bf565b60018c858151811061151557611515612697565b602002602001015151611528919061271a565b831415611572578b848151811061154157611541612697565b6020026020010151838151811061155a5761155a612697565b6020026020010151819750975050505050505061166e565b8b848151811061158457611584612697565b6020026020010151838151811061159d5761159d612697565b60200260200101519550809450505080806115b790612749565b915050611487565b50806115ca81612749565b9150506113f5565b5060405162461bcd60e51b815260206004820152600d60248201526c1c185d1a1cc81a5b9d985b1a59609a1b6044820152606401610358565b60008061161b8a888b8989611aeb565b91509150811561163157869350915061166e9050565b60405162461bcd60e51b8152602060048201526012602482015271199bdc98d9481cddd85c081a5b9d985b1a5960721b6044820152606401610358565b965096945050505050565b6001600160a01b0380831660009081526002602090815260408083206001600160401b03861684529091529020541680156116c65760405162461bcd60e51b815260040161035890612799565b600260085460ff1660028111156116df576116df6126ad565b14806117015750600160085460ff1660028111156116ff576116ff6126ad565b145b6106285760405162461bcd60e51b8152600401610358906127db565b600454600090611735906001600160a01b0316611a4e565b6001600160a01b0380871660009081526002602090815260408083206001600160401b038a168452825280832080549486166001600160a01b03199586168117909155600680548286526009855292852083905560018381019091557ff652222313e28459528d920b65115c16c04f3efc82aaedc97be59f3f377c0d3f909201805490951617909355600780548085018255925281047fa66cc928b5edb82af9bd49922954155ab7b0942694bea4ce44661d9a8736c688018054939450919260ff601f9092166101000a9182021916908302179055506001600160a01b0381166000908152600a6020908152604080832080546001600160a01b031916331790558051610160810182528381526001600160401b0380891693820193909352908101839052606081018390526080810183905260a081019290925284811660c0830152831660e08201526001610100820181905261012082019060ff90811682526001600160a01b038881166020938401528481166000908152600b845260409081902085518154958701519084166001600160e01b031996871617600160a01b6001600160401b0392831681029190911783559287015160018301805460608a01519287169816979097179082169093029290921790945560808501516002808601805460a089015160c08a015160e08b01519587166001600160801b031990931692909217600160401b91871691909102176001600160801b0316600160801b918616919091026001600160c01b031617600160c01b939094169290920292909217905561010080860151600390950180546101208801516101409098015161ffff1990911696151561ff0019169690961796909416029490941762010000600160b01b03191662010000939091169290920291909117905560085460ff1660028111156119e7576119e76126ad565b14156119fb576008805460ff191660011790555b6006546040516001600160a01b0387169160009182917f81701c1c70b426eb8901f685c148db992f144facb9e1c40bf83cdaf059348c8b91611a3e9187916124d8565b60405180910390a4949350505050565b6000604051733d602d80600a3d3981f3363d3d373d3d3d363d7360601b81528260601b60148201526e5af43d82803e903d91602b57fd5bf360881b60288201526037816000f09150506001600160a01b038116611ae65760405162461bcd60e51b8152602060048201526016602482015275115490cc4c4d8dce8818dc99585d194819985a5b195960521b6044820152606401610358565b919050565b60405163e6a4390560e01b815260009081908190735c69bee701ef814a2b6a3edd4b1652cb9cc5aa6f9063e6a4390590611b2b908b908b9060040161281f565b602060405180830381865afa158015611b48573d6000803e3d6000fd5b505050506040513d601f19601f82011682018060405250810190611b6c9190612839565b90506001600160a01b038116611b8157611d7c565b600080826001600160a01b0316630902f1ac6040518163ffffffff1660e01b8152600401606060405180830381865afa158015611bc2573d6000803e3d6000fd5b505050506040513d601f19601f82011682018060405250810190611be69190612886565b5091509150816001600160701b031660001480611c0a57506001600160701b038116155b15611c1457611d79565b826001600160a01b0316630dfe16816040518163ffffffff1660e01b8152600401602060405180830381865afa158015611c52573d6000803e3d6000fd5b505050506040513d601f19601f82011682018060405250810190611c769190612839565b6001600160a01b03168a6001600160a01b031614611c95578082611c98565b81815b90925090506001600160701b03821687101580611cbe5750806001600160701b03168610155b15611cc857611d79565b611cd287836128d6565b9150611cde86826128d6565b604051630153543560e21b8152600481018a90526001600160701b03808516602483015282166044820152909150737a250d5630b4cf539739df2c5dacb4c659f2488d9063054d50d490606401602060405180830381865afa158015611d48573d6000803e3d6000fd5b505050506040513d601f19601f82011682018060405250810190611d6c9190612856565b93508315611d7957600194505b50505b509550959350505050565b6040805161016081018252600080825260208201819052918101829052606081018290526080810182905260a0810182905260c0810182905260e081018290526101008101829052610120810182905261014081019190915290565b6001600160a01b03169052565b6001600160a01b0391909116815260200190565b6001600160a01b0381168114611e1957600080fd5b50565b80356001600160401b0381168114611ae657600080fd5b634e487b7160e01b600052604160045260246000fd5b604080519081016001600160401b0381118282101715611e6b57611e6b611e33565b60405290565b604051601f8201601f191681016001600160401b0381118282101715611e9957611e99611e33565b604052919050565b60006001600160401b03821115611eba57611eba611e33565b5060051b60200190565b600082601f830112611ed557600080fd5b81356020611eea611ee583611ea1565b611e71565b82815260069290921b84018101918181019086841115611f0957600080fd5b8286015b84811015611f515760408189031215611f265760008081fd5b611f2e611e49565b8135611f3981611e04565b81528185013585820152835291830191604001611f0d565b509695505050505050565b60008060008060008060008060006101208a8c031215611f7b57600080fd5b8935611f8681611e04565b985060208a0135611f9681611e04565b9750611fa460408b01611e1c565b965060608a01356001600160401b03811115611fbf57600080fd5b611fcb8c828d01611ec4565b965050611fda60808b01611e1c565b9450611fe860a08b01611e1c565b9350611ff660c08b01611e1c565b925061200460e08b01611e1c565b91506120136101008b01611e1c565b90509295985092959850929598565b60008060006060848603121561203757600080fd5b833561204281611e04565b9250602084013561205281611e04565b929592945050506040919091013590565b6000806040838503121561207657600080fd5b823561208181611e04565b946020939093013593505050565b6000602082840312156120a157600080fd5b5035919050565b6000806000606084860312156120bd57600080fd5b83356120c881611e04565b925060208401356120d881611e04565b91506120e660408501611e1c565b90509250925092565b600061016082019050612103828451611de3565b602083015161211d60208401826001600160401b03169052565b5060408301516121306040840182611de3565b50606083015161214b60608401826001600160401b03169052565b50608083015161216660808401826001600160401b03169052565b5060a083015161218160a08401826001600160401b03169052565b5060c083015161219c60c08401826001600160401b03169052565b5060e08301516121b760e08401826001600160401b03169052565b50610100838101511515908301526101208084015160ff1690830152610140808401516121e682850182611de3565b505092915050565b60006020828403121561220057600080fd5b813561220b81611e04565b9392505050565b6001600160a01b038c811682526001600160401b038c81166020840152908b1660408301528981166060830152888116608083015287811660a083015286811660c0830152851660e082015283151561010082015260ff83166101208201526101608101612284610140830184611de3565b9c9b505050505050505050505050565b600080604083850312156122a757600080fd5b82356122b281611e04565b915060208301356122c281611e04565b809150509250929050565b6020808252825182820181905260009190848201906040850190845b8181101561230e5783516001600160a01b0316835292840192918401916001016122e9565b50909695505050505050565b600082601f83011261232b57600080fd5b8135602061233b611ee583611ea1565b82815260059290921b8401810191818101908684111561235a57600080fd5b8286015b84811015611f5157803561237181611e04565b835291830191830161235e565b600082601f83011261238f57600080fd5b8135602061239f611ee583611ea1565b82815260059290921b840181019181810190868411156123be57600080fd5b8286015b84811015611f515780356001600160401b038111156123e15760008081fd5b6123ef8986838b010161231a565b8452509183019183016123c2565b60008060006060848603121561241257600080fd5b83356001600160401b038082111561242957600080fd5b6124358783880161231a565b945060209150818601358181111561244c57600080fd5b8601601f8101881361245d57600080fd5b803561246b611ee582611ea1565b81815260059190911b8201840190848101908a83111561248a57600080fd5b928501925b828410156124a85783358252928501929085019061248f565b965050505060408601359150808211156124c157600080fd5b506124ce8682870161237e565b9150509250925092565b6001600160a01b03929092168252602082015260400190565b600080600080600060a0868803121561250957600080fd5b853561251481611e04565b945061252260208701611e1c565b935060408601356001600160401b0381111561253d57600080fd5b61254988828901611ec4565b93505061255860608701611e1c565b915061256660808701611e1c565b90509295509295909350565b60208082526027908201527f436f6d6d756e697479436f696e3a20494e5354414e43455f4352454154494f4e60408201526617d1905253115160ca1b606082015260800190565b60208082526015908201527431b0b73a103132903d32b93790323ab930ba34b7b760591b604082015260600190565b600081518084526020808501945080840160005b8381101561262c57815180516001600160a01b0316885283015183880152604090960195908201906001016125fc565b509495945050505050565b6001600160a01b03888116825287811660208301528616604082015260e06060820181905260009061266b908301876125e8565b6001600160401b03958616608084015293851660a083015250921660c090920191909152949350505050565b634e487b7160e01b600052603260045260246000fd5b634e487b7160e01b600052602160045260246000fd5b634e487b7160e01b600052601160045260246000fd5b60008160001904831182151516156126f3576126f36126c3565b500290565b60008261271557634e487b7160e01b600052601260045260246000fd5b500490565b60008282101561272c5761272c6126c3565b500390565b60008219821115612744576127446126c3565b500190565b600060001982141561275d5761275d6126c3565b5060010190565b6001600160a01b03848116825283166020820152606060408201819052600090612790908301846125e8565b95945050505050565b60208082526022908201527f436f6d6d756e697479436f696e3a20504149525f414c52454144595f45584953604082015261545360f01b606082015260800190565b60208082526024908201527f436f6d6d756e697479436f696e3a20494e56414c49445f494e5354414e43455f6040820152635459504560e01b606082015260800190565b6001600160a01b0392831681529116602082015260400190565b60006020828403121561284b57600080fd5b815161220b81611e04565b60006020828403121561286857600080fd5b5051919050565b80516001600160701b0381168114611ae657600080fd5b60008060006060848603121561289b57600080fd5b6128a48461286f565b92506128b26020850161286f565b9150604084015163ffffffff811681146128cb57600080fd5b809150509250925092565b60006001600160701b03838116908316818110156128f6576128f66126c3565b03939250505056fea164736f6c634300080b000a",
  "linkReferences": {},
  "deployedLinkReferences": {}
}