{
  "_format": "hh-sol-artifact-1",
  "contractName": "CommunityStakingPoolErc20",
  "sourceName": "contracts/CommunityStakingPoolErc20.sol",
  "abi": [
    {
      "anonymous": false,
      "inputs": [
        {
          "indexed": true,
          "internalType": "address",
          "name": "from",
          "type": "address"
        },
        {
          "indexed": true,
          "internalType": "address",
          "name": "to",
          "type": "address"
        },
        {
          "indexed": false,
          "internalType": "uint256",
          "name": "amount",
          "type": "uint256"
        }
      ],
      "name": "Donated",
      "type": "event"
    },
    {
      "anonymous": false,
      "inputs": [
        {
          "indexed": true,
          "internalType": "address",
          "name": "account",
          "type": "address"
        },
        {
          "indexed": false,
          "internalType": "uint256",
          "name": "amount",
          "type": "uint256"
        }
      ],
      "name": "Redeemed",
      "type": "event"
    },
    {
      "inputs": [],
      "name": "FRACTION",
      "outputs": [
        {
          "internalType": "uint64",
          "name": "",
          "type": "uint64"
        }
      ],
      "stateMutability": "view",
      "type": "function"
    },
    {
      "inputs": [
        {
          "internalType": "uint256",
          "name": "tokenAmount",
          "type": "uint256"
        },
        {
          "internalType": "address",
          "name": "beneficiary",
          "type": "address"
        }
      ],
      "name": "buyAndStake",
      "outputs": [],
      "stateMutability": "nonpayable",
      "type": "function"
    },
    {
      "inputs": [
        {
          "internalType": "uint256",
          "name": "tokenAmount",
          "type": "uint256"
        }
      ],
      "name": "buyAndStake",
      "outputs": [],
      "stateMutability": "nonpayable",
      "type": "function"
    },
    {
      "inputs": [],
      "name": "erc20Token",
      "outputs": [
        {
          "internalType": "address",
          "name": "",
          "type": "address"
        }
      ],
      "stateMutability": "view",
      "type": "function"
    },
    {
      "inputs": [],
      "name": "erc20TokenClaimFraction",
      "outputs": [
        {
          "internalType": "uint64",
          "name": "",
          "type": "uint64"
        }
      ],
      "stateMutability": "view",
      "type": "function"
    },
    {
      "inputs": [
        {
          "internalType": "address",
          "name": "stakingProducedBy_",
          "type": "address"
        },
        {
          "internalType": "address",
          "name": "erc20Token_",
          "type": "address"
        },
        {
          "components": [
            {
              "internalType": "address",
              "name": "account",
              "type": "address"
            },
            {
              "internalType": "uint256",
              "name": "amount",
              "type": "uint256"
            }
          ],
          "internalType": "struct IStructs.StructAddrUint256[]",
          "name": "donations_",
          "type": "tuple[]"
        }
      ],
      "name": "initialize",
      "outputs": [],
      "stateMutability": "nonpayable",
      "type": "function"
    },
    {
      "inputs": [
        {
          "internalType": "address",
          "name": "account",
          "type": "address"
        },
        {
          "internalType": "uint256",
          "name": "amount",
          "type": "uint256"
        }
      ],
      "name": "redeem",
      "outputs": [],
      "stateMutability": "nonpayable",
      "type": "function"
    },
    {
      "inputs": [
        {
          "internalType": "address",
          "name": "account",
          "type": "address"
        },
        {
          "internalType": "uint256",
          "name": "amount",
          "type": "uint256"
        }
      ],
      "name": "redeemAndRemoveLiquidity",
      "outputs": [],
      "stateMutability": "nonpayable",
      "type": "function"
    },
    {
      "inputs": [
        {
          "internalType": "address",
          "name": "",
          "type": "address"
        },
        {
          "internalType": "address",
          "name": "from",
          "type": "address"
        },
        {
          "internalType": "address",
          "name": "to",
          "type": "address"
        },
        {
          "internalType": "uint256",
          "name": "amount",
          "type": "uint256"
        },
        {
          "internalType": "bytes",
          "name": "",
          "type": "bytes"
        },
        {
          "internalType": "bytes",
          "name": "",
          "type": "bytes"
        }
      ],
      "name": "tokensReceived",
      "outputs": [],
      "stateMutability": "nonpayable",
      "type": "function"
    },
    {
      "stateMutability": "payable",
      "type": "receive"
    }
  ],
  "bytecode": "0x608060405234801561001057600080fd5b50610fe2806100206000396000f3fe6080604052600436106100795760003560e01c806223de29146100b95780630a408475146100e05780631e9a69501461010057806371891d471461012057806382341e8f146101005780638a13eea714610154578063c294e78e14610181578063d182a16a146101a1578063fbbc996b146101c157600080fd5b366100b45760405162461bcd60e51b815260206004820152600660248201526511115392515160d21b60448201526064015b60405180910390fd5b600080fd5b3480156100c557600080fd5b506100de6100d4366004610ba4565b5050505050505050565b005b3480156100ec57600080fd5b506100de6100fb366004610c4e565b6101e8565b34801561010c57600080fd5b506100de61011b366004610c7a565b6102a9565b34801561012c57600080fd5b50610137620186a081565b6040516001600160401b0390911681526020015b60405180910390f35b34801561016057600080fd5b50606754610174906001600160a01b031681565b60405161014b9190610ca4565b34801561018d57600080fd5b506100de61019c366004610d26565b6102ce565b3480156101ad57600080fd5b506100de6101bc366004610e1b565b6103af565b3480156101cd57600080fd5b5060675461013790600160a01b90046001600160401b031681565b6002603354141561020b5760405162461bcd60e51b81526004016100ab90610e34565b6002603355600061021a61046f565b6067546040516323b872dd60e01b81529192506001600160a01b0316906323b872dd9061024f90849030908890600401610e6b565b6020604051808303816000875af115801561026e573d6000803e3d6000fd5b505050506040513d601f19601f820116820180604052508101906102929190610e8f565b5061029f82846000610500565b5050600160335550565b6065546001600160a01b031633146102c057600080fd5b6102ca82826106ec565b5050565b600054610100900460ff166102e95760005460ff16156102ed565b303b155b6103505760405162461bcd60e51b815260206004820152602e60248201527f496e697469616c697a61626c653a20636f6e747261637420697320616c72656160448201526d191e481a5b9a5d1a585b1a5e995960921b60648201526084016100ab565b600054610100900460ff16158015610372576000805461ffff19166101011790555b61037c848361076e565b606780546001600160a01b0319166001600160a01b03851617905580156103a9576000805461ff00191690555b50505050565b600260335414156103d25760405162461bcd60e51b81526004016100ab90610e34565b600260335560006103e161046f565b6067546040516323b872dd60e01b81529192506001600160a01b0316906323b872dd9061041690849030908790600401610e6b565b6020604051808303816000875af1158015610435573d6000803e3d6000fd5b505050506040513d601f19601f820116820180604052508101906104599190610e8f565b5061046681836000610500565b50506001603355565b33601436108015906104ed575060655460405163572b6c0560e01b81526001600160a01b039091169063572b6c05906104ac908490600401610ca4565b602060405180830381865afa1580156104c9573d6000803e3d6000fd5b505050506040513d601f19601f820116820180604052508101906104ed9190610e8f565b156104fd575060131936013560601c5b90565b60665482901561068a576000805b60665481101561068757620186a06001600160401b03166066828154811061053857610538610eb1565b906000526020600020906002020160010154866105559190610edd565b61055f9190610efc565b9150811561067557606554606680546001600160a01b0390921691639efb64dd91908490811061059157610591610eb1565b60009182526020909120600290910201546040516001600160e01b031960e084901b1681526105d0916001600160a01b03169086908990600401610f1e565b600060405180830381600087803b1580156105ea57600080fd5b505af11580156105fe573d6000803e3d6000fd5b505050506066818154811061061557610615610eb1565b6000918252602091829020600290910201546040518481526001600160a01b0391821692918916917f4dfff917e1fbb261a082e98cc7d43029621f6a6eb05ff3fef1510d5f1eb4857c910160405180910390a36106728284610f3f565b92505b8061067f81610f56565b91505061050e565b50505b606554604051639efb64dd60e01b81526001600160a01b0390911690639efb64dd906106be90879085908790600401610f1e565b600060405180830381600087803b1580156106d857600080fd5b505af11580156100d4573d6000803e3d6000fd5b60006106f88383610871565b60675460405163a9059cbb60e01b81529192506001600160a01b03169063a9059cbb9061072b9086908590600401610f71565b6020604051808303816000875af115801561074a573d6000803e3d6000fd5b505050506040513d601f19601f820116820180604052508101906103a99190610e8f565b600054610100900460ff166107955760405162461bcd60e51b81526004016100ab90610f8a565b606580546001600160a01b0319166001600160a01b03841617905560005b815181101561086857606660405180604001604052808484815181106107db576107db610eb1565b6020026020010151600001516001600160a01b0316815260200184848151811061080757610807610eb1565b602090810291909101810151810151909152825460018082018555600094855293829020835160029092020180546001600160a01b0319166001600160a01b039092169190911781559101519101558061086081610f56565b9150506107b3565b506102ca6108ee565b6000826001600160a01b03167f4896181ff8f4543cc00db9fe9b6fb7e6f032b7eb772c72ab1ec1b4d2e03b9369836040516108ae91815260200190565b60405180910390a26067546065546108e7916001600160a01b03808216928692600160a01b90046001600160401b03169116600061091f565b9392505050565b600054610100900460ff166109155760405162461bcd60e51b81526004016100ab90610f8a565b61091d610b12565b565b60006001600160a01b03821615620186a08514156109ae5760405163a9059cbb60e01b81526001600160a01b0388169063a9059cbb906109659087908a90600401610f71565b6020604051808303816000875af1158015610984573d6000803e3d6000fd5b505050506040513d601f19601f820116820180604052508101906109a89190610e8f565b50610b08565b846109ef5780156109c157859150610b08565b60405163a9059cbb60e01b81526001600160a01b0388169063a9059cbb906109659086908a90600401610f71565b6000620186a06109ff8789610edd565b610a099190610efc565b60405163a9059cbb60e01b81529091506001600160a01b0389169063a9059cbb90610a3a9088908590600401610f71565b6020604051808303816000875af1158015610a59573d6000803e3d6000fd5b505050506040513d601f19601f82011682018060405250810190610a7d9190610e8f565b50610a888188610f3f565b925081610b065760405163a9059cbb60e01b81526001600160a01b0389169063a9059cbb90610abd9087908790600401610f71565b6020604051808303816000875af1158015610adc573d6000803e3d6000fd5b505050506040513d601f19601f82011682018060405250810190610b009190610e8f565b50600092505b505b5095945050505050565b600054610100900460ff16610b395760405162461bcd60e51b81526004016100ab90610f8a565b6001603355565b80356001600160a01b0381168114610b5757600080fd5b919050565b60008083601f840112610b6e57600080fd5b5081356001600160401b03811115610b8557600080fd5b602083019150836020828501011115610b9d57600080fd5b9250929050565b60008060008060008060008060c0898b031215610bc057600080fd5b610bc989610b40565b9750610bd760208a01610b40565b9650610be560408a01610b40565b95506060890135945060808901356001600160401b0380821115610c0857600080fd5b610c148c838d01610b5c565b909650945060a08b0135915080821115610c2d57600080fd5b50610c3a8b828c01610b5c565b999c989b5096995094979396929594505050565b60008060408385031215610c6157600080fd5b82359150610c7160208401610b40565b90509250929050565b60008060408385031215610c8d57600080fd5b610c9683610b40565b946020939093013593505050565b6001600160a01b0391909116815260200190565b634e487b7160e01b600052604160045260246000fd5b604080519081016001600160401b0381118282101715610cf057610cf0610cb8565b60405290565b604051601f8201601f191681016001600160401b0381118282101715610d1e57610d1e610cb8565b604052919050565b600080600060608486031215610d3b57600080fd5b610d4484610b40565b92506020610d53818601610b40565b92506040808601356001600160401b0380821115610d7057600080fd5b818801915088601f830112610d8457600080fd5b813581811115610d9657610d96610cb8565b610da4858260051b01610cf6565b818152858101925060069190911b83018501908a821115610dc457600080fd5b928501925b81841015610e0b5784848c031215610de15760008081fd5b610de9610cce565b610df285610b40565b8152848701358782015283529284019291850191610dc9565b8096505050505050509250925092565b600060208284031215610e2d57600080fd5b5035919050565b6020808252601f908201527f5265656e7472616e637947756172643a207265656e7472616e742063616c6c00604082015260600190565b6001600160a01b039384168152919092166020820152604081019190915260600190565b600060208284031215610ea157600080fd5b815180151581146108e757600080fd5b634e487b7160e01b600052603260045260246000fd5b634e487b7160e01b600052601160045260246000fd5b6000816000190483118215151615610ef757610ef7610ec7565b500290565b600082610f1957634e487b7160e01b600052601260045260246000fd5b500490565b6001600160a01b039390931683526020830191909152604082015260600190565b600082821015610f5157610f51610ec7565b500390565b6000600019821415610f6a57610f6a610ec7565b5060010190565b6001600160a01b03929092168252602082015260400190565b6020808252602b908201527f496e697469616c697a61626c653a20636f6e7472616374206973206e6f74206960408201526a6e697469616c697a696e6760a81b60608201526080019056fea164736f6c634300080b000a",
  "linkReferences": {},
  "deployedLinkReferences": {}
}