{
  "_format": "hh-sol-artifact-1",
  "contractName": "CommunityCoinFactory",
  "sourceName": "contracts/CommunityCoinFactory.sol",
  "abi": [
    {
      "inputs": [
        {
          "internalType": "address",
          "name": "communityCoinImpl",
          "type": "address"
        },
        {
          "internalType": "address",
          "name": "communityStakingPoolFactoryImpl",
          "type": "address"
        },
        {
          "internalType": "address",
          "name": "stakingPoolImpl",
          "type": "address"
        },
        {
          "internalType": "address",
          "name": "stakingPoolImplErc20",
          "type": "address"
        },
        {
          "internalType": "address",
          "name": "rolesManagementImpl",
          "type": "address"
        }
      ],
      "stateMutability": "nonpayable",
      "type": "constructor"
    },
    {
      "anonymous": false,
      "inputs": [
        {
          "indexed": false,
          "internalType": "address",
          "name": "instance",
          "type": "address"
        },
        {
          "indexed": false,
          "internalType": "uint256",
          "name": "instancesCount",
          "type": "uint256"
        }
      ],
      "name": "InstanceCreated",
      "type": "event"
    },
    {
      "anonymous": false,
      "inputs": [
        {
          "indexed": true,
          "internalType": "address",
          "name": "previousOwner",
          "type": "address"
        },
        {
          "indexed": true,
          "internalType": "address",
          "name": "newOwner",
          "type": "address"
        }
      ],
      "name": "OwnershipTransferred",
      "type": "event"
    },
    {
      "inputs": [],
      "name": "communityCoinImplementation",
      "outputs": [
        {
          "internalType": "address",
          "name": "",
          "type": "address"
        }
      ],
      "stateMutability": "view",
      "type": "function"
    },
    {
      "inputs": [],
      "name": "communityStakingPoolFactoryImplementation",
      "outputs": [
        {
          "internalType": "address",
          "name": "",
          "type": "address"
        }
      ],
      "stateMutability": "view",
      "type": "function"
    },
    {
      "inputs": [
        {
          "internalType": "uint256",
          "name": "",
          "type": "uint256"
        }
      ],
      "name": "instances",
      "outputs": [
        {
          "internalType": "address",
          "name": "",
          "type": "address"
        }
      ],
      "stateMutability": "view",
      "type": "function"
    },
    {
      "inputs": [],
      "name": "instancesCount",
      "outputs": [
        {
          "internalType": "uint256",
          "name": "amount",
          "type": "uint256"
        }
      ],
      "stateMutability": "view",
      "type": "function"
    },
    {
      "inputs": [],
      "name": "owner",
      "outputs": [
        {
          "internalType": "address",
          "name": "",
          "type": "address"
        }
      ],
      "stateMutability": "view",
      "type": "function"
    },
    {
      "inputs": [
        {
          "internalType": "address",
          "name": "hook",
          "type": "address"
        },
        {
          "internalType": "uint256",
          "name": "discountSensitivity",
          "type": "uint256"
        },
        {
          "components": [
            {
              "internalType": "address",
              "name": "addr",
              "type": "address"
            },
            {
              "internalType": "string",
              "name": "adminRole",
              "type": "string"
            },
            {
              "internalType": "string",
              "name": "redeemRole",
              "type": "string"
            },
            {
              "internalType": "string",
              "name": "circulationRole",
              "type": "string"
            }
          ],
          "internalType": "struct ICommunityRolesManagement.CommunitySettings",
          "name": "communitySettings",
          "type": "tuple"
        }
      ],
      "name": "produce",
      "outputs": [
        {
          "internalType": "address",
          "name": "instance",
          "type": "address"
        }
      ],
      "stateMutability": "nonpayable",
      "type": "function"
    },
    {
      "inputs": [],
      "name": "renounceOwnership",
      "outputs": [],
      "stateMutability": "nonpayable",
      "type": "function"
    },
    {
      "inputs": [],
      "name": "rolesManagementImplementation",
      "outputs": [
        {
          "internalType": "address",
          "name": "",
          "type": "address"
        }
      ],
      "stateMutability": "view",
      "type": "function"
    },
    {
      "inputs": [],
      "name": "stakingPoolErc20Implementation",
      "outputs": [
        {
          "internalType": "address",
          "name": "",
          "type": "address"
        }
      ],
      "stateMutability": "view",
      "type": "function"
    },
    {
      "inputs": [],
      "name": "stakingPoolImplementation",
      "outputs": [
        {
          "internalType": "address",
          "name": "",
          "type": "address"
        }
      ],
      "stateMutability": "view",
      "type": "function"
    },
    {
      "inputs": [
        {
          "internalType": "address",
          "name": "newOwner",
          "type": "address"
        }
      ],
      "name": "transferOwnership",
      "outputs": [],
      "stateMutability": "nonpayable",
      "type": "function"
    }
  ],
  "bytecode": "0x61012060405234801561001157600080fd5b50604051610bee380380610bee833981016040819052610030916100ce565b61003933610062565b6001600160a01b0394851660805292841660a05290831660c052821660e0521661010052610133565b600080546001600160a01b038381166001600160a01b0319831681178455604051919092169283917f8be0079c531659141344cd1fd0a4f28419497f9722a3daafe3b4186f6b6457e09190a35050565b80516001600160a01b03811681146100c957600080fd5b919050565b600080600080600060a086880312156100e657600080fd5b6100ef866100b2565b94506100fd602087016100b2565b935061010b604087016100b2565b9250610119606087016100b2565b9150610127608087016100b2565b90509295509295909350565b60805160a05160c05160e05161010051610a556101996000396000818161019e0152610373015260008181610150015261044001526000818160cc0152610418015260008181610177015261024801526000818161010e01526102120152610a556000f3fe608060405234801561001057600080fd5b50600436106100995760003560e01c8063141dd7681461009e5780632aa8195e146100c7578063552f75a0146100ee578063715018a6146100ff57806387d26e7a146101095780638da5cb5b14610130578063a2f7b3a514610138578063a519f0c91461014b578063d8643a5214610172578063e29bb53114610199578063f2fde38b146101c0575b600080fd5b6100b16100ac366004610816565b6101d3565b6040516100be91906108f8565b60405180910390f35b6100b17f000000000000000000000000000000000000000000000000000000000000000081565b6001546040519081526020016100be565b610107610532565b005b6100b17f000000000000000000000000000000000000000000000000000000000000000081565b6100b161056d565b6100b161014636600461090c565b61057c565b6100b17f000000000000000000000000000000000000000000000000000000000000000081565b6100b17f000000000000000000000000000000000000000000000000000000000000000081565b6100b17f000000000000000000000000000000000000000000000000000000000000000081565b6101076101ce366004610925565b6105a6565b6000336101de61056d565b6001600160a01b03161461020d5760405162461bcd60e51b815260040161020490610947565b60405180910390fd5b61023f7f00000000000000000000000000000000000000000000000000000000000000006001600160a01b0316610646565b905060006102757f00000000000000000000000000000000000000000000000000000000000000006001600160a01b0316610646565b90506001600160a01b0382166102e45760405162461bcd60e51b815260206004820152602e60248201527f436f6d6d756e697479436f696e466163746f72793a20494e5354414e43455f4360448201526d149150551253d397d1905253115160921b6064820152608401610204565b60018054808201825560008290527fb10e2d527612073b26eecdfd717e6a320cf44b4afac2b0732d9fcbe2b7fa0cf60180546001600160a01b0319166001600160a01b03851690811790915590546040805192835260208301919091527f057c785134fbdb3be371ca5c0a3d3a62b636ec1ddea4d4dc301eb0bc967c34d0910160405180910390a160006103a07f00000000000000000000000000000000000000000000000000000000000000006001600160a01b0316610646565b6040516353dcd93760e01b81529091506001600160a01b038216906353dcd937906103d190879087906004016109c9565b600060405180830381600087803b1580156103eb57600080fd5b505af11580156103ff573d6000803e3d6000fd5b50506040516353c425c160e01b81526001600160a01b037f0000000000000000000000000000000000000000000000000000000000000000811660048301527f000000000000000000000000000000000000000000000000000000000000000081166024830152898116604483015285811660648301526084820189905284811660a4830152861692506353c425c1915060c401600060405180830381600087803b1580156104ad57600080fd5b505af11580156104c1573d6000803e3d6000fd5b50505050826001600160a01b031663f2fde38b6104db3390565b6040518263ffffffff1660e01b81526004016104f791906108f8565b600060405180830381600087803b15801561051157600080fd5b505af1158015610525573d6000803e3d6000fd5b5050505050509392505050565b3361053b61056d565b6001600160a01b0316146105615760405162461bcd60e51b815260040161020490610947565b61056b60006106e3565b565b6000546001600160a01b031690565b6001818154811061058c57600080fd5b6000918252602090912001546001600160a01b0316905081565b336105af61056d565b6001600160a01b0316146105d55760405162461bcd60e51b815260040161020490610947565b6001600160a01b03811661063a5760405162461bcd60e51b815260206004820152602660248201527f4f776e61626c653a206e6577206f776e657220697320746865207a65726f206160448201526564647265737360d01b6064820152608401610204565b610643816106e3565b50565b6000604051733d602d80600a3d3981f3363d3d373d3d3d363d7360601b81528260601b60148201526e5af43d82803e903d91602b57fd5bf360881b60288201526037816000f09150506001600160a01b0381166106de5760405162461bcd60e51b8152602060048201526016602482015275115490cc4c4d8dce8818dc99585d194819985a5b195960521b6044820152606401610204565b919050565b600080546001600160a01b038381166001600160a01b0319831681178455604051919092169283917f8be0079c531659141344cd1fd0a4f28419497f9722a3daafe3b4186f6b6457e09190a35050565b80356001600160a01b03811681146106de57600080fd5b634e487b7160e01b600052604160045260246000fd5b6040516080810167ffffffffffffffff811182821017156107835761078361074a565b60405290565b600082601f83011261079a57600080fd5b813567ffffffffffffffff808211156107b5576107b561074a565b604051601f8301601f19908116603f011681019082821181831017156107dd576107dd61074a565b816040528381528660208588010111156107f657600080fd5b836020870160208301376000602085830101528094505050505092915050565b60008060006060848603121561082b57600080fd5b61083484610733565b925060208401359150604084013567ffffffffffffffff8082111561085857600080fd5b908501906080828803121561086c57600080fd5b610874610760565b61087d83610733565b815260208301358281111561089157600080fd5b61089d89828601610789565b6020830152506040830135828111156108b557600080fd5b6108c189828601610789565b6040830152506060830135828111156108d957600080fd5b6108e589828601610789565b6060830152508093505050509250925092565b6001600160a01b0391909116815260200190565b60006020828403121561091e57600080fd5b5035919050565b60006020828403121561093757600080fd5b61094082610733565b9392505050565b6020808252818101527f4f776e61626c653a2063616c6c6572206973206e6f7420746865206f776e6572604082015260600190565b6000815180845260005b818110156109a257602081850181015186830182015201610986565b818111156109b4576000602083870101525b50601f01601f19169290920160200192915050565b60408152600060018060a01b038085511660408401526020850151608060608501526109f860c085018261097c565b90506040860151603f1980868403016080870152610a16838361097c565b925060608801519150808684030160a087015250610a34828261097c565b93505050808416602084015250939250505056fea164736f6c634300080b000a",
  "linkReferences": {},
  "deployedLinkReferences": {}
}