{
  "_format": "hh-sol-artifact-1",
  "contractName": "CommunityStakingPool",
  "sourceName": "contracts/CommunityStakingPool.sol",
  "abi": [
    {
      "anonymous": false,
      "inputs": [
        {
          "indexed": true,
          "internalType": "address",
          "name": "from",
          "type": "address"
        },
        {
          "indexed": true,
          "internalType": "address",
          "name": "to",
          "type": "address"
        },
        {
          "indexed": false,
          "internalType": "uint256",
          "name": "amount",
          "type": "uint256"
        }
      ],
      "name": "Donated",
      "type": "event"
    },
    {
      "anonymous": false,
      "inputs": [
        {
          "indexed": true,
          "internalType": "address",
          "name": "account",
          "type": "address"
        },
        {
          "indexed": false,
          "internalType": "uint256",
          "name": "amount",
          "type": "uint256"
        }
      ],
      "name": "Redeemed",
      "type": "event"
    },
    {
      "inputs": [],
      "name": "FRACTION",
      "outputs": [
        {
          "internalType": "uint64",
          "name": "",
          "type": "uint64"
        }
      ],
      "stateMutability": "view",
      "type": "function"
    },
    {
      "inputs": [
        {
          "internalType": "address",
          "name": "payingToken",
          "type": "address"
        },
        {
          "internalType": "uint256",
          "name": "amount",
          "type": "uint256"
        }
      ],
      "name": "buyLiquidityAndStake",
      "outputs": [],
      "stateMutability": "nonpayable",
      "type": "function"
    },
    {
      "inputs": [
        {
          "internalType": "uint256",
          "name": "tokenBAmount",
          "type": "uint256"
        }
      ],
      "name": "buyLiquidityAndStake",
      "outputs": [],
      "stateMutability": "nonpayable",
      "type": "function"
    },
    {
      "inputs": [
        {
          "internalType": "uint256",
          "name": "tokenBAmount",
          "type": "uint256"
        },
        {
          "internalType": "address",
          "name": "beneficiary",
          "type": "address"
        }
      ],
      "name": "buyLiquidityAndStake",
      "outputs": [],
      "stateMutability": "nonpayable",
      "type": "function"
    },
    {
      "inputs": [],
      "name": "buyLiquidityAndStake",
      "outputs": [],
      "stateMutability": "payable",
      "type": "function"
    },
    {
      "inputs": [
        {
          "internalType": "address",
          "name": "beneficiary",
          "type": "address"
        }
      ],
      "name": "buyLiquidityAndStake",
      "outputs": [],
      "stateMutability": "payable",
      "type": "function"
    },
    {
      "inputs": [
        {
          "internalType": "address",
          "name": "payingToken",
          "type": "address"
        },
        {
          "internalType": "uint256",
          "name": "amount",
          "type": "uint256"
        },
        {
          "internalType": "address",
          "name": "beneficiary",
          "type": "address"
        }
      ],
      "name": "buyLiquidityAndStake",
      "outputs": [],
      "stateMutability": "nonpayable",
      "type": "function"
    },
    {
      "inputs": [
        {
          "internalType": "address",
          "name": "stakingProducedBy_",
          "type": "address"
        },
        {
          "internalType": "address",
          "name": "reserveToken_",
          "type": "address"
        },
        {
          "internalType": "address",
          "name": "tradedToken_",
          "type": "address"
        },
        {
          "components": [
            {
              "internalType": "address",
              "name": "account",
              "type": "address"
            },
            {
              "internalType": "uint256",
              "name": "amount",
              "type": "uint256"
            }
          ],
          "internalType": "struct IStructs.StructAddrUint256[]",
          "name": "donations_",
          "type": "tuple[]"
        },
        {
          "internalType": "uint64",
          "name": "tradedTokenClaimFraction_",
          "type": "uint64"
        },
        {
          "internalType": "uint64",
          "name": "reserveTokenClaimFraction_",
          "type": "uint64"
        },
        {
          "internalType": "uint64",
          "name": "lpClaimFraction_",
          "type": "uint64"
        }
      ],
      "name": "initialize",
      "outputs": [],
      "stateMutability": "nonpayable",
      "type": "function"
    },
    {
      "inputs": [],
      "name": "lpClaimFraction",
      "outputs": [
        {
          "internalType": "uint64",
          "name": "",
          "type": "uint64"
        }
      ],
      "stateMutability": "view",
      "type": "function"
    },
    {
      "inputs": [
        {
          "internalType": "address",
          "name": "account",
          "type": "address"
        },
        {
          "internalType": "uint256",
          "name": "amount",
          "type": "uint256"
        }
      ],
      "name": "redeem",
      "outputs": [],
      "stateMutability": "nonpayable",
      "type": "function"
    },
    {
      "inputs": [
        {
          "internalType": "address",
          "name": "account",
          "type": "address"
        },
        {
          "internalType": "uint256",
          "name": "amount",
          "type": "uint256"
        }
      ],
      "name": "redeemAndRemoveLiquidity",
      "outputs": [],
      "stateMutability": "nonpayable",
      "type": "function"
    },
    {
      "inputs": [],
      "name": "reserveToken",
      "outputs": [
        {
          "internalType": "address",
          "name": "",
          "type": "address"
        }
      ],
      "stateMutability": "view",
      "type": "function"
    },
    {
      "inputs": [],
      "name": "reserveTokenClaimFraction",
      "outputs": [
        {
          "internalType": "uint64",
          "name": "",
          "type": "uint64"
        }
      ],
      "stateMutability": "view",
      "type": "function"
    },
    {
      "inputs": [
        {
          "internalType": "uint256",
          "name": "amountTradedToken",
          "type": "uint256"
        },
        {
          "internalType": "address",
          "name": "beneficiary",
          "type": "address"
        }
      ],
      "name": "sellAndStakeLiquidity",
      "outputs": [],
      "stateMutability": "nonpayable",
      "type": "function"
    },
    {
      "inputs": [
        {
          "internalType": "uint256",
          "name": "amountTradedToken",
          "type": "uint256"
        }
      ],
      "name": "sellAndStakeLiquidity",
      "outputs": [],
      "stateMutability": "nonpayable",
      "type": "function"
    },
    {
      "inputs": [
        {
          "internalType": "uint256",
          "name": "lpAmount",
          "type": "uint256"
        }
      ],
      "name": "stakeLiquidity",
      "outputs": [],
      "stateMutability": "nonpayable",
      "type": "function"
    },
    {
      "inputs": [
        {
          "internalType": "address",
          "name": "",
          "type": "address"
        },
        {
          "internalType": "address",
          "name": "from",
          "type": "address"
        },
        {
          "internalType": "address",
          "name": "to",
          "type": "address"
        },
        {
          "internalType": "uint256",
          "name": "amount",
          "type": "uint256"
        },
        {
          "internalType": "bytes",
          "name": "",
          "type": "bytes"
        },
        {
          "internalType": "bytes",
          "name": "",
          "type": "bytes"
        }
      ],
      "name": "tokensReceived",
      "outputs": [],
      "stateMutability": "nonpayable",
      "type": "function"
    },
    {
      "inputs": [],
      "name": "tradedToken",
      "outputs": [
        {
          "internalType": "address",
          "name": "",
          "type": "address"
        }
      ],
      "stateMutability": "view",
      "type": "function"
    },
    {
      "inputs": [],
      "name": "tradedTokenClaimFraction",
      "outputs": [
        {
          "internalType": "uint64",
          "name": "",
          "type": "uint64"
        }
      ],
      "stateMutability": "view",
      "type": "function"
    },
    {
      "inputs": [],
      "name": "uniswapV2Pair",
      "outputs": [
        {
          "internalType": "contract IUniswapV2Pair",
          "name": "",
          "type": "address"
        }
      ],
      "stateMutability": "view",
      "type": "function"
    },
    {
      "stateMutability": "payable",
      "type": "receive"
    }
  ],
  "bytecode": "0x608060405234801561001057600080fd5b50612af3806100206000396000f3fe6080604052600436106101025760003560e01c806382341e8f1161009057806382341e8f146102625780639d1264d214610282578063a05936d7146102a2578063b5a5e987146102c9578063bfbfdb61146102dc578063c80c362314610303578063db0b27fd1461032a578063e67462061461034a578063f306e35d1461036a578063f4325d671461038a57600080fd5b806223de291461010e5780631be9bdfc146101355780631e9a6950146101555780632eb41dd414610175578063350763731461019557806348b7ab11146101b557806349bd5a5e146101d55780636cd5f47a1461020b5780636d1849311461022b57806371891d471461023357600080fd5b3661010957005b600080fd5b34801561011a57600080fd5b506101336101293660046122c6565b5050505050505050565b005b34801561014157600080fd5b50610133610150366004612376565b6103aa565b34801561016157600080fd5b50610133610170366004612376565b61048e565b34801561018157600080fd5b506101336101903660046123a2565b61052d565b3480156101a157600080fd5b506101336101b03660046123d2565b6105e0565b3480156101c157600080fd5b506101336101d03660046123d2565b6107a7565b3480156101e157600080fd5b50606f546101f5906001600160a01b031681565b60405161020291906123eb565b60405180910390f35b34801561021757600080fd5b506101336102263660046123a2565b61085c565b6101336108b8565b34801561023f57600080fd5b5061024a620186a081565b6040516001600160401b039091168152602001610202565b34801561026e57600080fd5b5061013361027d366004612376565b6109a3565b34801561028e57600080fd5b5061013361029d3660046124ac565b6109c8565b3480156102ae57600080fd5b5060685461024a90600160a01b90046001600160401b031681565b6101336102d73660046125db565b610db4565b3480156102e857600080fd5b5060695461024a90600160a01b90046001600160401b031681565b34801561030f57600080fd5b5060675461024a90600160a01b90046001600160401b031681565b34801561033657600080fd5b506067546101f5906001600160a01b031681565b34801561035657600080fd5b506101336103653660046123d2565b610df9565b34801561037657600080fd5b506101336103853660046125f8565b610e60565b34801561039657600080fd5b506068546101f5906001600160a01b031681565b600260335414156103d65760405162461bcd60e51b81526004016103cd9061263a565b60405180910390fd5b600260335560006103e5610f3c565b6040516323b872dd60e01b81529091506001600160a01b038416906323b872dd9061041890849030908790600401612671565b6020604051808303816000875af1158015610437573d6000803e3d6000fd5b505050506040513d601f19601f8201168201806040525081019061045b9190612695565b506068546000906104779085906001600160a01b031685610fcd565b90506104838282611183565b505060016033555050565b6065546001600160a01b031633146104a557600080fd5b60006104b183836114f3565b606f5460405163a9059cbb60e01b81529192506001600160a01b03169063a9059cbb906104e490869085906004016126b7565b6020604051808303816000875af1158015610503573d6000803e3d6000fd5b505050506040513d601f19601f820116820180604052508101906105279190612695565b50505050565b600260335414156105505760405162461bcd60e51b81526004016103cd9061263a565b60026033556067546040516323b872dd60e01b81526001600160a01b03909116906323b872dd9061058990339030908790600401612671565b6020604051808303816000875af11580156105a8573d6000803e3d6000fd5b505050506040513d601f19601f820116820180604052508101906105cc9190612695565b506105d78183611574565b50506001603355565b600260335414156106035760405162461bcd60e51b81526004016103cd9061263a565b6002603355806106445760405162461bcd60e51b815260206004820152600c60248201526b414d4f554e545f454d50545960a01b60448201526064016103cd565b606f546040516323b872dd60e01b81526001600160a01b03909116906323b872dd9061067890339030908690600401612671565b6020604051808303816000875af1158015610697573d6000803e3d6000fd5b505050506040513d601f19601f820116820180604052508101906106bb9190612695565b50600080606f60009054906101000a90046001600160a01b03166001600160a01b0316630902f1ac6040518163ffffffff1660e01b8152600401606060405180830381865afa158015610712573d6000803e3d6000fd5b505050506040513d601f19601f8201168201806040525081019061073691906126e7565b506068546069546001600160701b0393841695509190921692506000916001600160a01b03918216911614610782578261077383620186a0612742565b61077d9190612777565b61079a565b8161079084620186a0612742565b61079a9190612777565b90506104833385836118dc565b600260335414156107ca5760405162461bcd60e51b81526004016103cd9061263a565b600260335560006107d9610f3c565b6068546040516323b872dd60e01b81529192506001600160a01b0316906323b872dd9061080e90849030908790600401612671565b6020604051808303816000875af115801561082d573d6000803e3d6000fd5b505050506040513d601f19601f820116820180604052508101906108519190612695565b506105d78183611183565b6002603354141561087f5760405162461bcd60e51b81526004016103cd9061263a565b60026033556068546040516323b872dd60e01b81526001600160a01b03909116906323b872dd9061080e90339030908790600401612671565b600260335414156108db5760405162461bcd60e51b81526004016103cd9061263a565b600260335560006108ea610f3c565b90506000341161090c5760405162461bcd60e51b81526004016103cd90612799565b606d5460408051630d0e30db60e41b8152905134926001600160a01b03169163d0e30db091849160048082019260009290919082900301818588803b15801561095457600080fd5b505af1158015610968573d6000803e3d6000fd5b5050606d546068546000945061098d93506001600160a01b0391821692501684610fcd565b90506109998382611183565b5050600160335550565b6065546001600160a01b031633146109ba57600080fd5b6109c48282611ac8565b5050565b600054610100900460ff166109e35760005460ff16156109e7565b303b155b610a4a5760405162461bcd60e51b815260206004820152602e60248201527f496e697469616c697a61626c653a20636f6e747261637420697320616c72656160448201526d191e481a5b9a5d1a585b1a5e995960921b60648201526084016103cd565b600054610100900460ff16158015610a6c576000805461ffff19166101011790555b610a74611c7c565b606c80546001600160a01b039283166001600160a01b031991821617909155606b8054939092169216919091179055610aad8886611d9b565b6069805467ffffffffffffffff60a01b1916600160a01b6001600160401b0385811682029290921790925560688054606780546001600160e01b031992831689861687026001600160a01b0319908116919091176001600160a01b038f811691909117909555921693891690940281169290921789821617909255606b54606e80549190931691168117909155604080516315ab88c960e31b8152905163ad5c4648916004808201926020929091908290030181865afa158015610b75573d6000803e3d6000fd5b505050506040513d601f19601f82011682018060405250810190610b9991906127c7565b606d80546001600160a01b0319166001600160a01b03928316179055606c5460675460685460405163e6a4390560e01b8152918416600483015283166024820152600092919091169063e6a4390590604401602060405180830381865afa158015610c08573d6000803e3d6000fd5b505050506040513d601f19601f82011682018060405250810190610c2c91906127c7565b90506001600160a01b038116610c795760405162461bcd60e51b81526020600482015260126024820152712727afaaa724a9aba0a82fab192fa820a4a960711b60448201526064016103cd565b606f80546001600160a01b0319166001600160a01b03831690811790915560408051630dfe168160e01b81529051630dfe1681916004808201926020929091908290030181865afa158015610cd2573d6000803e3d6000fd5b505050506040513d601f19601f82011682018060405250810190610cf691906127c7565b606980546001600160a01b0319166001600160a01b03928316179055606f546040805163d21220a760e01b81529051919092169163d21220a79160048083019260209291908290030181865afa158015610d54573d6000803e3d6000fd5b505050506040513d601f19601f82011682018060405250810190610d7891906127c7565b606a80546001600160a01b0319166001600160a01b0392909216919091179055508015610129576000805461ff00191690555050505050505050565b60026033541415610dd75760405162461bcd60e51b81526004016103cd9061263a565b60026033553461090c5760405162461bcd60e51b81526004016103cd90612799565b60026033541415610e1c5760405162461bcd60e51b81526004016103cd9061263a565b60026033556000610e2b610f3c565b6067546040516323b872dd60e01b81529192506001600160a01b0316906323b872dd9061058990339030908790600401612671565b60026033541415610e835760405162461bcd60e51b81526004016103cd9061263a565b60026033556000610e92610f3c565b6040516323b872dd60e01b81529091506001600160a01b038516906323b872dd90610ec590849030908890600401612671565b6020604051808303816000875af1158015610ee4573d6000803e3d6000fd5b505050506040513d601f19601f82011682018060405250810190610f089190612695565b50606854600090610f249086906001600160a01b031686610fcd565b9050610f308382611183565b50506001603355505050565b3360143610801590610fba575060655460405163572b6c0560e01b81526001600160a01b039091169063572b6c0590610f799084906004016123eb565b602060405180830381865afa158015610f96573d6000803e3d6000fd5b505050506040513d601f19601f82011682018060405250810190610fba9190612695565b15610fca575060131936013560601c5b90565b606b5460405163095ea7b360e01b81526000916001600160a01b038087169263095ea7b39261100292169086906004016126b7565b6020604051808303816000875af1158015611021573d6000803e3d6000fd5b505050506040513d601f19601f820116820180604052508101906110459190612695565b6110615760405162461bcd60e51b81526004016103cd906127e4565b60408051600280825260608201835260009260208301908036833701905050905084816000815181106110965761109661280c565b60200260200101906001600160a01b031690816001600160a01b03168152505083816001815181106110ca576110ca61280c565b6001600160a01b039283166020918202929092010152606e546040516338ed173960e01b815260009291909116906338ed1739906111149087908590879030904290600401612822565b6000604051808303816000875af1158015611133573d6000803e3d6000fd5b505050506040513d6000823e601f3d908101601f1916820160405261115b9190810190612893565b9050806001815181106111705761117061280c565b6020026020010151925050509392505050565b600080606f60009054906101000a90046001600160a01b03166001600160a01b0316630902f1ac6040518163ffffffff1660e01b8152600401606060405180830381865afa1580156111d9573d6000803e3d6000fd5b505050506040513d601f19601f820116820180604052508101906111fd91906126e7565b506001600160701b031691506001600160701b031691508160001415801561122457508015155b6112405760405162461bcd60e51b81526004016103cd90612923565b6068546069546000916001600160a01b03918216911614611278578261126983620186a0612742565b6112739190612777565b611290565b8161128684620186a0612742565b6112909190612777565b90506000826112b2816112a3888261294b565b6112ad9190612742565b611e9e565b6112bc9190612963565b90506000811180156112cd57508085115b6112e95760405162461bcd60e51b81526004016103cd9061297a565b606854606754600091611309916001600160a01b03918216911684610fcd565b905060006113178388612963565b606754606b5460405163095ea7b360e01b81529293506001600160a01b039182169263095ea7b39261134f92169086906004016126b7565b6020604051808303816000875af115801561136e573d6000803e3d6000fd5b505050506040513d601f19601f820116820180604052508101906113929190612695565b80156114125750606854606b5460405163095ea7b360e01b81526001600160a01b039283169263095ea7b3926113cf9291169085906004016126b7565b6020604051808303816000875af11580156113ee573d6000803e3d6000fd5b505050506040513d601f19601f820116820180604052508101906114129190612695565b61142e5760405162461bcd60e51b81526004016103cd906127e4565b606e5460675460685460405162e8e33760e81b81526000936001600160a01b039081169363e8e33700936114769391831692169088908890889081903090429060040161299e565b6060604051808303816000875af1158015611495573d6000803e3d6000fd5b505050506040513d601f19601f820116820180604052508101906114b991906129e7565b92505050600081116114dd5760405162461bcd60e51b81526004016103cd90612a15565b6114e88982876118dc565b505050505050505050565b6000826001600160a01b03167f4896181ff8f4543cc00db9fe9b6fb7e6f032b7eb772c72ab1ec1b4d2e03b93698360405161153091815260200190565b60405180910390a2606f5460695460655461156d926001600160a01b03908116928692600160a01b9091046001600160401b031691166000612014565b9392505050565b600080606f60009054906101000a90046001600160a01b03166001600160a01b0316630902f1ac6040518163ffffffff1660e01b8152600401606060405180830381865afa1580156115ca573d6000803e3d6000fd5b505050506040513d601f19601f820116820180604052508101906115ee91906126e7565b506001600160701b031691506001600160701b031691508160001415801561161557508015155b6116315760405162461bcd60e51b81526004016103cd90612923565b6067546069546000916001600160a01b03918216911614611669578261165a83620186a0612742565b6116649190612777565b611681565b8161167784620186a0612742565b6116819190612777565b9050600083611694816112a3888261294b565b61169e9190612963565b90506000811180156116af57508085115b6116cb5760405162461bcd60e51b81526004016103cd9061297a565b6067546068546000916116eb916001600160a01b03918216911684610fcd565b905060006116f98388612963565b606754606b5460405163095ea7b360e01b81529293506001600160a01b039182169263095ea7b39261173192169085906004016126b7565b6020604051808303816000875af1158015611750573d6000803e3d6000fd5b505050506040513d601f19601f820116820180604052508101906117749190612695565b80156117f45750606854606b5460405163095ea7b360e01b81526001600160a01b039283169263095ea7b3926117b19291169086906004016126b7565b6020604051808303816000875af11580156117d0573d6000803e3d6000fd5b505050506040513d601f19601f820116820180604052508101906117f49190612695565b6118105760405162461bcd60e51b81526004016103cd906127e4565b606e5460675460685460405162e8e33760e81b8152600093849384936001600160a01b039283169363e8e337009361185b93811692169089908b90889081903090429060040161299e565b6060604051808303816000875af115801561187a573d6000803e3d6000fd5b505050506040513d601f19601f8201168201806040525081019061189e91906129e7565b925092509250600081116118c45760405162461bcd60e51b81526004016103cd90612a15565b6118cf8b82896118dc565b5050505050505050505050565b606654829015611a66576000805b606654811015611a6357620186a06001600160401b0316606682815481106119145761191461280c565b906000526020600020906002020160010154866119319190612742565b61193b9190612777565b91508115611a5157606554606680546001600160a01b0390921691639efb64dd91908490811061196d5761196d61280c565b60009182526020909120600290910201546040516001600160e01b031960e084901b1681526119ac916001600160a01b03169086908990600401612a3b565b600060405180830381600087803b1580156119c657600080fd5b505af11580156119da573d6000803e3d6000fd5b50505050606681815481106119f1576119f161280c565b6000918252602091829020600290910201546040518481526001600160a01b0391821692918916917f4dfff917e1fbb261a082e98cc7d43029621f6a6eb05ff3fef1510d5f1eb4857c910160405180910390a3611a4e8284612963565b92505b80611a5b81612a5c565b9150506118ea565b50505b606554604051639efb64dd60e01b81526001600160a01b0390911690639efb64dd90611a9a90879085908790600401612a3b565b600060405180830381600087803b158015611ab457600080fd5b505af1158015610129573d6000803e3d6000fd5b6000611ad483836114f3565b606f54606b5460405163095ea7b360e01b81529293506001600160a01b039182169263095ea7b392611b0c92169085906004016126b7565b6020604051808303816000875af1158015611b2b573d6000803e3d6000fd5b505050506040513d601f19601f82011682018060405250810190611b4f9190612695565b611b6b5760405162461bcd60e51b81526004016103cd906127e4565b606e54606754606854604051635d5155ef60e11b81526001600160a01b039283166004820152908216602482015260448101849052600060648201819052608482018190523060a48301524260c4830152928392169063baa2abde9060e40160408051808303816000875af1158015611be8573d6000803e3d6000fd5b505050506040513d601f19601f82011682018060405250810190611c0c9190612a77565b606754606554929450909250611c43916001600160a01b03808316928692600160a01b9091046001600160401b0316911689612014565b50606854606554611c74916001600160a01b03808216928592600160a01b90046001600160401b0316911689612014565b505050505050565b600080466001811480611c8f5750806003145b80611c9a5750806004145b80611ca6575080610539145b80611cb2575080617a69145b15611ce95750737a250d5630b4cf539739df2c5dacb4c659f2488d92735c69bee701ef814a2b6a3edd4b1652cb9cc5aa6f92509050565b8060891415611d24575073a5e0829caced8ffdd4de3c43696c57f7d7a678ff92735757371414417b8c6caad45baef941abc7d3ab3292509050565b8060381415611d5f57507310ed43c718714eb63d5aa57b78b54704e256024e9273ca143ce32fe78f1f7019d7d551a6402fc5350c7392509050565b60405162461bcd60e51b81526020600482015260116024820152703ab739bab83837b93a32b21031b430b4b760791b60448201526064016103cd565b600054610100900460ff16611dc25760405162461bcd60e51b81526004016103cd90612a9b565b606580546001600160a01b0319166001600160a01b03841617905560005b8151811015611e955760666040518060400160405280848481518110611e0857611e0861280c565b6020026020010151600001516001600160a01b03168152602001848481518110611e3457611e3461280c565b602090810291909101810151810151909152825460018082018555600094855293829020835160029092020180546001600160a01b0319166001600160a01b0390921691909117815591015191015580611e8d81612a5c565b915050611de0565b506109c4612207565b600081611ead57506000919050565b50600181600160801b8110611ec75760409190911b9060801c5b600160401b8110611edd5760209190911b9060401c5b6401000000008110611ef45760109190911b9060201c5b620100008110611f095760089190911b9060101c5b6101008110611f1d5760049190911b9060081c5b60108110611f305760029190911b9060041c5b60088110611f4057600182901b91505b6001828481611f5157611f51612761565b048301901c91506001828481611f6957611f69612761565b048301901c91506001828481611f8157611f81612761565b048301901c91506001828481611f9957611f99612761565b048301901c91506001828481611fb157611fb1612761565b048301901c91506001828481611fc957611fc9612761565b048301901c91506001828481611fe157611fe1612761565b048301901c91506000828481611ff957611ff9612761565b0490508083101561200a578261200c565b805b949350505050565b60006001600160a01b03821615620186a08514156120a35760405163a9059cbb60e01b81526001600160a01b0388169063a9059cbb9061205a9087908a906004016126b7565b6020604051808303816000875af1158015612079573d6000803e3d6000fd5b505050506040513d601f19601f8201168201806040525081019061209d9190612695565b506121fd565b846120e45780156120b6578591506121fd565b60405163a9059cbb60e01b81526001600160a01b0388169063a9059cbb9061205a9086908a906004016126b7565b6000620186a06120f48789612742565b6120fe9190612777565b60405163a9059cbb60e01b81529091506001600160a01b0389169063a9059cbb9061212f90889085906004016126b7565b6020604051808303816000875af115801561214e573d6000803e3d6000fd5b505050506040513d601f19601f820116820180604052508101906121729190612695565b5061217d8188612963565b9250816121fb5760405163a9059cbb60e01b81526001600160a01b0389169063a9059cbb906121b290879087906004016126b7565b6020604051808303816000875af11580156121d1573d6000803e3d6000fd5b505050506040513d601f19601f820116820180604052508101906121f59190612695565b50600092505b505b5095945050505050565b600054610100900460ff1661222e5760405162461bcd60e51b81526004016103cd90612a9b565b612236612238565b565b600054610100900460ff1661225f5760405162461bcd60e51b81526004016103cd90612a9b565b6001603355565b6001600160a01b038116811461227b57600080fd5b50565b60008083601f84011261229057600080fd5b5081356001600160401b038111156122a757600080fd5b6020830191508360208285010111156122bf57600080fd5b9250929050565b60008060008060008060008060c0898b0312156122e257600080fd5b88356122ed81612266565b975060208901356122fd81612266565b9650604089013561230d81612266565b95506060890135945060808901356001600160401b038082111561233057600080fd5b61233c8c838d0161227e565b909650945060a08b013591508082111561235557600080fd5b506123628b828c0161227e565b999c989b5096995094979396929594505050565b6000806040838503121561238957600080fd5b823561239481612266565b946020939093013593505050565b600080604083850312156123b557600080fd5b8235915060208301356123c781612266565b809150509250929050565b6000602082840312156123e457600080fd5b5035919050565b6001600160a01b0391909116815260200190565b634e487b7160e01b600052604160045260246000fd5b604080519081016001600160401b0381118282101715612437576124376123ff565b60405290565b604051601f8201601f191681016001600160401b0381118282101715612465576124656123ff565b604052919050565b60006001600160401b03821115612486576124866123ff565b5060051b60200190565b80356001600160401b03811681146124a757600080fd5b919050565b600080600080600080600060e0888a0312156124c757600080fd5b87356124d281612266565b96506020888101356124e381612266565b965060408901356124f381612266565b955060608901356001600160401b0381111561250e57600080fd5b8901601f81018b1361251f57600080fd5b803561253261252d8261246d565b61243d565b81815260069190911b8201830190838101908d83111561255157600080fd5b928401925b8284101561259d576040848f03121561256f5760008081fd5b612577612415565b843561258281612266565b81528486013586820152825260409093019290840190612556565b80985050505050506125b160808901612490565b92506125bf60a08901612490565b91506125cd60c08901612490565b905092959891949750929550565b6000602082840312156125ed57600080fd5b813561156d81612266565b60008060006060848603121561260d57600080fd5b833561261881612266565b925060208401359150604084013561262f81612266565b809150509250925092565b6020808252601f908201527f5265656e7472616e637947756172643a207265656e7472616e742063616c6c00604082015260600190565b6001600160a01b039384168152919092166020820152604081019190915260600190565b6000602082840312156126a757600080fd5b8151801515811461156d57600080fd5b6001600160a01b03929092168252602082015260400190565b80516001600160701b03811681146124a757600080fd5b6000806000606084860312156126fc57600080fd5b612705846126d0565b9250612713602085016126d0565b9150604084015163ffffffff8116811461262f57600080fd5b634e487b7160e01b600052601160045260246000fd5b600081600019048311821515161561275c5761275c61272c565b500290565b634e487b7160e01b600052601260045260246000fd5b60008261279457634e487b7160e01b600052601260045260246000fd5b500490565b602080825260149082015273494e53554646494349454e545f42414c414e434560601b604082015260600190565b6000602082840312156127d957600080fd5b815161156d81612266565b6020808252600e908201526d1054141493d59157d1905253115160921b604082015260600190565b634e487b7160e01b600052603260045260246000fd5b600060a082018783526020878185015260a0604085015281875180845260c086019150828901935060005b818110156128725784516001600160a01b03168352938301939183019160010161284d565b50506001600160a01b03969096166060850152505050608001529392505050565b600060208083850312156128a657600080fd5b82516001600160401b038111156128bc57600080fd5b8301601f810185136128cd57600080fd5b80516128db61252d8261246d565b81815260059190911b820183019083810190878311156128fa57600080fd5b928401925b82841015612918578351825292840192908401906128ff565b979650505050505050565b6020808252600e908201526d52455345525645535f454d50545960901b604082015260600190565b6000821982111561295e5761295e61272c565b500190565b6000828210156129755761297561272c565b500390565b6020808252600a908201526910905117d05353d5539560b21b604082015260600190565b6001600160a01b039889168152968816602088015260408701959095526060860193909352608085019190915260a084015290921660c082015260e08101919091526101000190565b6000806000606084860312156129fc57600080fd5b8351925060208401519150604084015190509250925092565b6020808252600c908201526b4e4f5f4c495155494449545960a01b604082015260600190565b6001600160a01b039390931683526020830191909152604082015260600190565b6000600019821415612a7057612a7061272c565b5060010190565b60008060408385031215612a8a57600080fd5b505080516020909101519092909150565b6020808252602b908201527f496e697469616c697a61626c653a20636f6e7472616374206973206e6f74206960408201526a6e697469616c697a696e6760a81b60608201526080019056fea164736f6c634300080b000a",
  "linkReferences": {},
  "deployedLinkReferences": {}
}