{
  "_format": "hh-sol-artifact-1",
  "contractName": "CommunityRolesManagement",
  "sourceName": "contracts/CommunityRolesManagement.sol",
  "abi": [
    {
      "anonymous": false,
      "inputs": [
        {
          "indexed": true,
          "internalType": "bytes32",
          "name": "role",
          "type": "bytes32"
        },
        {
          "indexed": true,
          "internalType": "bytes32",
          "name": "previousAdminRole",
          "type": "bytes32"
        },
        {
          "indexed": true,
          "internalType": "bytes32",
          "name": "newAdminRole",
          "type": "bytes32"
        }
      ],
      "name": "RoleAdminChanged",
      "type": "event"
    },
    {
      "anonymous": false,
      "inputs": [
        {
          "indexed": true,
          "internalType": "bytes32",
          "name": "role",
          "type": "bytes32"
        },
        {
          "indexed": true,
          "internalType": "address",
          "name": "account",
          "type": "address"
        },
        {
          "indexed": true,
          "internalType": "address",
          "name": "sender",
          "type": "address"
        }
      ],
      "name": "RoleGranted",
      "type": "event"
    },
    {
      "anonymous": false,
      "inputs": [
        {
          "indexed": true,
          "internalType": "bytes32",
          "name": "role",
          "type": "bytes32"
        },
        {
          "indexed": true,
          "internalType": "address",
          "name": "account",
          "type": "address"
        },
        {
          "indexed": true,
          "internalType": "address",
          "name": "sender",
          "type": "address"
        }
      ],
      "name": "RoleRevoked",
      "type": "event"
    },
    {
      "inputs": [],
      "name": "DEFAULT_ADMIN_ROLE",
      "outputs": [
        {
          "internalType": "bytes32",
          "name": "",
          "type": "bytes32"
        }
      ],
      "stateMutability": "view",
      "type": "function"
    },
    {
      "inputs": [
        {
          "internalType": "address",
          "name": "account",
          "type": "address"
        }
      ],
      "name": "checkCirculationRole",
      "outputs": [],
      "stateMutability": "view",
      "type": "function"
    },
    {
      "inputs": [
        {
          "internalType": "address",
          "name": "account",
          "type": "address"
        }
      ],
      "name": "checkRedeemRole",
      "outputs": [],
      "stateMutability": "view",
      "type": "function"
    },
    {
      "inputs": [],
      "name": "getRedeemRole",
      "outputs": [
        {
          "internalType": "bytes32",
          "name": "",
          "type": "bytes32"
        }
      ],
      "stateMutability": "view",
      "type": "function"
    },
    {
      "inputs": [
        {
          "internalType": "bytes32",
          "name": "role",
          "type": "bytes32"
        }
      ],
      "name": "getRoleAdmin",
      "outputs": [
        {
          "internalType": "bytes32",
          "name": "",
          "type": "bytes32"
        }
      ],
      "stateMutability": "view",
      "type": "function"
    },
    {
      "inputs": [
        {
          "internalType": "bytes32",
          "name": "role",
          "type": "bytes32"
        },
        {
          "internalType": "address",
          "name": "account",
          "type": "address"
        }
      ],
      "name": "grantRole",
      "outputs": [],
      "stateMutability": "nonpayable",
      "type": "function"
    },
    {
      "inputs": [
        {
          "internalType": "bytes32",
          "name": "role",
          "type": "bytes32"
        },
        {
          "internalType": "address",
          "name": "account",
          "type": "address"
        }
      ],
      "name": "hasRole",
      "outputs": [
        {
          "internalType": "bool",
          "name": "",
          "type": "bool"
        }
      ],
      "stateMutability": "view",
      "type": "function"
    },
    {
      "inputs": [
        {
          "components": [
            {
              "internalType": "address",
              "name": "addr",
              "type": "address"
            },
            {
              "internalType": "string",
              "name": "adminRole",
              "type": "string"
            },
            {
              "internalType": "string",
              "name": "redeemRole",
              "type": "string"
            },
            {
              "internalType": "string",
              "name": "circulationRole",
              "type": "string"
            }
          ],
          "internalType": "struct ICommunityRolesManagement.CommunitySettings",
          "name": "communitySettings_",
          "type": "tuple"
        },
        {
          "internalType": "address",
          "name": "admin",
          "type": "address"
        }
      ],
      "name": "initialize",
      "outputs": [],
      "stateMutability": "nonpayable",
      "type": "function"
    },
    {
      "inputs": [
        {
          "internalType": "bytes32",
          "name": "role",
          "type": "bytes32"
        },
        {
          "internalType": "address",
          "name": "account",
          "type": "address"
        }
      ],
      "name": "renounceRole",
      "outputs": [],
      "stateMutability": "nonpayable",
      "type": "function"
    },
    {
      "inputs": [
        {
          "internalType": "bytes32",
          "name": "role",
          "type": "bytes32"
        },
        {
          "internalType": "address",
          "name": "account",
          "type": "address"
        }
      ],
      "name": "revokeRole",
      "outputs": [],
      "stateMutability": "nonpayable",
      "type": "function"
    },
    {
      "inputs": [
        {
          "internalType": "bytes4",
          "name": "interfaceId",
          "type": "bytes4"
        }
      ],
      "name": "supportsInterface",
      "outputs": [
        {
          "internalType": "bool",
          "name": "",
          "type": "bool"
        }
      ],
      "stateMutability": "view",
      "type": "function"
    }
  ],
  "bytecode": "0x608060405234801561001057600080fd5b50610d3b806100206000396000f3fe608060405234801561001057600080fd5b50600436106100995760003560e01c806301ffc9a71461009e5780630f2245aa146100c6578063248a9ca3146100db5780632f2ff15d1461010c5780633240527b1461011f57806336568abe1461012757806353dcd9371461013a57806391d148541461014d57806394f1d57714610160578063a217fddf14610173578063d547741f1461017b575b600080fd5b6100b16100ac366004610930565b61018e565b60405190151581526020015b60405180910390f35b6100d96100d4366004610976565b6101c5565b005b6100fe6100e9366004610991565b60009081526065602052604090206001015490565b6040519081526020016100bd565b6100d961011a3660046109aa565b6101d5565b6099546100fe565b6100d96101353660046109aa565b610200565b6100d96101483660046109d6565b610283565b6100b161015b3660046109aa565b61043c565b6100d961016e366004610976565b6105a9565b6100fe600081565b6100d96101893660046109aa565b6105b6565b60006001600160e01b03198216637965db0b60e01b14806101bf57506301ffc9a760e01b6001600160e01b03198316145b92915050565b609a546101d290826105dc565b50565b6000828152606560205260409020600101546101f181336105dc565b6101fb8383610640565b505050565b6001600160a01b03811633146102755760405162461bcd60e51b815260206004820152602f60248201527f416363657373436f6e74726f6c3a2063616e206f6e6c792072656e6f756e636560448201526e103937b632b9903337b91039b2b63360891b60648201526084015b60405180910390fd5b61027f82826106c6565b5050565b600054610100900460ff1661029e5760005460ff16156102a2565b303b155b6103055760405162461bcd60e51b815260206004820152602e60248201527f496e697469616c697a61626c653a20636f6e747261637420697320616c72656160448201526d191e481a5b9a5d1a585b1a5e995960921b606482015260840161026c565b600054610100900460ff16158015610327576000805461ffff19166101011790555b6103346020840184610976565b609780546001600160a01b0319166001600160a01b03929092169182179055610385576430b236b4b760d91b6098556572656465656d60d01b6099556863697263756c61746560b81b609a556103f9565b6103cf6103956020850185610a1f565b8080601f01602080910402602001604051908101604052809392919081815260200183838082843760009201919091525061072d92505050565b6098556103e26103956040850185610a1f565b6099556103f56103956060850185610a1f565b609a555b6098546104069083610640565b609954609854610416919061074a565b609a54609854610426919061074a565b80156101fb576000805461ff0019169055505050565b6097546000906001600160a01b03161561057b5760008360405160200161046591815260200190565b60408051808303601f1901815290829052805160209091012060975463ce6ccfaf60e01b83526001600160a01b03868116600485015291935060009283929091169063ce6ccfaf90602401600060405180830381865afa1580156104cd573d6000803e3d6000fd5b505050506040513d6000823e601f3d908101601f191682016040526104f59190810190610ae2565b905060005b81518110156105765761052582828151811061051857610518610bf7565b602002602001015161072d565b60405160200161053791815260200190565b604051602081830303815290604052805190602001209250828414156105645760019450505050506101bf565b8061056e81610c23565b9150506104fa565b505050505b60008381526065602090815260408083206001600160a01b038616845290915290205460ff165b9392505050565b6099546101d290826105dc565b6000828152606560205260409020600101546105d281336105dc565b6101fb83836106c6565b6105e6828261043c565b61027f576105fe816001600160a01b03166014610795565b610609836020610795565b60405160200161061a929190610c3e565b60408051601f198184030181529082905262461bcd60e51b825261026c91600401610cad565b61064a828261043c565b61027f5760008281526065602090815260408083206001600160a01b03851684529091529020805460ff191660011790556106823390565b6001600160a01b0316816001600160a01b0316837f2f8788117e7eff1d82e926ec794901d17c78024a50270940304540a733656f0d60405160405180910390a45050565b6106d0828261043c565b1561027f5760008281526065602090815260408083206001600160a01b0385168085529252808320805460ff1916905551339285917ff6391f5c32d9c69d2a47ea670b442974b53935d1edc7fd64eb21e047a839171b9190a45050565b805160009082906107415750600092915050565b50506020015190565b600082815260656020526040808220600101805490849055905190918391839186917fbd79b86ffe0ab8e8776151514217cd7cacd52c909f66475c3af44e129f0b00ff9190a4505050565b606060006107a4836002610ce0565b6107af906002610cff565b6001600160401b038111156107c6576107c6610a6c565b6040519080825280601f01601f1916602001820160405280156107f0576020820181803683370190505b509050600360fc1b8160008151811061080b5761080b610bf7565b60200101906001600160f81b031916908160001a905350600f60fb1b8160018151811061083a5761083a610bf7565b60200101906001600160f81b031916908160001a905350600061085e846002610ce0565b610869906001610cff565b90505b60018111156108e1576f181899199a1a9b1b9c1cb0b131b232b360811b85600f166010811061089d5761089d610bf7565b1a60f81b8282815181106108b3576108b3610bf7565b60200101906001600160f81b031916908160001a90535060049490941c936108da81610d17565b905061086c565b5083156105a25760405162461bcd60e51b815260206004820181905260248201527f537472696e67733a20686578206c656e67746820696e73756666696369656e74604482015260640161026c565b60006020828403121561094257600080fd5b81356001600160e01b0319811681146105a257600080fd5b80356001600160a01b038116811461097157600080fd5b919050565b60006020828403121561098857600080fd5b6105a28261095a565b6000602082840312156109a357600080fd5b5035919050565b600080604083850312156109bd57600080fd5b823591506109cd6020840161095a565b90509250929050565b600080604083850312156109e957600080fd5b82356001600160401b038111156109ff57600080fd5b830160808186031215610a1157600080fd5b91506109cd6020840161095a565b6000808335601e19843603018112610a3657600080fd5b8301803591506001600160401b03821115610a5057600080fd5b602001915036819003821315610a6557600080fd5b9250929050565b634e487b7160e01b600052604160045260246000fd5b604051601f8201601f191681016001600160401b0381118282101715610aaa57610aaa610a6c565b604052919050565b60005b83811015610acd578181015183820152602001610ab5565b83811115610adc576000848401525b50505050565b60006020808385031215610af557600080fd5b82516001600160401b0380821115610b0c57600080fd5b8185019150601f8681840112610b2157600080fd5b825182811115610b3357610b33610a6c565b8060051b610b42868201610a82565b918252848101860191868101908a841115610b5c57600080fd5b87870192505b83831015610be957825186811115610b7a5760008081fd5b8701603f81018c13610b8c5760008081fd5b88810151604088821115610ba257610ba2610a6c565b610bb3828901601f19168c01610a82565b8281528e82848601011115610bc85760008081fd5b610bd7838d8301848701610ab2565b85525050509187019190870190610b62565b9a9950505050505050505050565b634e487b7160e01b600052603260045260246000fd5b634e487b7160e01b600052601160045260246000fd5b6000600019821415610c3757610c37610c0d565b5060010190565b76020b1b1b2b9b9a1b7b73a3937b61d1030b1b1b7bab73a1604d1b815260008351610c70816017850160208801610ab2565b7001034b99036b4b9b9b4b733903937b6329607d1b6017918401918201528351610ca1816028840160208801610ab2565b01602801949350505050565b6020815260008251806020840152610ccc816040850160208701610ab2565b601f01601f19169190910160400192915050565b6000816000190483118215151615610cfa57610cfa610c0d565b500290565b60008219821115610d1257610d12610c0d565b500190565b600081610d2657610d26610c0d565b50600019019056fea164736f6c634300080b000a",
  "linkReferences": {},
  "deployedLinkReferences": {}
}