{
  "_format": "hh-sol-artifact-1",
  "contractName": "CommunityCoin",
  "sourceName": "contracts/CommunityCoin.sol",
  "abi": [
    {
      "anonymous": false,
      "inputs": [
        {
          "indexed": true,
          "internalType": "address",
          "name": "owner",
          "type": "address"
        },
        {
          "indexed": true,
          "internalType": "address",
          "name": "spender",
          "type": "address"
        },
        {
          "indexed": false,
          "internalType": "uint256",
          "name": "value",
          "type": "uint256"
        }
      ],
      "name": "Approval",
      "type": "event"
    },
    {
      "anonymous": false,
      "inputs": [
        {
          "indexed": true,
          "internalType": "address",
          "name": "operator",
          "type": "address"
        },
        {
          "indexed": true,
          "internalType": "address",
          "name": "tokenHolder",
          "type": "address"
        }
      ],
      "name": "AuthorizedOperator",
      "type": "event"
    },
    {
      "anonymous": false,
      "inputs": [
        {
          "indexed": true,
          "internalType": "address",
          "name": "operator",
          "type": "address"
        },
        {
          "indexed": true,
          "internalType": "address",
          "name": "from",
          "type": "address"
        },
        {
          "indexed": false,
          "internalType": "uint256",
          "name": "amount",
          "type": "uint256"
        },
        {
          "indexed": false,
          "internalType": "bytes",
          "name": "data",
          "type": "bytes"
        },
        {
          "indexed": false,
          "internalType": "bytes",
          "name": "operatorData",
          "type": "bytes"
        }
      ],
      "name": "Burned",
      "type": "event"
    },
    {
      "anonymous": false,
      "inputs": [
        {
          "indexed": true,
          "internalType": "address",
          "name": "tokenA",
          "type": "address"
        },
        {
          "indexed": true,
          "internalType": "address",
          "name": "tokenB",
          "type": "address"
        },
        {
          "indexed": false,
          "internalType": "address",
          "name": "instance",
          "type": "address"
        }
      ],
      "name": "InstanceCreated",
      "type": "event"
    },
    {
      "anonymous": false,
      "inputs": [
        {
          "indexed": true,
          "internalType": "address",
          "name": "erc20token",
          "type": "address"
        },
        {
          "indexed": false,
          "internalType": "address",
          "name": "instance",
          "type": "address"
        }
      ],
      "name": "InstanceErc20Created",
      "type": "event"
    },
    {
      "anonymous": false,
      "inputs": [
        {
          "indexed": true,
          "internalType": "address",
          "name": "operator",
          "type": "address"
        },
        {
          "indexed": true,
          "internalType": "address",
          "name": "to",
          "type": "address"
        },
        {
          "indexed": false,
          "internalType": "uint256",
          "name": "amount",
          "type": "uint256"
        },
        {
          "indexed": false,
          "internalType": "bytes",
          "name": "data",
          "type": "bytes"
        },
        {
          "indexed": false,
          "internalType": "bytes",
          "name": "operatorData",
          "type": "bytes"
        }
      ],
      "name": "Minted",
      "type": "event"
    },
    {
      "anonymous": false,
      "inputs": [
        {
          "indexed": true,
          "internalType": "address",
          "name": "previousOwner",
          "type": "address"
        },
        {
          "indexed": true,
          "internalType": "address",
          "name": "newOwner",
          "type": "address"
        }
      ],
      "name": "OwnershipTransferred",
      "type": "event"
    },
    {
      "anonymous": false,
      "inputs": [
        {
          "indexed": true,
          "internalType": "address",
          "name": "operator",
          "type": "address"
        },
        {
          "indexed": true,
          "internalType": "address",
          "name": "tokenHolder",
          "type": "address"
        }
      ],
      "name": "RevokedOperator",
      "type": "event"
    },
    {
      "anonymous": false,
      "inputs": [
        {
          "indexed": true,
          "internalType": "address",
          "name": "token",
          "type": "address"
        },
        {
          "indexed": true,
          "internalType": "address",
          "name": "account",
          "type": "address"
        },
        {
          "indexed": false,
          "internalType": "uint256",
          "name": "amount",
          "type": "uint256"
        }
      ],
      "name": "RewardGranted",
      "type": "event"
    },
    {
      "anonymous": false,
      "inputs": [
        {
          "indexed": true,
          "internalType": "address",
          "name": "operator",
          "type": "address"
        },
        {
          "indexed": true,
          "internalType": "address",
          "name": "from",
          "type": "address"
        },
        {
          "indexed": true,
          "internalType": "address",
          "name": "to",
          "type": "address"
        },
        {
          "indexed": false,
          "internalType": "uint256",
          "name": "amount",
          "type": "uint256"
        },
        {
          "indexed": false,
          "internalType": "bytes",
          "name": "data",
          "type": "bytes"
        },
        {
          "indexed": false,
          "internalType": "bytes",
          "name": "operatorData",
          "type": "bytes"
        }
      ],
      "name": "Sent",
      "type": "event"
    },
    {
      "anonymous": false,
      "inputs": [
        {
          "indexed": true,
          "internalType": "address",
          "name": "account",
          "type": "address"
        },
        {
          "indexed": false,
          "internalType": "uint256",
          "name": "amount",
          "type": "uint256"
        },
        {
          "indexed": false,
          "internalType": "uint256",
          "name": "priceBeforeStake",
          "type": "uint256"
        }
      ],
      "name": "Staked",
      "type": "event"
    },
    {
      "anonymous": false,
      "inputs": [
        {
          "indexed": true,
          "internalType": "address",
          "name": "from",
          "type": "address"
        },
        {
          "indexed": true,
          "internalType": "address",
          "name": "to",
          "type": "address"
        },
        {
          "indexed": false,
          "internalType": "uint256",
          "name": "value",
          "type": "uint256"
        }
      ],
      "name": "Transfer",
      "type": "event"
    },
    {
      "inputs": [
        {
          "internalType": "uint256",
          "name": "amount",
          "type": "uint256"
        }
      ],
      "name": "addToCirculation",
      "outputs": [],
      "stateMutability": "nonpayable",
      "type": "function"
    },
    {
      "inputs": [
        {
          "internalType": "address",
          "name": "holder",
          "type": "address"
        },
        {
          "internalType": "address",
          "name": "spender",
          "type": "address"
        }
      ],
      "name": "allowance",
      "outputs": [
        {
          "internalType": "uint256",
          "name": "",
          "type": "uint256"
        }
      ],
      "stateMutability": "view",
      "type": "function"
    },
    {
      "inputs": [
        {
          "internalType": "address",
          "name": "spender",
          "type": "address"
        },
        {
          "internalType": "uint256",
          "name": "value",
          "type": "uint256"
        }
      ],
      "name": "approve",
      "outputs": [
        {
          "internalType": "bool",
          "name": "",
          "type": "bool"
        }
      ],
      "stateMutability": "nonpayable",
      "type": "function"
    },
    {
      "inputs": [
        {
          "internalType": "address",
          "name": "operator",
          "type": "address"
        }
      ],
      "name": "authorizeOperator",
      "outputs": [],
      "stateMutability": "nonpayable",
      "type": "function"
    },
    {
      "inputs": [
        {
          "internalType": "address",
          "name": "tokenHolder",
          "type": "address"
        }
      ],
      "name": "balanceOf",
      "outputs": [
        {
          "internalType": "uint256",
          "name": "",
          "type": "uint256"
        }
      ],
      "stateMutability": "view",
      "type": "function"
    },
    {
      "inputs": [
        {
          "internalType": "uint256",
          "name": "amount",
          "type": "uint256"
        },
        {
          "internalType": "bytes",
          "name": "data",
          "type": "bytes"
        }
      ],
      "name": "burn",
      "outputs": [],
      "stateMutability": "nonpayable",
      "type": "function"
    },
    {
      "inputs": [],
      "name": "decimals",
      "outputs": [
        {
          "internalType": "uint8",
          "name": "",
          "type": "uint8"
        }
      ],
      "stateMutability": "pure",
      "type": "function"
    },
    {
      "inputs": [],
      "name": "defaultOperators",
      "outputs": [
        {
          "internalType": "address[]",
          "name": "",
          "type": "address[]"
        }
      ],
      "stateMutability": "view",
      "type": "function"
    },
    {
      "inputs": [
        {
          "internalType": "bytes32",
          "name": "role",
          "type": "bytes32"
        },
        {
          "internalType": "address",
          "name": "account",
          "type": "address"
        }
      ],
      "name": "grantRole",
      "outputs": [],
      "stateMutability": "nonpayable",
      "type": "function"
    },
    {
      "inputs": [],
      "name": "granularity",
      "outputs": [
        {
          "internalType": "uint256",
          "name": "",
          "type": "uint256"
        }
      ],
      "stateMutability": "view",
      "type": "function"
    },
    {
      "inputs": [],
      "name": "hook",
      "outputs": [
        {
          "internalType": "contract IHook",
          "name": "",
          "type": "address"
        }
      ],
      "stateMutability": "view",
      "type": "function"
    },
    {
      "inputs": [
        {
          "internalType": "address",
          "name": "impl",
          "type": "address"
        },
        {
          "internalType": "address",
          "name": "implErc20",
          "type": "address"
        },
        {
          "internalType": "address",
          "name": "hook_",
          "type": "address"
        },
        {
          "internalType": "address",
          "name": "communityCoinInstanceAddr",
          "type": "address"
        },
        {
          "internalType": "uint256",
          "name": "discountSensitivity_",
          "type": "uint256"
        },
        {
          "internalType": "address",
          "name": "rolesManagementAddr_",
          "type": "address"
        }
      ],
      "name": "initialize",
      "outputs": [],
      "stateMutability": "nonpayable",
      "type": "function"
    },
    {
      "inputs": [],
      "name": "instanceManagment",
      "outputs": [
        {
          "internalType": "contract ICommunityStakingPoolFactory",
          "name": "",
          "type": "address"
        }
      ],
      "stateMutability": "view",
      "type": "function"
    },
    {
      "inputs": [
        {
          "internalType": "address",
          "name": "operator",
          "type": "address"
        },
        {
          "internalType": "address",
          "name": "tokenHolder",
          "type": "address"
        }
      ],
      "name": "isOperatorFor",
      "outputs": [
        {
          "internalType": "bool",
          "name": "",
          "type": "bool"
        }
      ],
      "stateMutability": "view",
      "type": "function"
    },
    {
      "inputs": [
        {
          "internalType": "address",
          "name": "forwarder",
          "type": "address"
        }
      ],
      "name": "isTrustedForwarder",
      "outputs": [
        {
          "internalType": "bool",
          "name": "",
          "type": "bool"
        }
      ],
      "stateMutability": "view",
      "type": "function"
    },
    {
      "inputs": [
        {
          "internalType": "address",
          "name": "account",
          "type": "address"
        },
        {
          "internalType": "uint256",
          "name": "amount",
          "type": "uint256"
        },
        {
          "internalType": "uint256",
          "name": "priceBeforeStake",
          "type": "uint256"
        }
      ],
      "name": "issueWalletTokens",
      "outputs": [],
      "stateMutability": "nonpayable",
      "type": "function"
    },
    {
      "inputs": [],
      "name": "name",
      "outputs": [
        {
          "internalType": "string",
          "name": "",
          "type": "string"
        }
      ],
      "stateMutability": "view",
      "type": "function"
    },
    {
      "inputs": [
        {
          "internalType": "address",
          "name": "account",
          "type": "address"
        },
        {
          "internalType": "uint256",
          "name": "amount",
          "type": "uint256"
        },
        {
          "internalType": "bytes",
          "name": "data",
          "type": "bytes"
        },
        {
          "internalType": "bytes",
          "name": "operatorData",
          "type": "bytes"
        }
      ],
      "name": "operatorBurn",
      "outputs": [],
      "stateMutability": "nonpayable",
      "type": "function"
    },
    {
      "inputs": [
        {
          "internalType": "address",
          "name": "sender",
          "type": "address"
        },
        {
          "internalType": "address",
          "name": "recipient",
          "type": "address"
        },
        {
          "internalType": "uint256",
          "name": "amount",
          "type": "uint256"
        },
        {
          "internalType": "bytes",
          "name": "data",
          "type": "bytes"
        },
        {
          "internalType": "bytes",
          "name": "operatorData",
          "type": "bytes"
        }
      ],
      "name": "operatorSend",
      "outputs": [],
      "stateMutability": "nonpayable",
      "type": "function"
    },
    {
      "inputs": [],
      "name": "owner",
      "outputs": [
        {
          "internalType": "address",
          "name": "",
          "type": "address"
        }
      ],
      "stateMutability": "view",
      "type": "function"
    },
    {
      "inputs": [
        {
          "internalType": "address",
          "name": "reserveToken",
          "type": "address"
        },
        {
          "internalType": "address",
          "name": "tradedToken",
          "type": "address"
        },
        {
          "internalType": "uint64",
          "name": "duration",
          "type": "uint64"
        },
        {
          "components": [
            {
              "internalType": "address",
              "name": "account",
              "type": "address"
            },
            {
              "internalType": "uint256",
              "name": "amount",
              "type": "uint256"
            }
          ],
          "internalType": "struct IStructs.StructAddrUint256[]",
          "name": "donations",
          "type": "tuple[]"
        },
        {
          "internalType": "uint64",
          "name": "reserveTokenClaimFraction",
          "type": "uint64"
        },
        {
          "internalType": "uint64",
          "name": "tradedTokenClaimFraction",
          "type": "uint64"
        },
        {
          "internalType": "uint64",
          "name": "lpClaimFraction",
          "type": "uint64"
        },
        {
          "internalType": "uint64",
          "name": "numerator",
          "type": "uint64"
        },
        {
          "internalType": "uint64",
          "name": "denominator",
          "type": "uint64"
        }
      ],
      "name": "produce",
      "outputs": [
        {
          "internalType": "address",
          "name": "instance",
          "type": "address"
        }
      ],
      "stateMutability": "nonpayable",
      "type": "function"
    },
    {
      "inputs": [
        {
          "internalType": "address",
          "name": "tokenErc20",
          "type": "address"
        },
        {
          "internalType": "uint64",
          "name": "duration",
          "type": "uint64"
        },
        {
          "components": [
            {
              "internalType": "address",
              "name": "account",
              "type": "address"
            },
            {
              "internalType": "uint256",
              "name": "amount",
              "type": "uint256"
            }
          ],
          "internalType": "struct IStructs.StructAddrUint256[]",
          "name": "donations",
          "type": "tuple[]"
        },
        {
          "internalType": "uint64",
          "name": "numerator",
          "type": "uint64"
        },
        {
          "internalType": "uint64",
          "name": "denominator",
          "type": "uint64"
        }
      ],
      "name": "produce",
      "outputs": [
        {
          "internalType": "address",
          "name": "instance",
          "type": "address"
        }
      ],
      "stateMutability": "nonpayable",
      "type": "function"
    },
    {
      "inputs": [
        {
          "internalType": "uint256",
          "name": "amount",
          "type": "uint256"
        },
        {
          "internalType": "address[]",
          "name": "preferredInstances",
          "type": "address[]"
        }
      ],
      "name": "redeem",
      "outputs": [],
      "stateMutability": "nonpayable",
      "type": "function"
    },
    {
      "inputs": [
        {
          "internalType": "uint256",
          "name": "amount",
          "type": "uint256"
        }
      ],
      "name": "redeem",
      "outputs": [],
      "stateMutability": "nonpayable",
      "type": "function"
    },
    {
      "inputs": [
        {
          "internalType": "uint256",
          "name": "amount",
          "type": "uint256"
        }
      ],
      "name": "redeemAndRemoveLiquidity",
      "outputs": [],
      "stateMutability": "nonpayable",
      "type": "function"
    },
    {
      "inputs": [
        {
          "internalType": "uint256",
          "name": "amount",
          "type": "uint256"
        },
        {
          "internalType": "address[]",
          "name": "preferredInstances",
          "type": "address[]"
        }
      ],
      "name": "redeemAndRemoveLiquidity",
      "outputs": [],
      "stateMutability": "nonpayable",
      "type": "function"
    },
    {
      "inputs": [
        {
          "internalType": "uint256",
          "name": "amount",
          "type": "uint256"
        }
      ],
      "name": "removeFromCirculation",
      "outputs": [],
      "stateMutability": "nonpayable",
      "type": "function"
    },
    {
      "inputs": [],
      "name": "renounceOwnership",
      "outputs": [],
      "stateMutability": "nonpayable",
      "type": "function"
    },
    {
      "inputs": [
        {
          "internalType": "address",
          "name": "operator",
          "type": "address"
        }
      ],
      "name": "revokeOperator",
      "outputs": [],
      "stateMutability": "nonpayable",
      "type": "function"
    },
    {
      "inputs": [
        {
          "internalType": "bytes32",
          "name": "role",
          "type": "bytes32"
        },
        {
          "internalType": "address",
          "name": "account",
          "type": "address"
        }
      ],
      "name": "revokeRole",
      "outputs": [],
      "stateMutability": "nonpayable",
      "type": "function"
    },
    {
      "inputs": [],
      "name": "rolesManagement",
      "outputs": [
        {
          "internalType": "contract CommunityRolesManagement",
          "name": "",
          "type": "address"
        }
      ],
      "stateMutability": "view",
      "type": "function"
    },
    {
      "inputs": [
        {
          "internalType": "address",
          "name": "recipient",
          "type": "address"
        },
        {
          "internalType": "uint256",
          "name": "amount",
          "type": "uint256"
        },
        {
          "internalType": "bytes",
          "name": "data",
          "type": "bytes"
        }
      ],
      "name": "send",
      "outputs": [],
      "stateMutability": "nonpayable",
      "type": "function"
    },
    {
      "inputs": [
        {
          "internalType": "address",
          "name": "forwarder",
          "type": "address"
        }
      ],
      "name": "setTrustedForwarder",
      "outputs": [],
      "stateMutability": "nonpayable",
      "type": "function"
    },
    {
      "inputs": [
        {
          "internalType": "address",
          "name": "account",
          "type": "address"
        },
        {
          "internalType": "uint256",
          "name": "amount",
          "type": "uint256"
        },
        {
          "internalType": "address[]",
          "name": "preferredInstances",
          "type": "address[]"
        },
        {
          "internalType": "address[][]",
          "name": "swapPaths",
          "type": "address[][]"
        }
      ],
      "name": "simulateRedeemAndRemoveLiquidity",
      "outputs": [
        {
          "internalType": "address",
          "name": "",
          "type": "address"
        },
        {
          "internalType": "uint256",
          "name": "",
          "type": "uint256"
        }
      ],
      "stateMutability": "view",
      "type": "function"
    },
    {
      "inputs": [],
      "name": "symbol",
      "outputs": [
        {
          "internalType": "string",
          "name": "",
          "type": "string"
        }
      ],
      "stateMutability": "view",
      "type": "function"
    },
    {
      "inputs": [
        {
          "internalType": "address",
          "name": "operator",
          "type": "address"
        },
        {
          "internalType": "address",
          "name": "from",
          "type": "address"
        },
        {
          "internalType": "address",
          "name": "to",
          "type": "address"
        },
        {
          "internalType": "uint256",
          "name": "amount",
          "type": "uint256"
        },
        {
          "internalType": "bytes",
          "name": "userData",
          "type": "bytes"
        },
        {
          "internalType": "bytes",
          "name": "operatorData",
          "type": "bytes"
        }
      ],
      "name": "tokensReceived",
      "outputs": [],
      "stateMutability": "nonpayable",
      "type": "function"
    },
    {
      "inputs": [],
      "name": "totalSupply",
      "outputs": [
        {
          "internalType": "uint256",
          "name": "",
          "type": "uint256"
        }
      ],
      "stateMutability": "view",
      "type": "function"
    },
    {
      "inputs": [
        {
          "internalType": "address",
          "name": "recipient",
          "type": "address"
        },
        {
          "internalType": "uint256",
          "name": "amount",
          "type": "uint256"
        }
      ],
      "name": "transfer",
      "outputs": [
        {
          "internalType": "bool",
          "name": "",
          "type": "bool"
        }
      ],
      "stateMutability": "nonpayable",
      "type": "function"
    },
    {
      "inputs": [
        {
          "internalType": "address",
          "name": "holder",
          "type": "address"
        },
        {
          "internalType": "address",
          "name": "recipient",
          "type": "address"
        },
        {
          "internalType": "uint256",
          "name": "amount",
          "type": "uint256"
        }
      ],
      "name": "transferFrom",
      "outputs": [
        {
          "internalType": "bool",
          "name": "",
          "type": "bool"
        }
      ],
      "stateMutability": "nonpayable",
      "type": "function"
    },
    {
      "inputs": [
        {
          "internalType": "address",
          "name": "newOwner",
          "type": "address"
        }
      ],
      "name": "transferOwnership",
      "outputs": [],
      "stateMutability": "nonpayable",
      "type": "function"
    },
    {
      "inputs": [
        {
          "internalType": "uint256",
          "name": "amount",
          "type": "uint256"
        }
      ],
      "name": "unstake",
      "outputs": [],
      "stateMutability": "nonpayable",
      "type": "function"
    },
    {
      "inputs": [
        {
          "internalType": "address",
          "name": "account",
          "type": "address"
        }
      ],
      "name": "viewLockedWalletTokens",
      "outputs": [
        {
          "internalType": "uint256",
          "name": "amount",
          "type": "uint256"
        }
      ],
      "stateMutability": "view",
      "type": "function"
    },
    {
      "inputs": [
        {
          "internalType": "address",
          "name": "account",
          "type": "address"
        }
      ],
      "name": "viewLockedWalletTokensList",
      "outputs": [
        {
          "internalType": "uint256[][]",
          "name": "",
          "type": "uint256[][]"
        }
      ],
      "stateMutability": "view",
      "type": "function"
    }
  ],
  "bytecode": "0x608060405234801561001057600080fd5b50615df880620000216000396000f3fe608060405234801561001057600080fd5b50600436106102285760003560e01c80638da5cb5b11610131578063cea7f508116100b3578063cea7f50814610494578063d547741f146104a7578063d95b6371146104ba578063da742228146104cd578063db006a75146104e0578063dd62ed3e146104f3578063e4b739e014610506578063f2fde38b14610527578063fad8b32a1461053a578063fc673c4f1461054d578063fe9d93031461056057600080fd5b80638da5cb5b146103cc578063959b8c3f146103d457806395d89b41146103e75780639bd9bbc6146103ef5780639efb64dd14610402578063a9059cbb14610415578063ad259b6014610428578063bef584b21461043b578063c69f195b1461045b578063c75aa5671461046e578063c7ba1ec21461048157600080fd5b80632f2ff15d116101ba5780632f2ff15d14610316578063313ce5671461032957806353c425c114610338578063556f0dc71461034b578063572b6c051461035257806362ad1b8314610365578063696bd78b1461037857806370a082311461038b578063715018a61461039e5780637c0a40c5146103a65780637f5a7c7b146103b957600080fd5b806223de291461022d57806305b825311461024257806306e485381461026b57806306fdde03146102805780630959bd1a14610295578063095ea7b3146102a857806310c545cd146102cb57806318160ddd146102de57806323b872dd146102f05780632e17de7814610303575b600080fd5b61024061023b366004614a41565b610573565b005b610255610250366004614c52565b610671565b6040516102629190614d26565b60405180910390f35b6102736106d1565b6040516102629190614d7e565b610288610733565b6040516102629190614dde565b6102406102a3366004614e55565b6107bc565b6102bb6102b6366004614e9b565b610801565b6040519015158152602001610262565b60ce54610255906001600160a01b031681565b6067545b604051908152602001610262565b6102bb6102fe366004614ec7565b610825565b610240610311366004614f08565b61095a565b610240610324366004614f21565b610a35565b60405160128152602001610262565b610240610346366004614f51565b610adc565b60016102e2565b6102bb610360366004614fca565b610bee565b610240610373366004615056565b610bf9565b610240610386366004614f08565b610c3c565b6102e2610399366004614fca565b610cf9565b610240610d14565b6102e26103b4366004614fca565b610d5f565b60cc54610255906001600160a01b031681565b610255610d6a565b6102406103e2366004614fca565b610d79565b610288610ee2565b6102406103fd3660046150e8565b610ef1565b610240610410366004615140565b610f1b565b6102bb610423366004614e9b565b61116f565b610240610436366004614f08565b611229565b61044e610449366004614fca565b6112e6565b60405161026291906151a5565b610240610469366004614f08565b6112f1565b61024061047c366004614e55565b611344565b60cd54610255906001600160a01b031681565b6102556104a2366004615207565b611380565b6102406104b5366004614f21565b6113d8565b6102bb6104c8366004615290565b611449565b6102406104db366004614fca565b6114eb565b6102406104ee366004614f08565b6115b2565b6102e2610501366004615290565b6115fd565b6105196105143660046152be565b611628565b6040516102629291906153af565b610240610535366004614fca565b6116cc565b610240610548366004614fca565b611790565b61024061055b3660046153c8565b6118f7565b61024061056e366004615447565b611936565b3061057c61195c565b6001600160a01b031614801561059a57506001600160a01b03861630145b6105e75760405162461bcd60e51b81526020600482015260196024820152786f776e20746f6b656e73207065726d6974746564206f6e6c7960381b60448201526064015b60405180910390fd5b60ce546040516394f1d57760e01b81526001600160a01b03909116906394f1d57790610617908a90600401614d26565b60006040518083038186803b15801561062f57600080fd5b505afa158015610643573d6000803e3d6000fd5b5050604080516000815260208101909152610667925030915089908890600161196b565b5050505050505050565b600061067b61195c565b6001600160a01b031661068c610d6a565b6001600160a01b0316146106b25760405162461bcd60e51b81526004016105de90615483565b6106c38a8a8a8a8a8a8a8a8a611ce8565b9a9950505050505050505050565b6060606a80548060200260200160405190810160405280929190818152602001828054801561072957602002820191906000526020600020905b81546001600160a01b0316815260019091019060200180831161070b575b5050505050905090565b606060688054610742906154b8565b80601f016020809104026020016040519081016040528092919081815260200182805461076e906154b8565b80156107295780601f1061079057610100808354040283529160200191610729565b820191906000526020600020905b81548152906001019060200180831161079e57509395945050505050565b6002609a5414156107df5760405162461bcd60e51b81526004016105de906154f3565b6002609a556107f86107ef61195c565b83836001611dc6565b50506001609a55565b60008061080c61195c565b9050610819818585611e33565b60019150505b92915050565b60006001600160a01b03831661084d5760405162461bcd60e51b81526004016105de9061552a565b6001600160a01b0384166108b25760405162461bcd60e51b815260206004820152602660248201527f4552433737373a207472616e736665722066726f6d20746865207a65726f206160448201526564647265737360d01b60648201526084016105de565b60006108bc61195c565b90506108ea818686866040518060200160405280600081525060405180602001604052806000815250611f5a565b6108f5858285612079565b6109218186868660405180602001604052806000815250604051806020016040528060008152506120ed565b61094f818686866040518060200160405280600081525060405180602001604052806000815250600061224d565b506001949350505050565b6002609a54141561097d5760405162461bcd60e51b81526004016105de906154f3565b6002609a55600061098c61195c565b9050600061099982610cf9565b9050808311156109bb5760405162461bcd60e51b81526004016105de9061556e565b60006109c683612400565b905060006109d485846155b2565b905080821115610a1f5760405162461bcd60e51b815260206004820152601660248201527514d51052d157d393d517d5539313d0d2d15117d6515560521b60448201526064016105de565b610a29848661253e565b50506001609a55505050565b610a3d61195c565b6001600160a01b0316610a4e610d6a565b6001600160a01b031614610a745760405162461bcd60e51b81526004016105de90615483565b60ce54604051632f2ff15d60e01b81526001600160a01b0390911690632f2ff15d90610aa690859085906004016155c9565b600060405180830381600087803b158015610ac057600080fd5b505af1158015610ad4573d6000803e3d6000fd5b505050505050565b600054610100900460ff16610af75760005460ff1615610afb565b303b155b610b5e5760405162461bcd60e51b815260206004820152602e60248201527f496e697469616c697a61626c653a20636f6e747261637420697320616c72656160448201526d191e481a5b9a5d1a585b1a5e995960921b60648201526084016105de565b600054610100900460ff16158015610b80576000805461ffff19166101011790555b610bd36040518060400160405280600e81526020016d5374616b696e6720546f6b656e7360901b815250604051806040016040528060058152602001645354414b4560d81b8152508989898989896126e3565b8015610be5576000805461ff00191690555b50505050505050565b600061081f82612886565b610c0a610c0461195c565b86611449565b610c265760405162461bcd60e51b81526004016105de906155e0565b610c358585858585600161289a565b5050505050565b6002609a541415610c5f5760405162461bcd60e51b81526004016105de906154f3565b6002609a556000610c6e61195c565b60ce5460405163079122d560e11b81529192506001600160a01b031690630f2245aa90610c9f908490600401614d26565b60006040518083038186803b158015610cb757600080fd5b505afa158015610ccb573d6000803e3d6000fd5b505050506107f881836040518060200160405280600081525060405180602001604052806000815250612988565b6001600160a01b031660009081526066602052604090205490565b610d1c61195c565b6001600160a01b0316610d2d610d6a565b6001600160a01b031614610d535760405162461bcd60e51b81526004016105de90615483565b610d5d6000612996565b565b600061081f82612400565b6033546001600160a01b031690565b806001600160a01b0316610d8b61195c565b6001600160a01b03161415610dee5760405162461bcd60e51b8152602060048201526024808201527f4552433737373a20617574686f72697a696e672073656c66206173206f70657260448201526330ba37b960e11b60648201526084016105de565b6001600160a01b0381166000908152606b602052604090205460ff1615610e5157606d6000610e1b61195c565b6001600160a01b03908116825260208083019390935260409182016000908120918516815292529020805460ff19169055610e98565b6001606c6000610e5f61195c565b6001600160a01b03908116825260208083019390935260409182016000908120918616815292529020805460ff19169115159190911790555b610ea061195c565b6001600160a01b0316816001600160a01b03167ff4caeb2d6ca8932a215a353d0703c326ec2d81fc68170f320eb2ab49e9df61f960405160405180910390a350565b606060698054610742906154b8565b610f16610efc61195c565b84848460405180602001604052806000815250600161289a565b505050565b60cd54604051637ca2500160e01b815233916000916001600160a01b0390911690637ca2500190610f50908590600401614d26565b61016060405180830381865afa158015610f6e573d6000803e3d6000fd5b505050506040513d601f19601f82011682018060405250810190610f929190615668565b905080610100015115156001151514610faa57600080fd5b6001600160a01b038216600090815260d2602052604081208054869290610fd2908490615742565b909155505060cc546001600160a01b03161561106b5760cc5460208201516040516316f3a59960e11b81526001600160a01b03858116600483015288811660248301526001600160401b03909216604482015260648101879052911690632de74b3290608401600060405180830381600087803b15801561105257600080fd5b505af1158015611066573d6000803e3d6000fd5b505050505b6001600160a01b038516600090815260d3602052604081208054869290611093908490615742565b925050819055508360d060008282546110ac9190615742565b909155505060e08101516110c190600a61583e565b60c08201516110d190600a61583e565b6110db9086615853565b6110e59190615888565b935061111185856040518060200160405280600081525060405180602001604052806000815250612988565b60408051858152602081018590526001600160a01b038716917f1449c6dd7851abc30abf37f57715f492010519147cc2652fbc38202c18a6ee90910160405180910390a2610ad4858583602001516001600160401b031660006129e8565b60006001600160a01b0383166111975760405162461bcd60e51b81526004016105de9061552a565b60006111a161195c565b90506111cf818286866040518060200160405280600081525060405180602001604052806000815250611f5a565b6111fb8182868660405180602001604052806000815250604051806020016040528060008152506120ed565b610819818286866040518060200160405280600081525060405180602001604052806000815250600061224d565b6002609a54141561124c5760405162461bcd60e51b81526004016105de906154f3565b6002609a55600061125b61195c565b60ce5460405163079122d560e11b81529192506001600160a01b031690630f2245aa9061128c908490600401614d26565b60006040518083038186803b1580156112a457600080fd5b505afa1580156112b8573d6000803e3d6000fd5b505050506107f881836040518060200160405280600081525060405180602001604052806000815250612a82565b606061081f82612c3d565b6002609a5414156113145760405162461bcd60e51b81526004016105de906154f3565b6002609a5561133c61132461195c565b60408051600081526020810190915283906002611dc6565b506001609a55565b6002609a5414156113675760405162461bcd60e51b81526004016105de906154f3565b6002609a556107f861137761195c565b83836002611dc6565b600061138a61195c565b6001600160a01b031661139b610d6a565b6001600160a01b0316146113c15760405162461bcd60e51b81526004016105de90615483565b6113ce8686868686612e73565b9695505050505050565b6113e061195c565b6001600160a01b03166113f1610d6a565b6001600160a01b0316146114175760405162461bcd60e51b81526004016105de90615483565b60ce5460405163d547741f60e01b81526001600160a01b039091169063d547741f90610aa690859085906004016155c9565b6000816001600160a01b0316836001600160a01b031614806114b457506001600160a01b0383166000908152606b602052604090205460ff1680156114b457506001600160a01b038083166000908152606d602090815260408083209387168352929052205460ff16155b806114e457506001600160a01b038083166000908152606c602090815260408083209387168352929052205460ff165b9392505050565b6114f361195c565b6001600160a01b0316611504610d6a565b6001600160a01b03161461152a5760405162461bcd60e51b81526004016105de90615483565b806001600160a01b031661153c610d6a565b6001600160a01b031614156115905760405162461bcd60e51b815260206004820152601a6024820152792327a92ba0a92222a92fa1a0a72fa727aa2fa122afa7aba722a960311b60448201526064016105de565b606580546001600160a01b0319166001600160a01b0392909216919091179055565b6002609a5414156115d55760405162461bcd60e51b81526004016105de906154f3565b6002609a5561133c6115e561195c565b60408051600081526020810190915283906001611dc6565b6001600160a01b039182166000908152606e6020908152604080832093909416825291909152205490565b600080600080611644888888600261163f60675490565b612f3b565b5060cd5460405163271294bb60e11b81529294509092506001600160a01b031690634e2529769061167d90859085908a9060040161589c565b6040805180830381865afa158015611699573d6000803e3d6000fd5b505050506040513d601f19601f820116820180604052508101906116bd9190615953565b93509350505094509492505050565b6116d461195c565b6001600160a01b03166116e5610d6a565b6001600160a01b03161461170b5760405162461bcd60e51b81526004016105de90615483565b6065546001600160a01b031633141561175d5760405162461bcd60e51b81526020600482015260146024820152732222a724a2a22fa327a92fa327a92ba0a92222a960611b60448201526064016105de565b6065546001600160a01b038281169116141561178457606580546001600160a01b03191690555b61178d81613541565b50565b61179861195c565b6001600160a01b0316816001600160a01b031614156118035760405162461bcd60e51b815260206004820152602160248201527f4552433737373a207265766f6b696e672073656c66206173206f70657261746f6044820152603960f91b60648201526084016105de565b6001600160a01b0381166000908152606b602052604090205460ff161561186f576001606d600061183261195c565b6001600160a01b03908116825260208083019390935260409182016000908120918616815292529020805460ff19169115159190911790556118ad565b606c600061187b61195c565b6001600160a01b03908116825260208083019390935260409182016000908120918516815292529020805460ff191690555b6118b561195c565b6001600160a01b0316816001600160a01b03167f50546e66e5f44d728365dc3908c63bc5cfeeab470722c1677e3073a6ac294aa160405160405180910390a350565b61190861190261195c565b85611449565b6119245760405162461bcd60e51b81526004016105de906155e0565b61193084848484612a82565b50505050565b61195861194161195c565b838360405180602001604052806000815250612a82565b5050565b60006119666135ee565b905090565b60006119778685613617565b905060d15484111561199b5760405162461bcd60e51b81526004016105de9061556e565b60008060006119ad8888888888612f3b565b92509250925060005b81811015611cdc57600060d260008684815181106119d6576119d6615981565b60200260200101516001600160a01b03166001600160a01b03168152602001908152602001600020541115611cca576001866002811115611a1957611a19615997565b1415611b6a57838181518110611a3157611a31615981565b60200260200101516001600160a01b0316631e9a69508a858481518110611a5a57611a5a615981565b60200260200101516040518363ffffffff1660e01b8152600401611a7f9291906153af565b600060405180830381600087803b158015611a9957600080fd5b505af1925050508015611aaa575060015b611ac65760405162461bcd60e51b81526004016105de906159ad565b828181518110611ad857611ad8615981565b602002602001015160d26000868481518110611af657611af6615981565b60200260200101516001600160a01b03166001600160a01b031681526020019081526020016000206000828254611b2d91906155b2565b92505081905550828181518110611b4657611b46615981565b602002602001015160d16000828254611b5f91906155b2565b90915550611cca9050565b6002866002811115611b7e57611b7e615997565b1415611cca57838181518110611b9657611b96615981565b60200260200101516001600160a01b03166382341e8f8a858481518110611bbf57611bbf615981565b60200260200101516040518363ffffffff1660e01b8152600401611be49291906153af565b600060405180830381600087803b158015611bfe57600080fd5b505af1925050508015611c0f575060015b611c2b5760405162461bcd60e51b81526004016105de906159ad565b828181518110611c3d57611c3d615981565b602002602001015160d26000868481518110611c5b57611c5b615981565b60200260200101516001600160a01b03166001600160a01b031681526020019081526020016000206000828254611c9291906155b2565b92505081905550828181518110611cab57611cab615981565b602002602001015160d16000828254611cc491906155b2565b90915550505b80611cd4816159e2565b9150506119b6565b50505050505050505050565b60cd546040516305b8253160e01b81526000916001600160a01b0316906305b8253190611d29908d908d908d908d908d908d908d908d908d90600401615a41565b6020604051808303816000875af1158015611d48573d6000803e3d6000fd5b505050506040513d601f19601f82011682018060405250810190611d6c9190615ab2565b9050886001600160a01b03168a6001600160a01b03167fc88bd7cfbe8bae024ebb6f3cf291adfd7db2588a07e1c78768ea3c81b992496b83604051611db19190614d26565b60405180910390a39998505050505050505050565b60ce546040516394f1d57760e01b81526001600160a01b03909116906394f1d57790611df6908790600401614d26565b60006040518083038186803b158015611e0e57600080fd5b505afa158015611e22573d6000803e3d6000fd5b50505050611930848585858561196b565b6001600160a01b038316611e975760405162461bcd60e51b815260206004820152602560248201527f4552433737373a20617070726f76652066726f6d20746865207a65726f206164604482015264647265737360d81b60648201526084016105de565b6001600160a01b038216611ef95760405162461bcd60e51b815260206004820152602360248201527f4552433737373a20617070726f766520746f20746865207a65726f206164647260448201526265737360e81b60648201526084016105de565b6001600160a01b038381166000818152606e602090815260408083209487168084529482529182902085905590518481527f8c5be1e5ebec7d5bd14f71427d1e84f3dd0314c0f7b2291e5b200ac8c7c3b925910160405180910390a3505050565b60405163555ddc6560e11b8152600090731820a4b7618bde71dce8cdc73aab6c95905fad249063aabbb8ca90611fb69089907f29ddb589b1fb5fc7cf394961c1adf5f8c6454761adf795e67fe149f658abe895906004016153af565b602060405180830381865afa158015611fd3573d6000803e3d6000fd5b505050506040513d601f19601f82011682018060405250810190611ff79190615ab2565b90506001600160a01b03811615610be557604051633ad5cbc160e11b81526001600160a01b038216906375ab97829061203e908a908a908a908a908a908a90600401615acf565b600060405180830381600087803b15801561205857600080fd5b505af115801561206c573d6000803e3d6000fd5b5050505050505050505050565b600061208584846115fd565b9050600019811461193057818110156120e05760405162461bcd60e51b815260206004820152601e60248201527f4552433737373a20696e73756666696369656e7420616c6c6f77616e6365000060448201526064016105de565b6119308484848403611e33565b6120f9868686866136b2565b6001600160a01b038516600090815260666020526040902054838110156121725760405162461bcd60e51b815260206004820152602760248201527f4552433737373a207472616e7366657220616d6f756e7420657863656564732060448201526662616c616e636560c81b60648201526084016105de565b6001600160a01b038087166000908152606660205260408082208785039055918716815290812080548692906121a9908490615742565b92505081905550846001600160a01b0316866001600160a01b0316886001600160a01b03167f06b541ddaa720db2b10a4d0cdac39b8d360425fc073085fac19bc8261467798787878760405161220193929190615b29565b60405180910390a4846001600160a01b0316866001600160a01b0316600080516020615dcc8339815191528660405161223c91815260200190565b60405180910390a350505050505050565b60405163555ddc6560e11b8152600090731820a4b7618bde71dce8cdc73aab6c95905fad249063aabbb8ca906122a99089907fb281fc8c12954d22544db45de3159a39272895b169a852b314f9cc762e44c53b906004016153af565b602060405180830381865afa1580156122c6573d6000803e3d6000fd5b505050506040513d601f19601f820116820180604052508101906122ea9190615ab2565b90506001600160a01b03811615612366576040516223de2960e01b81526001600160a01b038216906223de299061232f908b908b908b908b908b908b90600401615acf565b600060405180830381600087803b15801561234957600080fd5b505af115801561235d573d6000803e3d6000fd5b50505050610667565b8115610667576001600160a01b0386163b156106675760405162461bcd60e51b815260206004820152604d60248201527f4552433737373a20746f6b656e20726563697069656e7420636f6e747261637460448201527f20686173206e6f20696d706c656d656e74657220666f7220455243373737546f60648201526c1ad95b9cd49958da5c1a595b9d609a1b608482015260a4016105de565b60008080805b6001600160a01b0385166000908152609860205260409020612427906138f3565b811015612536576001600160a01b038516600090815260986020526040902061245090826138fd565b92508242116125245761246342846155b2565b6001600160a01b03861660009081526098602090815260408083208784526002019091529020546124949190615853565b6001600160a01b038616600090815260986020908152604080832087845260029081019092529091209081015460019091015491935090831061250a576001600160a01b038616600090815260986020908152604080832087845260020190915290206001015461250590846155b2565b61250d565b60005b6125179086615742565b6125219190615742565b93505b8061252e816159e2565b915050612406565b505050919050565b600061254a8383613617565b90506000808061258886868360405190808252806020026020018201604052801561257f578160200160208202803683370190505b50600088612f3b565b92509250925060005b81811015610be5578381815181106125ab576125ab615981565b60200260200101516001600160a01b03166382341e8f888584815181106125d4576125d4615981565b60200260200101516040518363ffffffff1660e01b81526004016125f99291906153af565b600060405180830381600087803b15801561261357600080fd5b505af1925050508015612624575060015b6126655760405162461bcd60e51b81526020600482015260126024820152714572726f72207768656e20756e7374616b6560701b60448201526064016105de565b82818151811061267757612677615981565b602002602001015160d2600086848151811061269557612695615981565b60200260200101516001600160a01b03166001600160a01b0316815260200190815260200160002060008282546126cc91906155b2565b9091555050806126db816159e2565b915050612591565b600054610100900460ff1661270a5760405162461bcd60e51b81526004016105de90615b54565b612712613909565b60408051600081526020810190915261272e908990899061394a565b61273a6201518061397c565b6127426139dd565b60cd80546001600160a01b0319166001600160a01b0385811691821790925560405163485cc95560e01b8152888316600482015291871660248301529063485cc95590604401600060405180830381600087803b1580156127a257600080fd5b505af11580156127b6573d6000803e3d6000fd5b505060cc80546001600160a01b038089166001600160a01b03199283161790925560cf86905560ce80549286169290911691909117905550506040516329965a1d60e01b8152731820a4b7618bde71dce8cdc73aab6c95905fad24906329965a1d9061284a9030907fb281fc8c12954d22544db45de3159a39272895b169a852b314f9cc762e44c53b908290600401615b9f565b600060405180830381600087803b15801561286457600080fd5b505af1158015612878573d6000803e3d6000fd5b505050505050505050505050565b6065546001600160a01b0391821691161490565b6001600160a01b0386166128fb5760405162461bcd60e51b815260206004820152602260248201527f4552433737373a2073656e642066726f6d20746865207a65726f206164647265604482015261737360f01b60648201526084016105de565b6001600160a01b0385166129515760405162461bcd60e51b815260206004820181905260248201527f4552433737373a2073656e6420746f20746865207a65726f206164647265737360448201526064016105de565b600061295b61195c565b905061296b818888888888611f5a565b6129798188888888886120ed565b610be58188888888888861224d565b611930848484846001613a0c565b603380546001600160a01b038381166001600160a01b0319831681179093556040519116919082907f8be0079c531659141344cd1fd0a4f28419497f9722a3daafe3b4186f6b6457e090600090a35050565b6000806129f442613b4b565b609954909150600090612a0d9063ffffffff1686615853565b612a179083615742565b9050818111612a5c5760405162461bcd60e51b81526020600482015260116024820152701512535154d510535417d2539590531251607a1b60448201526064016105de565b612a67876000613b6b565b50612a758783838988613c53565b5060019695505050505050565b6001600160a01b038416612ae35760405162461bcd60e51b815260206004820152602260248201527f4552433737373a206275726e2066726f6d20746865207a65726f206164647265604482015261737360f01b60648201526084016105de565b6000612aed61195c565b9050612afe81866000878787611f5a565b612b0b81866000876136b2565b6001600160a01b03851660009081526066602052604090205484811015612b805760405162461bcd60e51b815260206004820152602360248201527f4552433737373a206275726e20616d6f756e7420657863656564732062616c616044820152626e636560e81b60648201526084016105de565b6001600160a01b0386166000908152606660205260408120868303905560678054879290612baf9084906155b2565b92505081905550856001600160a01b0316826001600160a01b03167fa78a9be3a7b862d26933ad85fb11d80ef66b8f972d7cbba06621d583943a4098878787604051612bfd93929190615b29565b60405180910390a36040518581526000906001600160a01b03881690600080516020615dcc833981519152906020015b60405180910390a3505050505050565b6001600160a01b03811660009081526098602052604081206060919081908190612c66906138f3565b90506000816001600160401b03811115612c8257612c82614b06565b604051908082528060200260200182016040528015612cb557816020015b6060815260200190600190039081612ca05790505b50905060005b82811015612e69576001600160a01b0387166000908152609860205260409020612ce590826138fd565b9450844211612e5757612cf842866155b2565b6001600160a01b0388166000908152609860209081526040808320898452600201909152902054612d299190615853565b604080516002808252606082018352929650919060208301908036833701905050828281518110612d5c57612d5c615981565b602002602001018190525084828281518110612d7a57612d7a615981565b6020026020010151600181518110612d9457612d94615981565b6020908102919091018101919091526001600160a01b038816600090815260988252604080822088835260029081019093529020908101546001909101548510612e11576001600160a01b0388166000908152609860209081526040808320898452600201909152902060010154612e0c90866155b2565b612e14565b60005b612e1e9190615742565b828281518110612e3057612e30615981565b6020026020010151600081518110612e4a57612e4a615981565b6020026020010181815250505b80612e61816159e2565b915050612cbb565b5095945050505050565b60cd54604051635d7467e160e01b81526000916001600160a01b031690635d7467e190612eac9089908990899089908990600401615bc2565b6020604051808303816000875af1158015612ecb573d6000803e3d6000fd5b505050506040513d601f19601f82011682018060405250810190612eef9190615ab2565b9050856001600160a01b03167f53ea91d241feec51650b775b25cfc95a2377cbe9282bf2a38d7b34b21108939482604051612f2a9190614d26565b60405180910390a295945050505050565b604080516101608101825260008082526020820181905291810182905260608181018390526080820183905260a0820183905260c0820183905260e08201839052610100820183905261012082018390526101408201839052918291865161301b5760cd60009054906101000a90046001600160a01b03166001600160a01b0316634d2ace666040518163ffffffff1660e01b8152600401600060405180830381865afa158015612ff0573d6000803e3d6000fd5b505050506040513d6000823e601f3d908101601f191682016040526130189190810190615c0d565b96505b86516001600160401b0381111561303457613034614b06565b60405190808252806020026020018201604052801561305d578160200160208202803683370190505b50935086516001600160401b0381111561307957613079614b06565b6040519080825280602002602001820160405280156130a2578160200160208202803683370190505b50925060009150818860018860028111156130bf576130bf615997565b14806130dc575060028860028111156130da576130da615997565b145b1561315f5760d15460d0546000906130f4838b6155b2565b6130fe91906155b2565b9050620186a061310e8385615853565b6131189190615853565b60cf54909350620186a09061312d9083615853565b6131379190615888565b6131419083615742565b61314b9084615888565b925061315a620186a084615888565b925050505b60005b89518110156134ee57600060d260008c848151811061318357613183615981565b60200260200101516001600160a01b03166001600160a01b031681526020019081526020016000205411156134dc5760008960028111156131c6576131c6615997565b14156132dc5760d260008b83815181106131e2576131e2615981565b60200260200101516001600160a01b03166001600160a01b0316815260200190815260200160002054821161321757816132d5565b6001600160a01b038c16600090815260d360205260408120548b51909160d2918d908590811061324957613249615981565b60200260200101516001600160a01b03166001600160a01b0316815260200190815260200160002054116132bb5760d260008b838151811061328d5761328d615981565b60200260200101516001600160a01b03166001600160a01b03168152602001908152602001600020546132d5565b6001600160a01b038c16600090815260d360205260409020545b92506133a0565b60018960028111156132f0576132f0615997565b148061330d5750600289600281111561330b5761330b615997565b145b156133a05760d260008b838151811061332857613328615981565b60200260200101516001600160a01b03166001600160a01b0316815260200190815260200160002054821161335d578161339d565b60d260008b838151811061337357613373615981565b60200260200101516001600160a01b03166001600160a01b03168152602001908152602001600020545b92505b82156134dc578981815181106133b8576133b8615981565b60200260200101518786815181106133d2576133d2615981565b6001600160a01b03928316602091820292909201015260cd548b51911690637ca25001908c908490811061340857613408615981565b60200260200101516040518263ffffffff1660e01b815260040161342c9190614d26565b61016060405180830381865afa15801561344a573d6000803e3d6000fd5b505050506040513d601f19601f8201168201806040525081019061346e9190615668565b93508360c00151600a613481919061583e565b60e085015161349190600a61583e565b61349b9085615853565b6134a59190615888565b8686815181106134b7576134b7615981565b60209081029190910101526134cd600186615742565b94506134d983836155b2565b91505b806134e6816159e2565b915050613162565b5080156135335760405162461bcd60e51b81526020600482015260136024820152721a5b9cdd59999a58da595b9d08185b5bdd5b9d606a1b60448201526064016105de565b505050955095509592505050565b61354961195c565b6001600160a01b031661355a610d6a565b6001600160a01b0316146135805760405162461bcd60e51b81526004016105de90615483565b6001600160a01b0381166135e55760405162461bcd60e51b815260206004820152602660248201527f4f776e61626c653a206e6577206f776e657220697320746865207a65726f206160448201526564647265737360d01b60648201526084016105de565b61178d81612996565b3360143610801590613604575061360481612886565b15613614575060131936013560601c5b90565b600061362260675490565b90506001600160a01b0383163014613688578161363f84306115fd565b10156136885760405162461bcd60e51b8152602060048201526018602482015277416d6f756e74206578636565647320616c6c6f77616e636560401b60448201526064016105de565b61081f83836040518060200160405280600081525060405180602001604052806000815250612a82565b6001600160a01b038316156138ee576001600160a01b038316301480156136e057506001600160a01b038216155b156136ea57611930565b60cc546001600160a01b0316156137c75760cc5460405163950676d960e01b81526001600160a01b03868116600483015285811660248301528481166044830152606482018490529091169063950676d9906084016020604051808303816000875af115801561375e573d6000803e3d6000fd5b505050506040513d601f19601f820116820180604052508101906137829190615ca6565b6137c75760405162461bcd60e51b81526020600482015260166024820152751213d3d2ce881514905394d1915497d414915591539560521b60448201526064016105de565b60006137d284610cf9565b90508181106138ec5760006137e783836155b2565b90506001600160a01b038416158061380757506001600160a01b03841630145b15613811576138ea565b600061381c86612400565b905060008111801561382e5750838110155b1561383f5761383f86600086613d5a565b6001600160a01b038616600090815260d3602052604090205482116138e8576001600160a01b038616600090815260d360205260408120546138829084906155b2565b6001600160a01b038816600090815260d360205260408120805492935083929091906138af9084906155b2565b925050819055508060d060008282546138c891906155b2565b925050819055508060d160008282546138e19190615742565b9091555050505b505b505b505b611930565b600061081f825490565b60006114e483836140b4565b600054610100900460ff166139305760405162461bcd60e51b81526004016105de90615b54565b6139386140de565b606580546001600160a01b0319169055565b600054610100900460ff166139715760405162461bcd60e51b81526004016105de90615b54565b610f1683838361410d565b600054610100900460ff166139a35760405162461bcd60e51b81526004016105de90615b54565b63ffffffff81166139c3576099805463ffffffff19166201518017905550565b6099805463ffffffff831663ffffffff1990911617905550565b600054610100900460ff16613a045760405162461bcd60e51b81526004016105de90615b54565b610d5d6142ef565b6001600160a01b038516613a625760405162461bcd60e51b815260206004820181905260248201527f4552433737373a206d696e7420746f20746865207a65726f206164647265737360448201526064016105de565b6000613a6c61195c565b9050613a7b81600088886136b2565b8460676000828254613a8d9190615742565b90915550506001600160a01b03861660009081526066602052604081208054879290613aba908490615742565b90915550613ad09050816000888888888861224d565b856001600160a01b0316816001600160a01b03167f2fe5be0146f74c5bce36c0b80911af6c7d86ff27e89d5cfa61fc681327954e5d878787604051613b1793929190615b29565b60405180910390a36040518581526001600160a01b03871690600090600080516020615dcc83398151915290602001612c2d565b60995460009063ffffffff16613b618184615888565b61081f9190615853565b6001600160a01b038216600090815260986020526040812081908190613b90906138f3565b9050801561094f57805b8015613c4757613bcc613bae6001836155b2565b6001600160a01b0388166000908152609860205260409020906138fd565b925060018515151480613be6575082613be442613b4b565b115b15613c35576001600160a01b03861660008181526098602081815260408084208885526002808201845291852085815560018101869055909101849055939092529052613c33908461431d565b505b80613c3f81615cc1565b915050613b9a565b50506001949350505050565b6001600160a01b0385166000908152609860205260409020613c759084614329565b5060018115151415613cf257613c8b84846155b2565b613c959083615888565b6001600160a01b0386166000908152609860209081526040808320878452600201909152902054613cc69190615742565b6001600160a01b0386166000908152609860209081526040808320878452600201909152902055610c35565b6001600160a01b038516600090815260986020908152604080832086845260029081019092529091200154613d28908390615742565b6001600160a01b0386166000908152609860209081526040808320878452600290810190925290912001555050505050565b6001600160a01b0383166000908152609860205260408120613d7b906138f3565b905060608115610c3557816001600160401b03811115613d9d57613d9d614b06565b604051908082528060200260200182016040528015613dc6578160200160208202803683370190505b50905060005b82811015613e25576001600160a01b0386166000908152609860205260409020613df690826138fd565b828281518110613e0857613e08615981565b602090810291909101015280613e1d816159e2565b915050613dcc565b50613e2f81614335565b905060008060005b8481101561066757838181518110613e5157613e51615981565b602002602001015142116140a25760986000896001600160a01b03166001600160a01b031681526020019081526020016000206002016000858381518110613e9b57613e9b615981565b60200260200101518152602001908152602001600020600201548610613f265760986000896001600160a01b03166001600160a01b031681526020019081526020016000206002016000858381518110613ef757613ef7615981565b602002602001015181526020019081526020016000206002015492508286613f1f91906155b2565b9550613f2c565b60009592505b613f5288858381518110613f4257613f42615981565b6020026020010151856000614354565b6001600160a01b03871615613f8857613f888742868481518110613f7857613f78615981565b6020026020010151866000613c53565b85613f9257610667565b42848281518110613fa557613fa5615981565b6020026020010151613fb791906155b2565b609860008a6001600160a01b03166001600160a01b031681526020019081526020016000206002016000868481518110613ff357613ff3615981565b60200260200101518152602001908152602001600020600001546140179190615853565b915081861061403657819250818661402f91906155b2565b955061403c565b60009592505b6140628885838151811061405257614052615981565b6020026020010151856001614354565b6001600160a01b0387161561409857614098874286848151811061408857614088615981565b6020026020010151866001613c53565b856140a257610667565b806140ac816159e2565b915050613e37565b60008260000182815481106140cb576140cb615981565b9060005260206000200154905092915050565b600054610100900460ff166141055760405162461bcd60e51b81526004016105de90615b54565b610d5d614608565b600054610100900460ff166141345760405162461bcd60e51b81526004016105de90615b54565b82516141479060689060208601906148fa565b50815161415b9060699060208501906148fa565b50805161416f90606a90602084019061497a565b5060005b81518110156141d8576001606b600084848151811061419457614194615981565b6020908102919091018101516001600160a01b03168252810191909152604001600020805460ff1916911515919091179055806141d0816159e2565b915050614173565b506040516329965a1d60e01b8152731820a4b7618bde71dce8cdc73aab6c95905fad24906329965a1d906142349030907fac7fbab5f54a3ca8194167523c6753bfeb96a445279294b6125b68cce2177054908290600401615b9f565b600060405180830381600087803b15801561424e57600080fd5b505af1158015614262573d6000803e3d6000fd5b50506040516329965a1d60e01b8152731820a4b7618bde71dce8cdc73aab6c95905fad2492506329965a1d91506142c19030907faea199e31a596269b42cdafd93407f14436db6e4cad65417994c2eb37381e05a908290600401615b9f565b600060405180830381600087803b1580156142db57600080fd5b505af1158015610be5573d6000803e3d6000fd5b600054610100900460ff166143165760405162461bcd60e51b81526004016105de90615b54565b6001609a55565b60006114e4838361463f565b60006114e48383614732565b60606143508260006001855161434b91906155b2565b614781565b5090565b6001600160a01b03841660009081526098602052604090206143899084600081815260018301602052604081205415156114e4565b151560011415611930576001811515141561449c576001600160a01b03841660009081526098602090815260408083208684526002019091529020600101546143d3908390615742565b6001600160a01b038516600090815260986020908152604080832087845260020190915281206001019190915561440a42856155b2565b6001600160a01b038616600090815260986020908152604080832088845260020190915290205461443b9190615853565b6001600160a01b03861660009081526098602090815260408083208884526002019091529020600101549091508111614496576001600160a01b03851660009081526098602090815260408083208784526002019091528120555b5061455f565b6001600160a01b038416600090815260986020908152604080832086845260029081019092529091200154821015614534576001600160a01b0384166000908152609860209081526040808320868452600290810190925290912001546145049083906155b2565b6001600160a01b03851660009081526098602090815260408083208784526002908101909252909120015561455f565b6001600160a01b03841660009081526098602090815260408083208684526002908101909252822001555b6001600160a01b03841660009081526098602090815260408083208684526002019091529020541580156145bb57506001600160a01b038416600090815260986020908152604080832086845260029081019092529091200154155b15611930576001600160a01b03841660008181526098602081815260408084208885526002808201845291852085815560018101869055909101849055939092529052610c35908461431d565b600054610100900460ff1661462f5760405162461bcd60e51b81526004016105de90615b54565b610d5d61463a61195c565b612996565b600081815260018301602052604081205480156147285760006146636001836155b2565b8554909150600090614677906001906155b2565b90508181146146dc57600086600001828154811061469757614697615981565b90600052602060002001549050808760000184815481106146ba576146ba615981565b6000918252602080832090910192909255918252600188019052604090208390555b85548690806146ed576146ed615cd8565b60019003818190600052602060002001600090559055856001016000868152602001908152602001600020600090556001935050505061081f565b600091505061081f565b60008181526001830160205260408120546147795750815460018181018455600084815260208082209093018490558454848252828601909352604090209190915561081f565b50600061081f565b818180821415614792575050505050565b60008560026147a18787615cee565b6147ab9190615d2d565b6147b59087615d5b565b815181106147c5576147c5615981565b602002602001015190505b8183136148d4575b808684815181106147eb576147eb615981565b6020026020010151101561480b578261480381615d9c565b9350506147d8565b85828151811061481d5761481d615981565b602002602001015181101561483e578161483681615db5565b92505061480b565b8183136148cf5785828151811061485757614857615981565b602002602001015186848151811061487157614871615981565b602002602001015187858151811061488b5761488b615981565b602002602001018885815181106148a4576148a4615981565b602090810291909101019190915252826148bd81615d9c565b93505081806148cb90615db5565b9250505b6147d0565b818512156148e7576148e7868684614781565b83831215610ad457610ad4868486614781565b828054614906906154b8565b90600052602060002090601f016020900481019282614928576000855561496e565b82601f1061494157805160ff191683800117855561496e565b8280016001018555821561496e579182015b8281111561496e578251825591602001919060010190614953565b506143509291506149cf565b82805482825590600052602060002090810192821561496e579160200282015b8281111561496e57825182546001600160a01b0319166001600160a01b0390911617825560209092019160019091019061499a565b5b8082111561435057600081556001016149d0565b6001600160a01b038116811461178d57600080fd5b60008083601f840112614a0b57600080fd5b5081356001600160401b03811115614a2257600080fd5b602083019150836020828501011115614a3a57600080fd5b9250929050565b60008060008060008060008060c0898b031215614a5d57600080fd5b8835614a68816149e4565b97506020890135614a78816149e4565b96506040890135614a88816149e4565b95506060890135945060808901356001600160401b0380821115614aab57600080fd5b614ab78c838d016149f9565b909650945060a08b0135915080821115614ad057600080fd5b50614add8b828c016149f9565b999c989b5096995094979396929594505050565b6001600160401b038116811461178d57600080fd5b634e487b7160e01b600052604160045260246000fd5b604080519081016001600160401b0381118282101715614b3e57614b3e614b06565b60405290565b60405161016081016001600160401b0381118282101715614b3e57614b3e614b06565b604051601f8201601f191681016001600160401b0381118282101715614b8f57614b8f614b06565b604052919050565b60006001600160401b03821115614bb057614bb0614b06565b5060051b60200190565b600082601f830112614bcb57600080fd5b81356020614be0614bdb83614b97565b614b67565b82815260069290921b84018101918181019086841115614bff57600080fd5b8286015b84811015614c475760408189031215614c1c5760008081fd5b614c24614b1c565b8135614c2f816149e4565b81528185013585820152835291830191604001614c03565b509695505050505050565b60008060008060008060008060006101208a8c031215614c7157600080fd5b8935614c7c816149e4565b985060208a0135614c8c816149e4565b975060408a0135614c9c81614af1565b965060608a01356001600160401b03811115614cb757600080fd5b614cc38c828d01614bba565b96505060808a0135614cd481614af1565b945060a08a0135614ce481614af1565b935060c08a0135614cf481614af1565b925060e08a0135614d0481614af1565b91506101008a0135614d1581614af1565b809150509295985092959850929598565b6001600160a01b0391909116815260200190565b600081518084526020808501945080840160005b83811015614d735781516001600160a01b031687529582019590820190600101614d4e565b509495945050505050565b6020815260006114e46020830184614d3a565b6000815180845260005b81811015614db757602081850181015186830182015201614d9b565b81811115614dc9576000602083870101525b50601f01601f19169290920160200192915050565b6020815260006114e46020830184614d91565b600082601f830112614e0257600080fd5b81356020614e12614bdb83614b97565b82815260059290921b84018101918181019086841115614e3157600080fd5b8286015b84811015614c47578035614e48816149e4565b8352918301918301614e35565b60008060408385031215614e6857600080fd5b8235915060208301356001600160401b03811115614e8557600080fd5b614e9185828601614df1565b9150509250929050565b60008060408385031215614eae57600080fd5b8235614eb9816149e4565b946020939093013593505050565b600080600060608486031215614edc57600080fd5b8335614ee7816149e4565b92506020840135614ef7816149e4565b929592945050506040919091013590565b600060208284031215614f1a57600080fd5b5035919050565b60008060408385031215614f3457600080fd5b823591506020830135614f46816149e4565b809150509250929050565b60008060008060008060c08789031215614f6a57600080fd5b8635614f75816149e4565b95506020870135614f85816149e4565b94506040870135614f95816149e4565b93506060870135614fa5816149e4565b92506080870135915060a0870135614fbc816149e4565b809150509295509295509295565b600060208284031215614fdc57600080fd5b81356114e4816149e4565b600082601f830112614ff857600080fd5b81356001600160401b0381111561501157615011614b06565b615024601f8201601f1916602001614b67565b81815284602083860101111561503957600080fd5b816020850160208301376000918101602001919091529392505050565b600080600080600060a0868803121561506e57600080fd5b8535615079816149e4565b94506020860135615089816149e4565b93506040860135925060608601356001600160401b03808211156150ac57600080fd5b6150b889838a01614fe7565b935060808801359150808211156150ce57600080fd5b506150db88828901614fe7565b9150509295509295909350565b6000806000606084860312156150fd57600080fd5b8335615108816149e4565b92506020840135915060408401356001600160401b0381111561512a57600080fd5b61513686828701614fe7565b9150509250925092565b60008060006060848603121561515557600080fd5b8335615160816149e4565b95602085013595506040909401359392505050565b600081518084526020808501945080840160005b83811015614d7357815187529582019590820190600101615189565b6000602080830181845280855180835260408601915060408160051b870101925083870160005b828110156151fa57603f198886030184526151e8858351615175565b945092850192908501906001016151cc565b5092979650505050505050565b600080600080600060a0868803121561521f57600080fd5b853561522a816149e4565b9450602086013561523a81614af1565b935060408601356001600160401b0381111561525557600080fd5b61526188828901614bba565b935050606086013561527281614af1565b9150608086013561528281614af1565b809150509295509295909350565b600080604083850312156152a357600080fd5b82356152ae816149e4565b91506020830135614f46816149e4565b600080600080608085870312156152d457600080fd5b84356152df816149e4565b9350602085810135935060408601356001600160401b038082111561530357600080fd5b61530f89838a01614df1565b9450606088013591508082111561532557600080fd5b818801915088601f83011261533957600080fd5b8135615347614bdb82614b97565b81815260059190911b8301840190848101908b83111561536657600080fd5b8585015b8381101561539e578035858111156153825760008081fd5b6153908e89838a0101614df1565b84525091860191860161536a565b50989b979a50959850505050505050565b6001600160a01b03929092168252602082015260400190565b600080600080608085870312156153de57600080fd5b84356153e9816149e4565b93506020850135925060408501356001600160401b038082111561540c57600080fd5b61541888838901614fe7565b9350606087013591508082111561542e57600080fd5b5061543b87828801614fe7565b91505092959194509250565b6000806040838503121561545a57600080fd5b8235915060208301356001600160401b0381111561547757600080fd5b614e9185828601614fe7565b6020808252818101527f4f776e61626c653a2063616c6c6572206973206e6f7420746865206f776e6572604082015260600190565b600181811c908216806154cc57607f821691505b602082108114156154ed57634e487b7160e01b600052602260045260246000fd5b50919050565b6020808252601f908201527f5265656e7472616e637947756172643a207265656e7472616e742063616c6c00604082015260600190565b60208082526024908201527f4552433737373a207472616e7366657220746f20746865207a65726f206164646040820152637265737360e01b606082015260800190565b602080825260149082015273494e53554646494349454e545f42414c414e434560601b604082015260600190565b634e487b7160e01b600052601160045260246000fd5b6000828210156155c4576155c461559c565b500390565b9182526001600160a01b0316602082015260400190565b6020808252602c908201527f4552433737373a2063616c6c6572206973206e6f7420616e206f70657261746f60408201526b39103337b9103437b63232b960a11b606082015260800190565b8051615637816149e4565b919050565b805161563781614af1565b8051801515811461563757600080fd5b805160ff8116811461563757600080fd5b6000610160828403121561567b57600080fd5b615683614b44565b61568c8361562c565b815261569a6020840161563c565b60208201526156ab6040840161562c565b60408201526156bc6060840161563c565b60608201526156cd6080840161563c565b60808201526156de60a0840161563c565b60a08201526156ef60c0840161563c565b60c082015261570060e0840161563c565b60e0820152610100615713818501615647565b90820152610120615725848201615657565b9082015261014061573784820161562c565b908201529392505050565b600082198211156157555761575561559c565b500190565b600181815b8085111561579557816000190482111561577b5761577b61559c565b8085161561578857918102915b93841c939080029061575f565b509250929050565b6000826157ac5750600161081f565b816157b95750600061081f565b81600181146157cf57600281146157d9576157f5565b600191505061081f565b60ff8411156157ea576157ea61559c565b50506001821b61081f565b5060208310610133831016604e8410600b8410161715615818575081810a61081f565b615822838361575a565b80600019048211156158365761583661559c565b029392505050565b60006114e46001600160401b0384168361579d565b600081600019048311821515161561586d5761586d61559c565b500290565b634e487b7160e01b600052601260045260246000fd5b60008261589757615897615872565b500490565b6060815260006158af6060830186614d3a565b6020838203818501526158c28287615175565b915083820360408501528185518084528284019150828160051b8501018388016000805b8481101561594257878403601f19018652825180518086529088019088860190845b8181101561592d5783516001600160a01b03168352928a0192918a0191600101615908565b505096880196945050918601916001016158e6565b50919b9a5050505050505050505050565b6000806040838503121561596657600080fd5b8251615971816149e4565b6020939093015192949293505050565b634e487b7160e01b600052603260045260246000fd5b634e487b7160e01b600052602160045260246000fd5b6020808252818101527f4572726f72207768656e2072656465656d20696e20616e20696e7374616e6365604082015260600190565b60006000198214156159f6576159f661559c565b5060010190565b600081518084526020808501945080840160005b83811015614d7357815180516001600160a01b031688528301518388015260409096019590820190600101615a11565b6001600160a01b038a81168252891660208201526001600160401b03888116604083015261012060608301819052600091615a7e8483018b6159fd565b988116608085015296871660a0840152505092841660c084015290831660e083015290911661010090910152949350505050565b600060208284031215615ac457600080fd5b81516114e4816149e4565b6001600160a01b0387811682528681166020830152851660408201526060810184905260c060808201819052600090615b0a90830185614d91565b82810360a0840152615b1c8185614d91565b9998505050505050505050565b838152606060208201526000615b426060830185614d91565b82810360408401526113ce8185614d91565b6020808252602b908201527f496e697469616c697a61626c653a20636f6e7472616374206973206e6f74206960408201526a6e697469616c697a696e6760a81b606082015260800190565b6001600160a01b0393841681526020810192909252909116604082015260600190565b60018060a01b038616815260006001600160401b03808716602084015260a06040840152615bf360a08401876159fd565b948116606084015292909216608090910152509392505050565b60006020808385031215615c2057600080fd5b82516001600160401b03811115615c3657600080fd5b8301601f81018513615c4757600080fd5b8051615c55614bdb82614b97565b81815260059190911b82018301908381019087831115615c7457600080fd5b928401925b82841015615c9b578351615c8c816149e4565b82529284019290840190615c79565b979650505050505050565b600060208284031215615cb857600080fd5b6114e482615647565b600081615cd057615cd061559c565b506000190190565b634e487b7160e01b600052603160045260246000fd5b60008083128015600160ff1b850184121615615d0c57615d0c61559c565b6001600160ff1b0384018313811615615d2757615d2761559c565b50500390565b600082615d3c57615d3c615872565b600160ff1b821460001984141615615d5657615d5661559c565b500590565b600080821280156001600160ff1b0384900385131615615d7d57615d7d61559c565b600160ff1b8390038412811615615d9657615d9661559c565b50500190565b60006001600160ff1b038214156159f6576159f661559c565b6000600160ff1b821415615cd057615cd061559c56feddf252ad1be2c89b69c2b068fc378daa952ba7f163c4a11628f55a4df523b3efa164736f6c634300080b000a",
  "linkReferences": {},
  "deployedLinkReferences": {}
}