{
  "_format": "hh-sol-artifact-1",
  "contractName": "CommunityStakingPoolFactory",
  "sourceName": "contracts/CommunityStakingPoolFactory.sol",
  "abi": [
    {
      "anonymous": false,
      "inputs": [
        {
          "indexed": true,
          "internalType": "address",
          "name": "tokenA",
          "type": "address"
        },
        {
          "indexed": true,
          "internalType": "address",
          "name": "tokenB",
          "type": "address"
        },
        {
          "indexed": false,
          "internalType": "address",
          "name": "instance",
          "type": "address"
        },
        {
          "indexed": false,
          "internalType": "uint256",
          "name": "instancesCount",
          "type": "uint256"
        },
        {
          "indexed": true,
          "internalType": "address",
          "name": "erc20",
          "type": "address"
        }
      ],
      "name": "InstanceCreated",
      "type": "event"
    },
    {
      "inputs": [
        {
          "internalType": "address",
          "name": "",
          "type": "address"
        }
      ],
      "name": "_instanceInfos",
      "outputs": [
        {
          "internalType": "address",
          "name": "reserveToken",
          "type": "address"
        },
        {
          "internalType": "uint64",
          "name": "duration",
          "type": "uint64"
        },
        {
          "internalType": "address",
          "name": "tradedToken",
          "type": "address"
        },
        {
          "internalType": "uint64",
          "name": "reserveTokenClaimFraction",
          "type": "uint64"
        },
        {
          "internalType": "uint64",
          "name": "tradedTokenClaimFraction",
          "type": "uint64"
        },
        {
          "internalType": "uint64",
          "name": "lpClaimFraction",
          "type": "uint64"
        },
        {
          "internalType": "uint64",
          "name": "numerator",
          "type": "uint64"
        },
        {
          "internalType": "uint64",
          "name": "denominator",
          "type": "uint64"
        },
        {
          "internalType": "bool",
          "name": "exists",
          "type": "bool"
        },
        {
          "internalType": "uint8",
          "name": "instanceType",
          "type": "uint8"
        },
        {
          "internalType": "address",
          "name": "tokenErc20",
          "type": "address"
        }
      ],
      "stateMutability": "view",
      "type": "function"
    },
    {
      "inputs": [
        {
          "internalType": "address[]",
          "name": "instancesToRedeem",
          "type": "address[]"
        },
        {
          "internalType": "uint256[]",
          "name": "valuesToRedeem",
          "type": "uint256[]"
        },
        {
          "internalType": "address[][]",
          "name": "swapPaths",
          "type": "address[][]"
        }
      ],
      "name": "amountAfterSwapLP",
      "outputs": [
        {
          "internalType": "address",
          "name": "finalToken",
          "type": "address"
        },
        {
          "internalType": "uint256",
          "name": "finalAmount",
          "type": "uint256"
        }
      ],
      "stateMutability": "view",
      "type": "function"
    },
    {
      "inputs": [],
      "name": "creator",
      "outputs": [
        {
          "internalType": "address",
          "name": "",
          "type": "address"
        }
      ],
      "stateMutability": "view",
      "type": "function"
    },
    {
      "inputs": [
        {
          "internalType": "address",
          "name": "",
          "type": "address"
        },
        {
          "internalType": "address",
          "name": "",
          "type": "address"
        },
        {
          "internalType": "uint256",
          "name": "",
          "type": "uint256"
        }
      ],
      "name": "getInstance",
      "outputs": [
        {
          "internalType": "address",
          "name": "",
          "type": "address"
        }
      ],
      "stateMutability": "view",
      "type": "function"
    },
    {
      "inputs": [
        {
          "internalType": "address",
          "name": "",
          "type": "address"
        },
        {
          "internalType": "uint256",
          "name": "",
          "type": "uint256"
        }
      ],
      "name": "getInstanceErc20",
      "outputs": [
        {
          "internalType": "address",
          "name": "",
          "type": "address"
        }
      ],
      "stateMutability": "view",
      "type": "function"
    },
    {
      "inputs": [
        {
          "internalType": "address",
          "name": "reserveToken",
          "type": "address"
        },
        {
          "internalType": "address",
          "name": "tradedToken",
          "type": "address"
        },
        {
          "internalType": "uint64",
          "name": "duration",
          "type": "uint64"
        }
      ],
      "name": "getInstanceInfo",
      "outputs": [
        {
          "components": [
            {
              "internalType": "address",
              "name": "reserveToken",
              "type": "address"
            },
            {
              "internalType": "uint64",
              "name": "duration",
              "type": "uint64"
            },
            {
              "internalType": "address",
              "name": "tradedToken",
              "type": "address"
            },
            {
              "internalType": "uint64",
              "name": "reserveTokenClaimFraction",
              "type": "uint64"
            },
            {
              "internalType": "uint64",
              "name": "tradedTokenClaimFraction",
              "type": "uint64"
            },
            {
              "internalType": "uint64",
              "name": "lpClaimFraction",
              "type": "uint64"
            },
            {
              "internalType": "uint64",
              "name": "numerator",
              "type": "uint64"
            },
            {
              "internalType": "uint64",
              "name": "denominator",
              "type": "uint64"
            },
            {
              "internalType": "bool",
              "name": "exists",
              "type": "bool"
            },
            {
              "internalType": "uint8",
              "name": "instanceType",
              "type": "uint8"
            },
            {
              "internalType": "address",
              "name": "tokenErc20",
              "type": "address"
            }
          ],
          "internalType": "struct ICommunityStakingPoolFactory.InstanceInfo",
          "name": "",
          "type": "tuple"
        }
      ],
      "stateMutability": "view",
      "type": "function"
    },
    {
      "inputs": [
        {
          "internalType": "address",
          "name": "addr",
          "type": "address"
        }
      ],
      "name": "getInstanceInfoByPoolAddress",
      "outputs": [
        {
          "components": [
            {
              "internalType": "address",
              "name": "reserveToken",
              "type": "address"
            },
            {
              "internalType": "uint64",
              "name": "duration",
              "type": "uint64"
            },
            {
              "internalType": "address",
              "name": "tradedToken",
              "type": "address"
            },
            {
              "internalType": "uint64",
              "name": "reserveTokenClaimFraction",
              "type": "uint64"
            },
            {
              "internalType": "uint64",
              "name": "tradedTokenClaimFraction",
              "type": "uint64"
            },
            {
              "internalType": "uint64",
              "name": "lpClaimFraction",
              "type": "uint64"
            },
            {
              "internalType": "uint64",
              "name": "numerator",
              "type": "uint64"
            },
            {
              "internalType": "uint64",
              "name": "denominator",
              "type": "uint64"
            },
            {
              "internalType": "bool",
              "name": "exists",
              "type": "bool"
            },
            {
              "internalType": "uint8",
              "name": "instanceType",
              "type": "uint8"
            },
            {
              "internalType": "address",
              "name": "tokenErc20",
              "type": "address"
            }
          ],
          "internalType": "struct ICommunityStakingPoolFactory.InstanceInfo",
          "name": "",
          "type": "tuple"
        }
      ],
      "stateMutability": "view",
      "type": "function"
    },
    {
      "inputs": [],
      "name": "implementation",
      "outputs": [
        {
          "internalType": "address",
          "name": "",
          "type": "address"
        }
      ],
      "stateMutability": "view",
      "type": "function"
    },
    {
      "inputs": [],
      "name": "implementationErc20",
      "outputs": [
        {
          "internalType": "address",
          "name": "",
          "type": "address"
        }
      ],
      "stateMutability": "view",
      "type": "function"
    },
    {
      "inputs": [
        {
          "internalType": "address",
          "name": "impl",
          "type": "address"
        },
        {
          "internalType": "address",
          "name": "implErc20",
          "type": "address"
        }
      ],
      "name": "initialize",
      "outputs": [],
      "stateMutability": "nonpayable",
      "type": "function"
    },
    {
      "inputs": [],
      "name": "instances",
      "outputs": [
        {
          "internalType": "address[]",
          "name": "instances_",
          "type": "address[]"
        }
      ],
      "stateMutability": "view",
      "type": "function"
    },
    {
      "inputs": [
        {
          "internalType": "uint256",
          "name": "index",
          "type": "uint256"
        }
      ],
      "name": "instancesByIndex",
      "outputs": [
        {
          "internalType": "address",
          "name": "instance_",
          "type": "address"
        }
      ],
      "stateMutability": "view",
      "type": "function"
    },
    {
      "inputs": [],
      "name": "instancesCount",
      "outputs": [
        {
          "internalType": "uint256",
          "name": "amount",
          "type": "uint256"
        }
      ],
      "stateMutability": "view",
      "type": "function"
    },
    {
      "inputs": [
        {
          "internalType": "address",
          "name": "reserveToken",
          "type": "address"
        },
        {
          "internalType": "address",
          "name": "tradedToken",
          "type": "address"
        },
        {
          "internalType": "uint64",
          "name": "duration",
          "type": "uint64"
        },
        {
          "components": [
            {
              "internalType": "address",
              "name": "account",
              "type": "address"
            },
            {
              "internalType": "uint256",
              "name": "amount",
              "type": "uint256"
            }
          ],
          "internalType": "struct IStructs.StructAddrUint256[]",
          "name": "donations",
          "type": "tuple[]"
        },
        {
          "internalType": "uint64",
          "name": "reserveTokenClaimFraction",
          "type": "uint64"
        },
        {
          "internalType": "uint64",
          "name": "tradedTokenClaimFraction",
          "type": "uint64"
        },
        {
          "internalType": "uint64",
          "name": "lpClaimFraction",
          "type": "uint64"
        },
        {
          "internalType": "uint64",
          "name": "numerator",
          "type": "uint64"
        },
        {
          "internalType": "uint64",
          "name": "denominator",
          "type": "uint64"
        }
      ],
      "name": "produce",
      "outputs": [
        {
          "internalType": "address",
          "name": "instance",
          "type": "address"
        }
      ],
      "stateMutability": "nonpayable",
      "type": "function"
    },
    {
      "inputs": [
        {
          "internalType": "address",
          "name": "tokenErc20",
          "type": "address"
        },
        {
          "internalType": "uint64",
          "name": "duration",
          "type": "uint64"
        },
        {
          "components": [
            {
              "internalType": "address",
              "name": "account",
              "type": "address"
            },
            {
              "internalType": "uint256",
              "name": "amount",
              "type": "uint256"
            }
          ],
          "internalType": "struct IStructs.StructAddrUint256[]",
          "name": "donations",
          "type": "tuple[]"
        },
        {
          "internalType": "uint64",
          "name": "numerator",
          "type": "uint64"
        },
        {
          "internalType": "uint64",
          "name": "denominator",
          "type": "uint64"
        }
      ],
      "name": "produceErc20",
      "outputs": [
        {
          "internalType": "address",
          "name": "instance",
          "type": "address"
        }
      ],
      "stateMutability": "nonpayable",
      "type": "function"
    }
  ],
  "bytecode": "0x608060405234801561001057600080fd5b50612a4c806100206000396000f3fe608060405234801561001057600080fd5b50600436106100c55760003560e01c806302d05d3f146100ca57806305b82531146100f357806308b0a09c146101065780630b9c6c7e146101405780632c99c587146101745780632d3231d11461018757806341e7272f1461019a578063466c0303146101ba578063485cc955146102625780634d2ace66146102775780634e2529761461028c578063552f75a0146102ad5780635c60da1b146102be5780635d7467e1146102d15780637ca25001146102e4575b600080fd5b6006546100dd906001600160a01b031681565b6040516100ea9190611f31565b60405180910390f35b6100dd61010136600461209d565b6102f7565b6100dd610114366004612163565b60026020908152600093845260408085208252928452828420905282529020546001600160a01b031681565b6100dd61014e3660046121a4565b60036020908152600092835260408084209091529082529020546001600160a01b031681565b6100dd6101823660046121d0565b610406565b6005546100dd906001600160a01b031681565b6101ad6101a83660046121e9565b610436565b6040516100ea9190612230565b61024b6101c836600461232f565b600c6020526000908152604090208054600182015460028301546003909301546001600160a01b03808416946001600160401b03600160a01b95869004811695858416950481169382821693600160401b8404831693600160801b8104841693600160c01b909104169160ff80821692610100830490911691620100009004168b565b6040516100ea9b9a99989796959493929190612353565b6102756102703660046123d5565b610529565b005b61027f610662565b6040516100ea919061240e565b61029f61029a36600461253e565b6106c4565b6040516100ea929190612619565b6007546040519081526020016100ea565b6004546100dd906001600160a01b031681565b6100dd6102df366004612632565b610a26565b6101ad6102f236600461232f565b610b19565b6006546000906001600160a01b0316331461031157600080fd5b61031e8a8a8a8989610bea565b60006103308b8b8b8a8a8a8a8a610df7565b90506001600160a01b0381166103615760405162461bcd60e51b8152600401610358906126b3565b60405180910390fd5b6001600160401b0389166103875760405162461bcd60e51b8152600401610358906126fa565b600654604051634e89326960e11b81526001600160a01b0383811692639d1264d2926103c592909116908f908f908e908e908e908e90600401612778565b600060405180830381600087803b1580156103df57600080fd5b505af11580156103f3573d6000803e3d6000fd5b50929d9c50505050505050505050505050565b60006007828154811061041b5761041b6127d8565b6000918252602090912001546001600160a01b031692915050565b61043e611ec8565b506001600160a01b03928316600090815260026020818152604080842095871684529481528483206001600160401b03948516845281528483205486168352600c81529184902084516101608101865281548088168252600160a01b9081900486169482019490945260018201548088169682019690965292909404831660608301528301548083166080830152600160401b8104831660a0830152600160801b8104831660c0830152600160c01b900490911660e082015260039091015460ff80821615156101008085019190915282041661012083015262010000900490911661014082015290565b600054610100900460ff166105445760005460ff1615610548565b303b155b6105ab5760405162461bcd60e51b815260206004820152602e60248201527f496e697469616c697a61626c653a20636f6e747261637420697320616c72656160448201526d191e481a5b9a5d1a585b1a5e995960921b6064820152608401610358565b600054610100900460ff161580156105cd576000805461ffff19166101011790555b6105d561113c565b600180546001600160a01b03199081166001600160a01b03938416179091556000805462010000600160b01b031916620100009484169490940293909317909255600480548316868316179055600580548316918516919091179055600680543392169190911790556009805460ff19166002179055801561065d576000805461ff00191690555b505050565b606060078054806020026020016040519081016040528092919081815260200182805480156106ba57602002820191906000526020600020905b81546001600160a01b0316815260019091019060200180831161069c575b5050505050905090565b6000808080808080805b8a51811015610a1857600c60008c83815181106106ed576106ed6127d8565b6020908102919091018101516001600160a01b0316825281019190915260400160002060020154600160401b90046001600160401b03166107475789818151811061073a5761073a6127d8565b6020026020010151610804565b620186a06001600160401b0316600c60008d848151811061076a5761076a6127d8565b60200260200101516001600160a01b03166001600160a01b0316815260200190815260200160002060020160089054906101000a90046001600160401b03166001600160401b03168b83815181106107c4576107c46127d8565b60200260200101516107d6919061281a565b6107e09190612839565b8a82815181106107f2576107f26127d8565b6020026020010151610804919061285b565b91506108298b828151811061081b5761081b6127d8565b60200260200101518361125b565b8e5193995091975095509350600c906000908d908490811061084d5761084d6127d8565b6020908102919091018101516001600160a01b03168252810191909152604001600020600201546001600160401b0316156108f657620186a06001600160401b0316600c60008d84815181106108a5576108a56127d8565b6020908102919091018101516001600160a01b03168252810191909152604001600020600201546108df906001600160401b03168861281a565b6108e99190612839565b6108f3908761285b565b95505b600c60008c838151811061090c5761090c6127d8565b6020908102919091018101516001600160a01b0316825281019190915260400160002060010154600160a01b90046001600160401b0316156109c357620186a06001600160401b0316600c60008d848151811061096b5761096b6127d8565b6020908102919091018101516001600160a01b03168252810191909152604001600020600101546109ac90600160a01b90046001600160401b03168661281a565b6109b69190612839565b6109c0908561285b565b93505b6000806109d487898d888c8b61152b565b925090506109f1856109e68885612872565b8d600080600061152b565b925090506109ff828a612872565b9099509750819050610a108161288a565b9150506106ce565b505050505050935093915050565b6006546000906001600160a01b03163314610a4057600080fd5b610a4a86866117c6565b6000610a588787868661186a565b90506001600160a01b038116610a805760405162461bcd60e51b8152600401610358906126b3565b6001600160401b038616610aa65760405162461bcd60e51b8152600401610358906126fa565b60065460405163614a73c760e11b81526001600160a01b038381169263c294e78e92610adc92909116908b908a906004016128a5565b600060405180830381600087803b158015610af657600080fd5b505af1158015610b0a573d6000803e3d6000fd5b50929998505050505050505050565b610b21611ec8565b506001600160a01b039081166000908152600c6020908152604091829020825161016081018452815480861682526001600160401b03600160a01b918290048116948301949094526001830154808716958301959095529093048216606084015260028101548083166080850152600160401b8104831660a0850152600160801b8104831660c0850152600160c01b900490911660e08301526003015460ff80821615156101008085019190915282041661012083015262010000900490911661014082015290565b836001600160a01b0316856001600160a01b03161415610c575760405162461bcd60e51b815260206004820152602260248201527f436f6d6d756e697479436f696e3a204944454e544943414c5f41444452455353604482015261455360f01b6064820152608401610358565b6001600160a01b03851615801590610c7757506001600160a01b03841615155b610cc15760405162461bcd60e51b815260206004820152601b60248201527a436f6d6d756e697479436f696e3a205a45524f5f4144445245535360281b6044820152606401610358565b620186a06001600160401b03831611801590610ce95750620186a06001600160401b03821611155b610d415760405162461bcd60e51b815260206004820152602360248201527f436f6d6d756e697479436f696e3a2057524f4e475f434c41494d5f465241435460448201526224a7a760e91b6064820152608401610358565b6001600160a01b038086166000908152600260209081526040808320888516845282528083206001600160401b0388168452909152902054168015610d985760405162461bcd60e51b8152600401610358906128da565b600260095460ff166002811115610db157610db16127ee565b1480610dd35750600060095460ff166002811115610dd157610dd16127ee565b145b610def5760405162461bcd60e51b81526004016103589061291c565b505050505050565b600454600090610e0f906001600160a01b0316611b9b565b6001600160a01b03808b1660009081526002602090815260408083208d8516845282528083206001600160401b038d168452825280832080549486166001600160a01b0319958616811790915560078054828652600a855292852083905560018381019091557fa66cc928b5edb82af9bd49922954155ab7b0942694bea4ce44661d9a8736c688909201805490951617909355600880549384018155825282047ff3f7a9fe364faab93b216da50a3214154f22a0a2b415b23a84c8169e8b636ee30180549394509092909160ff601f9091166101000a90810219909116908302179055506001600160a01b038082166000908152600b6020908152604080832080546001600160a01b031916331790558051610160810182528d851681526001600160401b03808d1693820193909352938c16908401528881166060840152878116608084015286811660a084015285811660c0840152841660e0830152600161010083015261012082019060ff9081168252600060209283018190526001600160a01b038581168252600c845260409182902085518154958701516001600160401b03908116600160a01b9081026001600160e01b0319988916938616939093179290921783559387015160018301805460608a0151871690930292909716908416171790945560808501516002808601805460a089015160c08a015160e08b01518816600160c01b026001600160c01b03918916600160801b02919091166001600160801b03928916600160401b026001600160801b0319909416969098169590951791909117169490941791909117909255610100808601516003909501805461012088015161014090980151909316620100000262010000600160b01b03199790951690910261ff00199515159590951661ffff1990921691909117939093179390931617905560095460ff1660028111156110d1576110d16127ee565b14156110e2576009805460ff191690555b6007546040516000916001600160a01b038b811692908d16917f81701c1c70b426eb8901f685c148db992f144facb9e1c40bf83cdaf059348c8b91611128918791612619565b60405180910390a498975050505050505050565b60008046600181148061114f5750806003145b8061115a5750806004145b80611166575080610539145b80611172575080617a69145b156111a95750737a250d5630b4cf539739df2c5dacb4c659f2488d92735c69bee701ef814a2b6a3edd4b1652cb9cc5aa6f92509050565b80608914156111e4575073a5e0829caced8ffdd4de3c43696c57f7d7a678ff92735757371414417b8c6caad45baef941abc7d3ab3292509050565b806038141561121f57507310ed43c718714eb63d5aa57b78b54704e256024e9273ca143ce32fe78f1f7019d7d551a6402fc5350c7392509050565b60405162461bcd60e51b81526020600482015260116024820152703ab739bab83837b93a32b21031b430b4b760791b6044820152606401610358565b6001600160a01b038083166000908152600c6020526040812060018101549054919290811691839116821580159061129b57506001600160a01b03811615155b6112e45760405162461bcd60e51b815260206004820152601a6024820152796164647265737365732063616e206e6f7420626520656d70747960301b6044820152606401610358565b60015460405163e6a4390560e01b81526000916001600160a01b03169063e6a43905906113179087908690600401612960565b602060405180830381865afa158015611334573d6000803e3d6000fd5b505050506040513d601f19601f82011682018060405250810190611358919061297a565b90506001600160a01b0381166113a75760405162461bcd60e51b81526020600482015260146024820152737061697220646f6573206e6f742065786973747360601b6044820152606401610358565b6040516370a0823160e01b81526000906001600160a01b038416906370a08231906113d6908590600401611f31565b602060405180830381865afa1580156113f3573d6000803e3d6000fd5b505050506040513d601f19601f820116820180604052508101906114179190612997565b90506000856001600160a01b03166370a08231846040518263ffffffff1660e01b81526004016114479190611f31565b602060405180830381865afa158015611464573d6000803e3d6000fd5b505050506040513d601f19601f820116820180604052508101906114889190612997565b90506000836001600160a01b03166318160ddd6040518163ffffffff1660e01b8152600401602060405180830381865afa1580156114ca573d6000803e3d6000fd5b505050506040513d601f19601f820116820180604052508101906114ee9190612997565b9050806114fb848b61281a565b6115059190612839565b955080611512838b61281a565b61151c9190612839565b97505050505092959194509250565b6000806001600160a01b0385166117585760008060005b885181101561171f5788818151811061155d5761155d6127d8565b602002602001015160018a8381518110611579576115796127d8565b60200260200101515161158c919061285b565b8151811061159c5761159c6127d8565b60200260200101516001600160a01b03168b6001600160a01b031614156115cb578a8a945094505050506117bb565b8a925089915060005b8982815181106115e6576115e66127d8565b60200260200101515181101561170c57600080611638868d868151811061160f5761160f6127d8565b60200260200101518581518110611628576116286127d8565b6020026020010151878d8d611c38565b9150915081156116475761164e565b505061170c565b60018c8581518110611662576116626127d8565b602002602001015151611675919061285b565b8314156116bf578b848151811061168e5761168e6127d8565b602002602001015183815181106116a7576116a76127d8565b602002602001015181975097505050505050506117bb565b8b84815181106116d1576116d16127d8565b602002602001015183815181106116ea576116ea6127d8565b60200260200101519550809450505080806117049061288a565b9150506115d4565b50806117178161288a565b915050611542565b5060405162461bcd60e51b815260206004820152600d60248201526c1c185d1a1cc81a5b9d985b1a59609a1b6044820152606401610358565b6000806117688a888b8989611c38565b91509150811561177e5786935091506117bb9050565b60405162461bcd60e51b8152602060048201526012602482015271199bdc98d9481cddd85c081a5b9d985b1a5960721b6044820152606401610358565b965096945050505050565b6001600160a01b0380831660009081526003602090815260408083206001600160401b03861684529091529020541680156118135760405162461bcd60e51b8152600401610358906128da565b600260095460ff16600281111561182c5761182c6127ee565b148061184e5750600160095460ff16600281111561184c5761184c6127ee565b145b61065d5760405162461bcd60e51b81526004016103589061291c565b600554600090611882906001600160a01b0316611b9b565b6001600160a01b0380871660009081526003602090815260408083206001600160401b038a168452825280832080549486166001600160a01b0319958616811790915560078054828652600a855292852083905560018381019091557fa66cc928b5edb82af9bd49922954155ab7b0942694bea4ce44661d9a8736c688909201805490951617909355600880548085018255925281047ff3f7a9fe364faab93b216da50a3214154f22a0a2b415b23a84c8169e8b636ee3018054939450919260ff601f9092166101000a9182021916908302179055506001600160a01b0381166000908152600b6020908152604080832080546001600160a01b031916331790558051610160810182528381526001600160401b0380891693820193909352908101839052606081018390526080810183905260a081019290925284811660c0830152831660e08201526001610100820181905261012082019060ff90811682526001600160a01b038881166020938401528481166000908152600c845260409081902085518154958701519084166001600160e01b031996871617600160a01b6001600160401b0392831681029190911783559287015160018301805460608a01519287169816979097179082169093029290921790945560808501516002808601805460a089015160c08a015160e08b01519587166001600160801b031990931692909217600160401b91871691909102176001600160801b0316600160801b918616919091026001600160c01b031617600160c01b939094169290920292909217905561010080860151600390950180546101208801516101409098015161ffff1990911696151561ff0019169690961796909416029490941762010000600160b01b03191662010000939091169290920291909117905560095460ff166002811115611b3457611b346127ee565b1415611b48576009805460ff191660011790555b6007546040516001600160a01b0387169160009182917f81701c1c70b426eb8901f685c148db992f144facb9e1c40bf83cdaf059348c8b91611b8b918791612619565b60405180910390a4949350505050565b6000604051733d602d80600a3d3981f3363d3d373d3d3d363d7360601b81528260601b60148201526e5af43d82803e903d91602b57fd5bf360881b60288201526037816000f09150506001600160a01b038116611c335760405162461bcd60e51b8152602060048201526016602482015275115490cc4c4d8dce8818dc99585d194819985a5b195960521b6044820152606401610358565b919050565b60015460405163e6a4390560e01b8152600091829182916001600160a01b03169063e6a4390590611c6f908b908b90600401612960565b602060405180830381865afa158015611c8c573d6000803e3d6000fd5b505050506040513d601f19601f82011682018060405250810190611cb0919061297a565b90506001600160a01b038116611cc557611ebd565b600080826001600160a01b0316630902f1ac6040518163ffffffff1660e01b8152600401606060405180830381865afa158015611d06573d6000803e3d6000fd5b505050506040513d601f19601f82011682018060405250810190611d2a91906129c7565b5091509150816001600160701b031660001480611d4e57506001600160701b038116155b15611d5857611eba565b826001600160a01b0316630dfe16816040518163ffffffff1660e01b8152600401602060405180830381865afa158015611d96573d6000803e3d6000fd5b505050506040513d601f19601f82011682018060405250810190611dba919061297a565b6001600160a01b03168a6001600160a01b031614611dd9578082611ddc565b81815b90925090506001600160701b03821687101580611e025750806001600160701b03168610155b15611e0c57611eba565b611e168783612a17565b9150611e228682612a17565b600054604051630153543560e21b8152600481018b90526001600160701b038086166024830152831660448201529192506201000090046001600160a01b03169063054d50d490606401602060405180830381865afa158015611e89573d6000803e3d6000fd5b505050506040513d601f19601f82011682018060405250810190611ead9190612997565b93508315611eba57600194505b50505b509550959350505050565b6040805161016081018252600080825260208201819052918101829052606081018290526080810182905260a0810182905260c0810182905260e081018290526101008101829052610120810182905261014081019190915290565b6001600160a01b03169052565b6001600160a01b0391909116815260200190565b6001600160a01b0381168114611f5a57600080fd5b50565b80356001600160401b0381168114611c3357600080fd5b634e487b7160e01b600052604160045260246000fd5b604080519081016001600160401b0381118282101715611fac57611fac611f74565b60405290565b604051601f8201601f191681016001600160401b0381118282101715611fda57611fda611f74565b604052919050565b60006001600160401b03821115611ffb57611ffb611f74565b5060051b60200190565b600082601f83011261201657600080fd5b8135602061202b61202683611fe2565b611fb2565b82815260069290921b8401810191818101908684111561204a57600080fd5b8286015b8481101561209257604081890312156120675760008081fd5b61206f611f8a565b813561207a81611f45565b8152818501358582015283529183019160400161204e565b509695505050505050565b60008060008060008060008060006101208a8c0312156120bc57600080fd5b89356120c781611f45565b985060208a01356120d781611f45565b97506120e560408b01611f5d565b965060608a01356001600160401b0381111561210057600080fd5b61210c8c828d01612005565b96505061211b60808b01611f5d565b945061212960a08b01611f5d565b935061213760c08b01611f5d565b925061214560e08b01611f5d565b91506121546101008b01611f5d565b90509295985092959850929598565b60008060006060848603121561217857600080fd5b833561218381611f45565b9250602084013561219381611f45565b929592945050506040919091013590565b600080604083850312156121b757600080fd5b82356121c281611f45565b946020939093013593505050565b6000602082840312156121e257600080fd5b5035919050565b6000806000606084860312156121fe57600080fd5b833561220981611f45565b9250602084013561221981611f45565b915061222760408501611f5d565b90509250925092565b600061016082019050612244828451611f24565b602083015161225e60208401826001600160401b03169052565b5060408301516122716040840182611f24565b50606083015161228c60608401826001600160401b03169052565b5060808301516122a760808401826001600160401b03169052565b5060a08301516122c260a08401826001600160401b03169052565b5060c08301516122dd60c08401826001600160401b03169052565b5060e08301516122f860e08401826001600160401b03169052565b50610100838101511515908301526101208084015160ff16908301526101408084015161232782850182611f24565b505092915050565b60006020828403121561234157600080fd5b813561234c81611f45565b9392505050565b6001600160a01b038c811682526001600160401b038c81166020840152908b1660408301528981166060830152888116608083015287811660a083015286811660c0830152851660e082015283151561010082015260ff831661012082015261016081016123c5610140830184611f24565b9c9b505050505050505050505050565b600080604083850312156123e857600080fd5b82356123f381611f45565b9150602083013561240381611f45565b809150509250929050565b6020808252825182820181905260009190848201906040850190845b8181101561244f5783516001600160a01b03168352928401929184019160010161242a565b50909695505050505050565b600082601f83011261246c57600080fd5b8135602061247c61202683611fe2565b82815260059290921b8401810191818101908684111561249b57600080fd5b8286015b848110156120925780356124b281611f45565b835291830191830161249f565b600082601f8301126124d057600080fd5b813560206124e061202683611fe2565b82815260059290921b840181019181810190868411156124ff57600080fd5b8286015b848110156120925780356001600160401b038111156125225760008081fd5b6125308986838b010161245b565b845250918301918301612503565b60008060006060848603121561255357600080fd5b83356001600160401b038082111561256a57600080fd5b6125768783880161245b565b945060209150818601358181111561258d57600080fd5b8601601f8101881361259e57600080fd5b80356125ac61202682611fe2565b81815260059190911b8201840190848101908a8311156125cb57600080fd5b928501925b828410156125e9578335825292850192908501906125d0565b9650505050604086013591508082111561260257600080fd5b5061260f868287016124bf565b9150509250925092565b6001600160a01b03929092168252602082015260400190565b600080600080600060a0868803121561264a57600080fd5b853561265581611f45565b945061266360208701611f5d565b935060408601356001600160401b0381111561267e57600080fd5b61268a88828901612005565b93505061269960608701611f5d565b91506126a760808701611f5d565b90509295509295909350565b60208082526027908201527f436f6d6d756e697479436f696e3a20494e5354414e43455f4352454154494f4e60408201526617d1905253115160ca1b606082015260800190565b60208082526015908201527431b0b73a103132903d32b93790323ab930ba34b7b760591b604082015260600190565b600081518084526020808501945080840160005b8381101561276d57815180516001600160a01b03168852830151838801526040909601959082019060010161273d565b509495945050505050565b6001600160a01b03888116825287811660208301528616604082015260e0606082018190526000906127ac90830187612729565b6001600160401b03958616608084015293851660a083015250921660c090920191909152949350505050565b634e487b7160e01b600052603260045260246000fd5b634e487b7160e01b600052602160045260246000fd5b634e487b7160e01b600052601160045260246000fd5b600081600019048311821515161561283457612834612804565b500290565b60008261285657634e487b7160e01b600052601260045260246000fd5b500490565b60008282101561286d5761286d612804565b500390565b6000821982111561288557612885612804565b500190565b600060001982141561289e5761289e612804565b5060010190565b6001600160a01b038481168252831660208201526060604082018190526000906128d190830184612729565b95945050505050565b60208082526022908201527f436f6d6d756e697479436f696e3a20504149525f414c52454144595f45584953604082015261545360f01b606082015260800190565b60208082526024908201527f436f6d6d756e697479436f696e3a20494e56414c49445f494e5354414e43455f6040820152635459504560e01b606082015260800190565b6001600160a01b0392831681529116602082015260400190565b60006020828403121561298c57600080fd5b815161234c81611f45565b6000602082840312156129a957600080fd5b5051919050565b80516001600160701b0381168114611c3357600080fd5b6000806000606084860312156129dc57600080fd5b6129e5846129b0565b92506129f3602085016129b0565b9150604084015163ffffffff81168114612a0c57600080fd5b809150509250925092565b60006001600160701b0383811690831681811015612a3757612a37612804565b03939250505056fea164736f6c634300080b000a",
  "linkReferences": {},
  "deployedLinkReferences": {}
}