{
  "_format": "hh-sol-artifact-1",
  "contractName": "CommunityStakingPool",
  "sourceName": "contracts/CommunityStakingPool.sol",
  "abi": [
    {
      "anonymous": false,
      "inputs": [
        {
          "indexed": true,
          "internalType": "address",
          "name": "from",
          "type": "address"
        },
        {
          "indexed": true,
          "internalType": "address",
          "name": "to",
          "type": "address"
        },
        {
          "indexed": false,
          "internalType": "uint256",
          "name": "amount",
          "type": "uint256"
        }
      ],
      "name": "Donated",
      "type": "event"
    },
    {
      "anonymous": false,
      "inputs": [
        {
          "indexed": true,
          "internalType": "address",
          "name": "account",
          "type": "address"
        },
        {
          "indexed": false,
          "internalType": "uint256",
          "name": "amount",
          "type": "uint256"
        }
      ],
      "name": "Redeemed",
      "type": "event"
    },
    {
      "inputs": [],
      "name": "FRACTION",
      "outputs": [
        {
          "internalType": "uint64",
          "name": "",
          "type": "uint64"
        }
      ],
      "stateMutability": "view",
      "type": "function"
    },
    {
      "inputs": [
        {
          "internalType": "address",
          "name": "payingToken",
          "type": "address"
        },
        {
          "internalType": "uint256",
          "name": "amount",
          "type": "uint256"
        }
      ],
      "name": "buyLiquidityAndStake",
      "outputs": [],
      "stateMutability": "nonpayable",
      "type": "function"
    },
    {
      "inputs": [
        {
          "internalType": "uint256",
          "name": "tokenBAmount",
          "type": "uint256"
        }
      ],
      "name": "buyLiquidityAndStake",
      "outputs": [],
      "stateMutability": "nonpayable",
      "type": "function"
    },
    {
      "inputs": [
        {
          "internalType": "uint256",
          "name": "tokenBAmount",
          "type": "uint256"
        },
        {
          "internalType": "address",
          "name": "beneficiary",
          "type": "address"
        }
      ],
      "name": "buyLiquidityAndStake",
      "outputs": [],
      "stateMutability": "nonpayable",
      "type": "function"
    },
    {
      "inputs": [],
      "name": "buyLiquidityAndStake",
      "outputs": [],
      "stateMutability": "payable",
      "type": "function"
    },
    {
      "inputs": [
        {
          "internalType": "address",
          "name": "beneficiary",
          "type": "address"
        }
      ],
      "name": "buyLiquidityAndStake",
      "outputs": [],
      "stateMutability": "payable",
      "type": "function"
    },
    {
      "inputs": [
        {
          "internalType": "address",
          "name": "payingToken",
          "type": "address"
        },
        {
          "internalType": "uint256",
          "name": "amount",
          "type": "uint256"
        },
        {
          "internalType": "address",
          "name": "beneficiary",
          "type": "address"
        }
      ],
      "name": "buyLiquidityAndStake",
      "outputs": [],
      "stateMutability": "nonpayable",
      "type": "function"
    },
    {
      "inputs": [
        {
          "internalType": "address",
          "name": "stakingProducedBy_",
          "type": "address"
        },
        {
          "internalType": "address",
          "name": "reserveToken_",
          "type": "address"
        },
        {
          "internalType": "address",
          "name": "tradedToken_",
          "type": "address"
        },
        {
          "components": [
            {
              "internalType": "address",
              "name": "account",
              "type": "address"
            },
            {
              "internalType": "uint256",
              "name": "amount",
              "type": "uint256"
            }
          ],
          "internalType": "struct IStructs.StructAddrUint256[]",
          "name": "donations_",
          "type": "tuple[]"
        },
        {
          "internalType": "uint64",
          "name": "tradedTokenClaimFraction_",
          "type": "uint64"
        },
        {
          "internalType": "uint64",
          "name": "reserveTokenClaimFraction_",
          "type": "uint64"
        },
        {
          "internalType": "uint64",
          "name": "lpClaimFraction_",
          "type": "uint64"
        }
      ],
      "name": "initialize",
      "outputs": [],
      "stateMutability": "nonpayable",
      "type": "function"
    },
    {
      "inputs": [],
      "name": "lpClaimFraction",
      "outputs": [
        {
          "internalType": "uint64",
          "name": "",
          "type": "uint64"
        }
      ],
      "stateMutability": "view",
      "type": "function"
    },
    {
      "inputs": [
        {
          "internalType": "address",
          "name": "account",
          "type": "address"
        },
        {
          "internalType": "uint256",
          "name": "amount",
          "type": "uint256"
        }
      ],
      "name": "redeem",
      "outputs": [],
      "stateMutability": "nonpayable",
      "type": "function"
    },
    {
      "inputs": [
        {
          "internalType": "address",
          "name": "account",
          "type": "address"
        },
        {
          "internalType": "uint256",
          "name": "amount",
          "type": "uint256"
        }
      ],
      "name": "redeemAndRemoveLiquidity",
      "outputs": [],
      "stateMutability": "nonpayable",
      "type": "function"
    },
    {
      "inputs": [],
      "name": "reserveToken",
      "outputs": [
        {
          "internalType": "address",
          "name": "",
          "type": "address"
        }
      ],
      "stateMutability": "view",
      "type": "function"
    },
    {
      "inputs": [],
      "name": "reserveTokenClaimFraction",
      "outputs": [
        {
          "internalType": "uint64",
          "name": "",
          "type": "uint64"
        }
      ],
      "stateMutability": "view",
      "type": "function"
    },
    {
      "inputs": [
        {
          "internalType": "uint256",
          "name": "amountTradedToken",
          "type": "uint256"
        },
        {
          "internalType": "address",
          "name": "beneficiary",
          "type": "address"
        }
      ],
      "name": "sellAndStakeLiquidity",
      "outputs": [],
      "stateMutability": "nonpayable",
      "type": "function"
    },
    {
      "inputs": [
        {
          "internalType": "uint256",
          "name": "amountTradedToken",
          "type": "uint256"
        }
      ],
      "name": "sellAndStakeLiquidity",
      "outputs": [],
      "stateMutability": "nonpayable",
      "type": "function"
    },
    {
      "inputs": [
        {
          "internalType": "uint256",
          "name": "lpAmount",
          "type": "uint256"
        }
      ],
      "name": "stakeLiquidity",
      "outputs": [],
      "stateMutability": "nonpayable",
      "type": "function"
    },
    {
      "inputs": [
        {
          "internalType": "address",
          "name": "",
          "type": "address"
        },
        {
          "internalType": "address",
          "name": "from",
          "type": "address"
        },
        {
          "internalType": "address",
          "name": "to",
          "type": "address"
        },
        {
          "internalType": "uint256",
          "name": "amount",
          "type": "uint256"
        },
        {
          "internalType": "bytes",
          "name": "",
          "type": "bytes"
        },
        {
          "internalType": "bytes",
          "name": "",
          "type": "bytes"
        }
      ],
      "name": "tokensReceived",
      "outputs": [],
      "stateMutability": "nonpayable",
      "type": "function"
    },
    {
      "inputs": [],
      "name": "tradedToken",
      "outputs": [
        {
          "internalType": "address",
          "name": "",
          "type": "address"
        }
      ],
      "stateMutability": "view",
      "type": "function"
    },
    {
      "inputs": [],
      "name": "tradedTokenClaimFraction",
      "outputs": [
        {
          "internalType": "uint64",
          "name": "",
          "type": "uint64"
        }
      ],
      "stateMutability": "view",
      "type": "function"
    },
    {
      "inputs": [],
      "name": "uniswapV2Pair",
      "outputs": [
        {
          "internalType": "contract IUniswapV2Pair",
          "name": "",
          "type": "address"
        }
      ],
      "stateMutability": "view",
      "type": "function"
    },
    {
      "stateMutability": "payable",
      "type": "receive"
    }
  ],
  "bytecode": "0x608060405234801561001057600080fd5b50612a16806100206000396000f3fe6080604052600436106101025760003560e01c806382341e8f1161009057806382341e8f146102625780639d1264d214610282578063a05936d7146102a2578063b5a5e987146102c9578063bfbfdb61146102dc578063c80c362314610303578063db0b27fd1461032a578063e67462061461034a578063f306e35d1461036a578063f4325d671461038a57600080fd5b806223de291461010e5780631be9bdfc146101355780631e9a6950146101555780632eb41dd414610175578063350763731461019557806348b7ab11146101b557806349bd5a5e146101d55780636cd5f47a1461020b5780636d1849311461022b57806371891d471461023357600080fd5b3661010957005b600080fd5b34801561011a57600080fd5b506101336101293660046121e9565b5050505050505050565b005b34801561014157600080fd5b50610133610150366004612299565b6103aa565b34801561016157600080fd5b50610133610170366004612299565b61048e565b34801561018157600080fd5b506101336101903660046122c5565b61052d565b3480156101a157600080fd5b506101336101b03660046122f5565b6105e0565b3480156101c157600080fd5b506101336101d03660046122f5565b6107a7565b3480156101e157600080fd5b50606d546101f5906001600160a01b031681565b604051610202919061230e565b60405180910390f35b34801561021757600080fd5b506101336102263660046122c5565b61085c565b6101336108b8565b34801561023f57600080fd5b5061024a620186a081565b6040516001600160401b039091168152602001610202565b34801561026e57600080fd5b5061013361027d366004612299565b6109a3565b34801561028e57600080fd5b5061013361029d3660046123cf565b6109c8565b3480156102ae57600080fd5b5060685461024a90600160a01b90046001600160401b031681565b6101336102d73660046124fe565b610d99565b3480156102e857600080fd5b5060695461024a90600160a01b90046001600160401b031681565b34801561030f57600080fd5b5060675461024a90600160a01b90046001600160401b031681565b34801561033657600080fd5b506067546101f5906001600160a01b031681565b34801561035657600080fd5b506101336103653660046122f5565b610dde565b34801561037657600080fd5b5061013361038536600461251b565b610e45565b34801561039657600080fd5b506068546101f5906001600160a01b031681565b600260335414156103d65760405162461bcd60e51b81526004016103cd9061255d565b60405180910390fd5b600260335560006103e5610f21565b6040516323b872dd60e01b81529091506001600160a01b038416906323b872dd9061041890849030908790600401612594565b6020604051808303816000875af1158015610437573d6000803e3d6000fd5b505050506040513d601f19601f8201168201806040525081019061045b91906125b8565b506068546000906104779085906001600160a01b031685610fb2565b90506104838282611178565b505060016033555050565b6065546001600160a01b031633146104a557600080fd5b60006104b18383611507565b606d5460405163a9059cbb60e01b81529192506001600160a01b03169063a9059cbb906104e490869085906004016125da565b6020604051808303816000875af1158015610503573d6000803e3d6000fd5b505050506040513d601f19601f8201168201806040525081019061052791906125b8565b50505050565b600260335414156105505760405162461bcd60e51b81526004016103cd9061255d565b60026033556067546040516323b872dd60e01b81526001600160a01b03909116906323b872dd9061058990339030908790600401612594565b6020604051808303816000875af11580156105a8573d6000803e3d6000fd5b505050506040513d601f19601f820116820180604052508101906105cc91906125b8565b506105d78183611588565b50506001603355565b600260335414156106035760405162461bcd60e51b81526004016103cd9061255d565b6002603355806106445760405162461bcd60e51b815260206004820152600c60248201526b414d4f554e545f454d50545960a01b60448201526064016103cd565b606d546040516323b872dd60e01b81526001600160a01b03909116906323b872dd9061067890339030908690600401612594565b6020604051808303816000875af1158015610697573d6000803e3d6000fd5b505050506040513d601f19601f820116820180604052508101906106bb91906125b8565b50600080606d60009054906101000a90046001600160a01b03166001600160a01b0316630902f1ac6040518163ffffffff1660e01b8152600401606060405180830381865afa158015610712573d6000803e3d6000fd5b505050506040513d601f19601f82011682018060405250810190610736919061260a565b506068546069546001600160701b0393841695509190921692506000916001600160a01b03918216911614610782578261077383620186a0612665565b61077d919061269a565b61079a565b8161079084620186a0612665565b61079a919061269a565b905061048333858361190f565b600260335414156107ca5760405162461bcd60e51b81526004016103cd9061255d565b600260335560006107d9610f21565b6068546040516323b872dd60e01b81529192506001600160a01b0316906323b872dd9061080e90849030908790600401612594565b6020604051808303816000875af115801561082d573d6000803e3d6000fd5b505050506040513d601f19601f8201168201806040525081019061085191906125b8565b506105d78183611178565b6002603354141561087f5760405162461bcd60e51b81526004016103cd9061255d565b60026033556068546040516323b872dd60e01b81526001600160a01b03909116906323b872dd9061080e90339030908790600401612594565b600260335414156108db5760405162461bcd60e51b81526004016103cd9061255d565b600260335560006108ea610f21565b90506000341161090c5760405162461bcd60e51b81526004016103cd906126bc565b606b5460408051630d0e30db60e41b8152905134926001600160a01b03169163d0e30db091849160048082019260009290919082900301818588803b15801561095457600080fd5b505af1158015610968573d6000803e3d6000fd5b5050606b546068546000945061098d93506001600160a01b0391821692501684610fb2565b90506109998382611178565b5050600160335550565b6065546001600160a01b031633146109ba57600080fd5b6109c48282611afb565b5050565b600054610100900460ff166109e35760005460ff16156109e7565b303b155b610a4a5760405162461bcd60e51b815260206004820152602e60248201527f496e697469616c697a61626c653a20636f6e747261637420697320616c72656160448201526d191e481a5b9a5d1a585b1a5e995960921b60648201526084016103cd565b600054610100900460ff16158015610a6c576000805461ffff19166101011790555b610a768886611cbe565b6069805467ffffffffffffffff60a01b1916600160a01b6001600160401b0385811682029290921790925560688054606780546001600160e01b031992831689861687026001600160a01b0319908116919091176001600160a01b038f811691909117909555921693891690940281169290921790891617909155606c8054737a250d5630b4cf539739df2c5dacb4c659f2488d921682179055604080516315ab88c960e31b8152905163ad5c4648916004808201926020929091908290030181865afa158015610b4b573d6000803e3d6000fd5b505050506040513d601f19601f82011682018060405250810190610b6f91906126ea565b606b80546001600160a01b0319166001600160a01b0392831617905560675460685460405163e6a4390560e01b815291831660048301529091166024820152600090735c69bee701ef814a2b6a3edd4b1652cb9cc5aa6f9063e6a4390590604401602060405180830381865afa158015610bed573d6000803e3d6000fd5b505050506040513d601f19601f82011682018060405250810190610c1191906126ea565b90506001600160a01b038116610c5e5760405162461bcd60e51b81526020600482015260126024820152712727afaaa724a9aba0a82fab192fa820a4a960711b60448201526064016103cd565b606d80546001600160a01b0319166001600160a01b03831690811790915560408051630dfe168160e01b81529051630dfe1681916004808201926020929091908290030181865afa158015610cb7573d6000803e3d6000fd5b505050506040513d601f19601f82011682018060405250810190610cdb91906126ea565b606980546001600160a01b0319166001600160a01b03928316179055606d546040805163d21220a760e01b81529051919092169163d21220a79160048083019260209291908290030181865afa158015610d39573d6000803e3d6000fd5b505050506040513d601f19601f82011682018060405250810190610d5d91906126ea565b606a80546001600160a01b0319166001600160a01b0392909216919091179055508015610129576000805461ff00191690555050505050505050565b60026033541415610dbc5760405162461bcd60e51b81526004016103cd9061255d565b60026033553461090c5760405162461bcd60e51b81526004016103cd906126bc565b60026033541415610e015760405162461bcd60e51b81526004016103cd9061255d565b60026033556000610e10610f21565b6067546040516323b872dd60e01b81529192506001600160a01b0316906323b872dd9061058990339030908790600401612594565b60026033541415610e685760405162461bcd60e51b81526004016103cd9061255d565b60026033556000610e77610f21565b6040516323b872dd60e01b81529091506001600160a01b038516906323b872dd90610eaa90849030908890600401612594565b6020604051808303816000875af1158015610ec9573d6000803e3d6000fd5b505050506040513d601f19601f82011682018060405250810190610eed91906125b8565b50606854600090610f099086906001600160a01b031686610fb2565b9050610f158382611178565b50506001603355505050565b3360143610801590610f9f575060655460405163572b6c0560e01b81526001600160a01b039091169063572b6c0590610f5e90849060040161230e565b602060405180830381865afa158015610f7b573d6000803e3d6000fd5b505050506040513d601f19601f82011682018060405250810190610f9f91906125b8565b15610faf575060131936013560601c5b90565b60405163095ea7b360e01b81526000906001600160a01b0385169063095ea7b390610ff790737a250d5630b4cf539739df2c5dacb4c659f2488d9086906004016125da565b6020604051808303816000875af1158015611016573d6000803e3d6000fd5b505050506040513d601f19601f8201168201806040525081019061103a91906125b8565b6110565760405162461bcd60e51b81526004016103cd90612707565b604080516002808252606082018352600092602083019080368337019050509050848160008151811061108b5761108b61272f565b60200260200101906001600160a01b031690816001600160a01b03168152505083816001815181106110bf576110bf61272f565b6001600160a01b039283166020918202929092010152606c546040516338ed173960e01b815260009291909116906338ed1739906111099087908590879030904290600401612745565b6000604051808303816000875af1158015611128573d6000803e3d6000fd5b505050506040513d6000823e601f3d908101601f1916820160405261115091908101906127b6565b9050806001815181106111655761116561272f565b6020026020010151925050509392505050565b600080606d60009054906101000a90046001600160a01b03166001600160a01b0316630902f1ac6040518163ffffffff1660e01b8152600401606060405180830381865afa1580156111ce573d6000803e3d6000fd5b505050506040513d601f19601f820116820180604052508101906111f2919061260a565b506001600160701b031691506001600160701b031691508160001415801561121957508015155b6112355760405162461bcd60e51b81526004016103cd90612846565b6068546069546000916001600160a01b0391821691161461126d578261125e83620186a0612665565b611268919061269a565b611285565b8161127b84620186a0612665565b611285919061269a565b90506000826112a781611298888261286e565b6112a29190612665565b611dc1565b6112b19190612886565b90506000811180156112c257508085115b6112de5760405162461bcd60e51b81526004016103cd9061289d565b6068546067546000916112fe916001600160a01b03918216911684610fb2565b9050600061130c8388612886565b60675460405163095ea7b360e01b81529192506001600160a01b03169063095ea7b39061135390737a250d5630b4cf539739df2c5dacb4c659f2488d9086906004016125da565b6020604051808303816000875af1158015611372573d6000803e3d6000fd5b505050506040513d601f19601f8201168201806040525081019061139691906125b8565b8015611426575060685460405163095ea7b360e01b81526001600160a01b039091169063095ea7b3906113e390737a250d5630b4cf539739df2c5dacb4c659f2488d9085906004016125da565b6020604051808303816000875af1158015611402573d6000803e3d6000fd5b505050506040513d601f19601f8201168201806040525081019061142691906125b8565b6114425760405162461bcd60e51b81526004016103cd90612707565b606c5460675460685460405162e8e33760e81b81526000936001600160a01b039081169363e8e337009361148a939183169216908890889088908190309042906004016128c1565b6060604051808303816000875af11580156114a9573d6000803e3d6000fd5b505050506040513d601f19601f820116820180604052508101906114cd919061290a565b92505050600081116114f15760405162461bcd60e51b81526004016103cd90612938565b6114fc89828761190f565b505050505050505050565b6000826001600160a01b03167f4896181ff8f4543cc00db9fe9b6fb7e6f032b7eb772c72ab1ec1b4d2e03b93698360405161154491815260200190565b60405180910390a2606d54606954606554611581926001600160a01b03908116928692600160a01b9091046001600160401b031691166000611f37565b9392505050565b600080606d60009054906101000a90046001600160a01b03166001600160a01b0316630902f1ac6040518163ffffffff1660e01b8152600401606060405180830381865afa1580156115de573d6000803e3d6000fd5b505050506040513d601f19601f82011682018060405250810190611602919061260a565b506001600160701b031691506001600160701b031691508160001415801561162957508015155b6116455760405162461bcd60e51b81526004016103cd90612846565b6067546069546000916001600160a01b0391821691161461167d578261166e83620186a0612665565b611678919061269a565b611695565b8161168b84620186a0612665565b611695919061269a565b90506000836116a881611298888261286e565b6116b29190612886565b90506000811180156116c357508085115b6116df5760405162461bcd60e51b81526004016103cd9061289d565b6067546068546000916116ff916001600160a01b03918216911684610fb2565b9050600061170d8388612886565b60675460405163095ea7b360e01b81529192506001600160a01b03169063095ea7b39061175490737a250d5630b4cf539739df2c5dacb4c659f2488d9085906004016125da565b6020604051808303816000875af1158015611773573d6000803e3d6000fd5b505050506040513d601f19601f8201168201806040525081019061179791906125b8565b8015611827575060685460405163095ea7b360e01b81526001600160a01b039091169063095ea7b3906117e490737a250d5630b4cf539739df2c5dacb4c659f2488d9086906004016125da565b6020604051808303816000875af1158015611803573d6000803e3d6000fd5b505050506040513d601f19601f8201168201806040525081019061182791906125b8565b6118435760405162461bcd60e51b81526004016103cd90612707565b606c5460675460685460405162e8e33760e81b8152600093849384936001600160a01b039283169363e8e337009361188e93811692169089908b9088908190309042906004016128c1565b6060604051808303816000875af11580156118ad573d6000803e3d6000fd5b505050506040513d601f19601f820116820180604052508101906118d1919061290a565b925092509250600081116118f75760405162461bcd60e51b81526004016103cd90612938565b6119028b828961190f565b5050505050505050505050565b606654829015611a99576000805b606654811015611a9657620186a06001600160401b0316606682815481106119475761194761272f565b906000526020600020906002020160010154866119649190612665565b61196e919061269a565b91508115611a8457606554606680546001600160a01b0390921691639efb64dd9190849081106119a0576119a061272f565b60009182526020909120600290910201546040516001600160e01b031960e084901b1681526119df916001600160a01b0316908690899060040161295e565b600060405180830381600087803b1580156119f957600080fd5b505af1158015611a0d573d6000803e3d6000fd5b5050505060668181548110611a2457611a2461272f565b6000918252602091829020600290910201546040518481526001600160a01b0391821692918916917f4dfff917e1fbb261a082e98cc7d43029621f6a6eb05ff3fef1510d5f1eb4857c910160405180910390a3611a818284612886565b92505b80611a8e8161297f565b91505061191d565b50505b606554604051639efb64dd60e01b81526001600160a01b0390911690639efb64dd90611acd9087908590879060040161295e565b600060405180830381600087803b158015611ae757600080fd5b505af1158015610129573d6000803e3d6000fd5b6000611b078383611507565b606d5460405163095ea7b360e01b81529192506001600160a01b03169063095ea7b390611b4e90737a250d5630b4cf539739df2c5dacb4c659f2488d9085906004016125da565b6020604051808303816000875af1158015611b6d573d6000803e3d6000fd5b505050506040513d601f19601f82011682018060405250810190611b9191906125b8565b611bad5760405162461bcd60e51b81526004016103cd90612707565b606c54606754606854604051635d5155ef60e11b81526001600160a01b039283166004820152908216602482015260448101849052600060648201819052608482018190523060a48301524260c4830152928392169063baa2abde9060e40160408051808303816000875af1158015611c2a573d6000803e3d6000fd5b505050506040513d601f19601f82011682018060405250810190611c4e919061299a565b606754606554929450909250611c85916001600160a01b03808316928692600160a01b9091046001600160401b0316911689611f37565b50606854606554611cb6916001600160a01b03808216928592600160a01b90046001600160401b0316911689611f37565b505050505050565b600054610100900460ff16611ce55760405162461bcd60e51b81526004016103cd906129be565b606580546001600160a01b0319166001600160a01b03841617905560005b8151811015611db85760666040518060400160405280848481518110611d2b57611d2b61272f565b6020026020010151600001516001600160a01b03168152602001848481518110611d5757611d5761272f565b602090810291909101810151810151909152825460018082018555600094855293829020835160029092020180546001600160a01b0319166001600160a01b0390921691909117815591015191015580611db08161297f565b915050611d03565b506109c461212a565b600081611dd057506000919050565b50600181600160801b8110611dea5760409190911b9060801c5b600160401b8110611e005760209190911b9060401c5b6401000000008110611e175760109190911b9060201c5b620100008110611e2c5760089190911b9060101c5b6101008110611e405760049190911b9060081c5b60108110611e535760029190911b9060041c5b60088110611e6357600182901b91505b6001828481611e7457611e74612684565b048301901c91506001828481611e8c57611e8c612684565b048301901c91506001828481611ea457611ea4612684565b048301901c91506001828481611ebc57611ebc612684565b048301901c91506001828481611ed457611ed4612684565b048301901c91506001828481611eec57611eec612684565b048301901c91506001828481611f0457611f04612684565b048301901c91506000828481611f1c57611f1c612684565b04905080831015611f2d5782611f2f565b805b949350505050565b60006001600160a01b03821615620186a0851415611fc65760405163a9059cbb60e01b81526001600160a01b0388169063a9059cbb90611f7d9087908a906004016125da565b6020604051808303816000875af1158015611f9c573d6000803e3d6000fd5b505050506040513d601f19601f82011682018060405250810190611fc091906125b8565b50612120565b84612007578015611fd957859150612120565b60405163a9059cbb60e01b81526001600160a01b0388169063a9059cbb90611f7d9086908a906004016125da565b6000620186a06120178789612665565b612021919061269a565b60405163a9059cbb60e01b81529091506001600160a01b0389169063a9059cbb9061205290889085906004016125da565b6020604051808303816000875af1158015612071573d6000803e3d6000fd5b505050506040513d601f19601f8201168201806040525081019061209591906125b8565b506120a08188612886565b92508161211e5760405163a9059cbb60e01b81526001600160a01b0389169063a9059cbb906120d590879087906004016125da565b6020604051808303816000875af11580156120f4573d6000803e3d6000fd5b505050506040513d601f19601f8201168201806040525081019061211891906125b8565b50600092505b505b5095945050505050565b600054610100900460ff166121515760405162461bcd60e51b81526004016103cd906129be565b61215961215b565b565b600054610100900460ff166121825760405162461bcd60e51b81526004016103cd906129be565b6001603355565b6001600160a01b038116811461219e57600080fd5b50565b60008083601f8401126121b357600080fd5b5081356001600160401b038111156121ca57600080fd5b6020830191508360208285010111156121e257600080fd5b9250929050565b60008060008060008060008060c0898b03121561220557600080fd5b883561221081612189565b9750602089013561222081612189565b9650604089013561223081612189565b95506060890135945060808901356001600160401b038082111561225357600080fd5b61225f8c838d016121a1565b909650945060a08b013591508082111561227857600080fd5b506122858b828c016121a1565b999c989b5096995094979396929594505050565b600080604083850312156122ac57600080fd5b82356122b781612189565b946020939093013593505050565b600080604083850312156122d857600080fd5b8235915060208301356122ea81612189565b809150509250929050565b60006020828403121561230757600080fd5b5035919050565b6001600160a01b0391909116815260200190565b634e487b7160e01b600052604160045260246000fd5b604080519081016001600160401b038111828210171561235a5761235a612322565b60405290565b604051601f8201601f191681016001600160401b038111828210171561238857612388612322565b604052919050565b60006001600160401b038211156123a9576123a9612322565b5060051b60200190565b80356001600160401b03811681146123ca57600080fd5b919050565b600080600080600080600060e0888a0312156123ea57600080fd5b87356123f581612189565b965060208881013561240681612189565b9650604089013561241681612189565b955060608901356001600160401b0381111561243157600080fd5b8901601f81018b1361244257600080fd5b803561245561245082612390565b612360565b81815260069190911b8201830190838101908d83111561247457600080fd5b928401925b828410156124c0576040848f0312156124925760008081fd5b61249a612338565b84356124a581612189565b81528486013586820152825260409093019290840190612479565b80985050505050506124d4608089016123b3565b92506124e260a089016123b3565b91506124f060c089016123b3565b905092959891949750929550565b60006020828403121561251057600080fd5b813561158181612189565b60008060006060848603121561253057600080fd5b833561253b81612189565b925060208401359150604084013561255281612189565b809150509250925092565b6020808252601f908201527f5265656e7472616e637947756172643a207265656e7472616e742063616c6c00604082015260600190565b6001600160a01b039384168152919092166020820152604081019190915260600190565b6000602082840312156125ca57600080fd5b8151801515811461158157600080fd5b6001600160a01b03929092168252602082015260400190565b80516001600160701b03811681146123ca57600080fd5b60008060006060848603121561261f57600080fd5b612628846125f3565b9250612636602085016125f3565b9150604084015163ffffffff8116811461255257600080fd5b634e487b7160e01b600052601160045260246000fd5b600081600019048311821515161561267f5761267f61264f565b500290565b634e487b7160e01b600052601260045260246000fd5b6000826126b757634e487b7160e01b600052601260045260246000fd5b500490565b602080825260149082015273494e53554646494349454e545f42414c414e434560601b604082015260600190565b6000602082840312156126fc57600080fd5b815161158181612189565b6020808252600e908201526d1054141493d59157d1905253115160921b604082015260600190565b634e487b7160e01b600052603260045260246000fd5b600060a082018783526020878185015260a0604085015281875180845260c086019150828901935060005b818110156127955784516001600160a01b031683529383019391830191600101612770565b50506001600160a01b03969096166060850152505050608001529392505050565b600060208083850312156127c957600080fd5b82516001600160401b038111156127df57600080fd5b8301601f810185136127f057600080fd5b80516127fe61245082612390565b81815260059190911b8201830190838101908783111561281d57600080fd5b928401925b8284101561283b57835182529284019290840190612822565b979650505050505050565b6020808252600e908201526d52455345525645535f454d50545960901b604082015260600190565b600082198211156128815761288161264f565b500190565b6000828210156128985761289861264f565b500390565b6020808252600a908201526910905117d05353d5539560b21b604082015260600190565b6001600160a01b039889168152968816602088015260408701959095526060860193909352608085019190915260a084015290921660c082015260e08101919091526101000190565b60008060006060848603121561291f57600080fd5b8351925060208401519150604084015190509250925092565b6020808252600c908201526b4e4f5f4c495155494449545960a01b604082015260600190565b6001600160a01b039390931683526020830191909152604082015260600190565b60006000198214156129935761299361264f565b5060010190565b600080604083850312156129ad57600080fd5b505080516020909101519092909150565b6020808252602b908201527f496e697469616c697a61626c653a20636f6e7472616374206973206e6f74206960408201526a6e697469616c697a696e6760a81b60608201526080019056fea164736f6c634300080b000a",
  "linkReferences": {},
  "deployedLinkReferences": {}
}